:020000040800F2
:10000000A80B022079020008BB1500086D0A000841
:10001000B9150008610400083D2300080000000035
:10002000000000000000000000000000C101000806
:100030005D06000800000000150200086D210008A0
:10004000930200089302000893020008930200083C
:10005000930200089302000893020008930200082C
:10006000930200089302000893020008930200081C
:10007000930200089302000893020008930200080C
:1000800093020008930200089302000893020008FC
:1000900093020008930200089302000893020008EC
:1000A00093020008930200089302000893020008DC
:1000B00093020008930200089302000893020008CC
:1000C00093020008930200089302000893020008BC
:1000D00093020008930200089302000893020008AC
:1000E000930200089302000893020008930200089C
:1000F000930200089302000893020008930200088C
:10010000930200089302000893020008930200087B
:10011000930200089302000893020008930200086B
:10012000930200089302000893020008930200085B
:10013000930200089302000893020008930200084B
:10014000930200089302000893020008930200083B
:10015000930200089302000893020008930200082B
:10016000930200089302000893020008930200081B
:10017000930200089302000893020008930200080B
:1001800093020008930200089302000893020008FB
:1001900093020008930200089302000893020008EB
:1001A000930200089302000893020008DFF80CD0C5
:1001B00000F0B8F80048004739280008A80B0220D2
:1001C0002A4B19680868B0E8F04F80F30988BFF33C
:1001D0006F8F4FF0000080F311887047000000001F
:1001E00006480068006880F3088862B661B6BFF30D
:1001F0004F8FBFF36F8F00DF00BF00BF08ED00E03F
:10020000DFF80C00016841F470010160704700BF25
:1002100088ED00E0EFF30980BFF36F8F134B1A688E
:100220001EF0100F08BF20ED108A20E9F04F10607B
:1002300008B44FF0500080F31188BFF34F8FBFF325
:100240006F8F03F0BBF84FF0000080F3118808BCFB
:1002500019680868B0E8F04F1EF0100F08BFB0EC46
:10026000108A80F30988BFF36F8F704770000020F9
:10027000EFF30580704700000648804706480047B6
:10028000FEE7FEE7FEE7FEE7FEE7FEE7FEE7FEE746
:10029000FEE7FEE7C1210008AD01000840EA0103C6
:1002A0009B0703D009E008C9121F08C0042AFAD22C
:1002B00003E011F8013B00F8013B521EF9D27047F0
:1002C0002DE9F05F0546002092469B46884606468B
:1002D000814640241BE0284641464746224600F01E
:1002E00042F853465A46C01A914110D31146184657
:1002F000224600F029F82D1A67EB01084F462246E6
:100300000120002100F020F817EB00094E41201ECB
:10031000A4F10104DFDC484631462A464346BDE8E5
:10032000F09F0000064C074D06E0E06840F0010336
:1003300094E8070098471034AC42F6D3FFF73AFF31
:10034000184F0008384F0008202A04DB203A00FA32
:1003500002F1002070479140C2F1200320FA03F31C
:10036000194390407047202A04DB203A21FA02F01A
:100370000021704721FA02F3D040C2F120029140DF
:1003800008431946704700001CB502F0F3FD16A0A3
:1003900001F0D6FF04211A48CC01CDE9001000235A
:1003A000224618A11B4803F04BFB012802D11AA0DA
:1003B00001F0C6FF12480121001DCDE90010002305
:1003C00022461DA11F4803F03BFB012802D11EA0BD
:1003D00001F0B6FF0A48001F006802F0D5FEBDE834
:1003E0001C4002F003BE0000B4B4BDA84B45595FE9
:1003F0005461736BC8CECEF1B3C9B9A6210D0A0002
:1004000028000020524541445F44485431315F5434
:1004100061736B00E1170008B4B4BDA852454144B4
:100420005F44485431315F5461736BC8CECEF1B331
:10043000C9B9A6210D0A00004C43445F5461736B97
:1004400000000000E1110008B4B4BDA84C43445FB3
:100450005461736BC8CECEF1B3C9B9A6210D0A00A1
:10046000FEE700000648016841F080710160054820
:1004700000214160016841F0010101607047000006
:10048000FCED00E0001000E001484068704700000B
:10049000001000E0F1B50024FFF7E4FF0F48104919
:1004A0000068B0FBF1F600984643FFF7EDFF054604
:1004B00002F07CFFFFF7E8FFA842FBD003D9A0EBD6
:1004C00005010C4403E06FEA050101440C440546B4
:1004D000B442EFD3BDE8F84003F0BCBB00000020FD
:1004E00040420F001CB50121102001F0B9F8042092
:1004F000009001208DF8040000218DF806108DF881
:10050000070002208DF805006946024800F0B4F9A2
:100510001CBD0000001002401CB50420009000200B
:100520008DF804008DF8070002208DF8050069465B
:10053000014800F0A1F91CBD001002401CB50420C8
:10054000009001208DF8040000218DF806108DF830
:10055000070002208DF805006946024800F08CF97A
:100560001CBD00000010024010B50121CC05204642
:1005700001F084F82046BDE81040002101F07EB86B
:1005800001460020024A52680A4200D0012070470A
:1005900000B0024030B500242A4B19682A4A1140A5
:1005A00019601968026811431960596B21F007013D
:1005B0005963596B4268114359634168002928D037
:1005C00001292DD0022930D0032933D0C1680A0176
:1005D00001690902446924038568214315430D43D9
:1005E000996B0D439D638169D963196C6FF30D019C
:1005F0001964196CC26911431964818C09045A6C1D
:1006000002F040425A645A6C006A02430A435A6438
:1006100030BDC1680A02018A0904047D2406DBE7B3
:10062000C1680A02018A0904D6E7C1684A01016962
:10063000C902D1E7C1684A01016989024469E4033A
:10064000CAE7000000B00240FCE0FCFF024801687D
:1006500041F001010160704700B0024070470000A6
:1006600070B586B00121084600F0FAFF0121102084
:1006700001F020F800248DF8164001208DF81700B5
:1006800002258DF815508DF81450400204901C4E30
:1006900004A9304600F0F0F88DF814506902049176
:1006A00004A9304600F0E8F807220A21304600F09D
:1006B00021F907220921304600F01CF94FF4E130FE
:1006C0000090ADF80440ADF80640ADF80840ADF834
:1006D0000C400C20ADF80A000A4C6946204601F097
:1006E000CBFD00F06BFF012240F22551204601F0C6
:1006F000A8FD0121204601F091FD06B070BD00006B
:10070000000002400010014000224FF0204310285A
:100710000AD0B0F5807F09D0B0F5805F09D0D3F85A
:100720005801814309D107E0586EFAE7D3F88400F5
:10073000F7E7D3F8A400F4E7012210467047000061
:10074000D0E9001211438268C068521E520142EA89
:10075000402001430148016070470000500100A0A3
:1007600070B50468A100A1F1C041D1F84011CE0BD1
:10077000F603D0E901121143D0E903231A431143D0
:100780004269C36911438269056A11431943426A88
:100790002943114331434FF02046002C3CD0D6F87A
:1007A00040416FF30E042B4322431343C6F84031FC
:1007B00002689200A2F1C042C2F84011016871B310
:1007C0008900A1F1C041D1F8481101F07043816A5C
:1007D0000A684C68521E641E42EA04148A68521E5B
:1007E00044EA02240A8A521E44EA02421A43D6F814
:1007F000483103F07043CC68898A641E2403491E83
:1008000044EA01511943C6F8481100688000A0F17C
:10081000C040C0F8482170BDC6F84011CEE7FFE7E0
:10082000D6F8481101F07041806A02684368521E90
:100830005B1E42EA03138268521E43EA0223C26827
:10084000521E43EA0233028A521E43EA0243828A5C
:10085000007E521E43EA0252401E42EA00600843F4
:10086000C6F8480170BD000002490A6842EA40002B
:1008700008607047540100A02DE9F04100220127D3
:100880004FF0030C07FA02F50B682B40AB422CD15A
:10089000066853000CFA03F4A64306600E79D0F8FC
:1008A00000809E4046EA080606600E79012E01D0BF
:1008B000022E12D18668A64386604E79D0F8088051
:1008C0009E4046EA080686604668AE434660456834
:1008D0008E799640B6B235434560C568A543C5607C
:1008E000CC799C40C3681C43C460521C102AC9D3F5
:1008F000BDE8F08110B54B07DB0E9A40C90800EB4C
:100900008100016A0F249C40A1430162016A1143E6
:10091000016210BD0246002012690A4200D0012087
:1009200070474183704701837047000070B50546EA
:100930000C46104E3078002803D101F0C1FA012096
:100940003070220AE1B2A13AC2EB021000EB421071
:1009500001EB4001A13901EBC1008101C81701EB96
:100960005070C110482201F5AA01284601F082FA10
:10097000002070BD4800002010B54FF4407000F01A
:1009800065FEFFF76DFE13A001F0DAFC00F012FD2A
:1009900015A001F0D5FC00F06BF818A001F0D0FC18
:1009A00001F0EEFB1AA001F0CBFC00F013FB00F00D
:1009B00051FB012000F02CFD1BA001F0C1FCFFF752
:1009C00091FD1EA001F0BCFCBDE8104020A001F08C
:1009D000B7BC000055534152545F436F6E66696760
:1009E00009094F4B210D0A004C45445F436F6E6669
:1009F000696709094F4B210D0A0000004B45595FFB
:100A0000436F6E66696709094F4B210D0A000000AC
:100A10005359535449434B5F436F6E6669670909E5
:100A20004F4B210D0A0000004C43445F436F6E663C
:100A3000696709094F4B210D0A00000044485431F1
:100A4000315F436F6E66696709094F4B210D0A00DC
:100A5000414C4C5F436F6E666967090952454144DA
:100A600059210D0A0D0A0D0A00000000FEE70000E2
:100A70001CB50121052000F0F3FD012000900020AD
:100A80008DF804008DF80700064C69462046FFF7F4
:100A9000F3FE4FF40051009169462046FFF7ECFE4B
:100AA0001CBD000000080240F0B58BB00446E50A0A
:100AB00004F01F07C4F34516FFF756FD4FF440300E
:100AC00001900220029004960397059520040012DD
:100AD000000E06900C4C60680790002008904FF4C0
:100AE000F07009904FF448700A9001A8FFF752FD8A
:100AF000FFF7ACFD0220FFF743FD0028FAD0208865
:100B000000F050FB0BB0F0BDB0000020F0B5074680
:100B100000240B4D4FF4487608E020222146384649
:100B200000F04EF8E8688088204484B2B44205D2D0
:100B3000E8688188081980B28842EED2F0BD0000D2
:100B4000B00000202DE9F04393B04FF4C86300FBE0
:100B500003F50C46114601A8FFF7E8FE0023174FE6
:100B60000DF1040C786803EB43011CF8012012021C
:100B700061444E78164336028A78324300213E881B
:100B8000B7F802805FEA022904D500EB440929F88E
:100B9000056003E000EB440929F80580641C52005D
:100BA000491CC9B21829EDD304F542745B1CDBB2B1
:100BB000182BD8D313B0BDE8F0830000B00000209C
:100BC00010B4203AD3B2054AD2681468D2885A4386
:100BD00004EB420210BC00F033B80000B00000206B
:100BE0002DE9F04180460D460024144E4FF448771D
:100BF00017E07E2A09D821464046FFF7E1FFF0685A
:100C00008088204484B26D1C0BE02988080200EB28
:100C1000112082B221464046FFF794FF1834A4B257
:100C2000AD1CBC4208D22A78002A05D0F068818821
:100C3000081980B28842DCD2BDE8F081B000002003
:100C40002DE9F04300254FF4C8635843DFF878904E
:100C5000D9F804C0D9F80C7030E0002326E00C2647
:100C6000B4FBF6F6F6004FF0800808FA06F832F802
:100C7000156048FA03F818EA060F01D10C2C08D9C0
:100C80004FF0010808FA03F816EA080F07D10C2CF8
:100C900005D90CEB4106B9F80240345204E00CEBE4
:100CA0004106B9F800403452491C5B1CBC889C4288
:100CB000D5D8BB88C3F5487319446D1CFB88AB427B
:100CC000CBD8BDE8F0830000B00000202DE9FC5F28
:100CD000012140F2FF1000F0C3FC4FF00408CDF8F2
:100CE000008002208DF805008DF8040000208DF8AA
:100CF00006008DF807006946AA48FFF7BDFD0E22E1
:100D00000221A848FFF7F6FD4FF00809CDF8009042
:100D10006946A448FFF7B0FD0E220321A148FFF762
:100D2000E9FD4FF4807ACDF800A069469D48FFF7B1
:100D3000A3FD0E2208219B48FFF7DCFD012400944F
:100D400069469948FFF798FD092200219648FFF768
:100D5000D1FD4FF4006BCDF800B069469348FFF722
:100D60008BFD0E220B219148FFF7C4FD200300905C
:100D700069468E48FFF780FD0E220C218B48FFF755
:100D8000B9FD0220009069468748FFF775FD0922EA
:100D900001218548FFF7AEFD40250095694684484E
:100DA000FFF76AFD0E2206218148FFF7A3FD2020F0
:100DB000009069467F48FFF75FFD0E2205217D48C0
:100DC000FFF798FD009569467A48FFF755FD0E221A
:100DD00006217848FFF78EFD600300906946714850
:100DE000FFF74AFD0E220D216E48FFF783FDA60294
:100DF000009669466E48FFF73FFD09220A216C48BC
:100E0000FFF778FDE003009069466648FFF734FD80
:100E10000E220F216348FFF76DFD00946946664876
:100E2000FFF72AFD0E2200216348FFF763FD8027AC
:100E3000009769466148FFF71FFD0E2207215F48B2
:100E4000FFF758FDCDF8008069465B48FFF714FDB9
:100E50000E2202215848FFF74DFD4FF01008CDF843
:100E6000008069465348FFF707FD0E2204215148D0
:100E7000FFF740FD2003009069464D48FFF7FCFC5A
:100E80000E220C214A48FFF735FD00954C4D69466E
:100E90002846FFF7F1FC0E2206212846FFF72AFD1F
:100EA000CDF800B069464248FFF7E6FC0E220B2160
:100EB0003F48FFF71FFDCDF8008069463E48FFF729
:100EC000DBFC0E2204213C48FFF714FDCDF8009016
:100ED00069463648FFF7D0FC0E2203213348FFF75E
:100EE00009FDCDF800A069462F48FFF7C5FC0E228A
:100EF00008212D48FFF7FEFC4FF40079CDF8009053
:100F000069462948FFF7B8FC0E2209212648FFF759
:100F1000F1FC009769462648FFF7AEFC0E22072138
:100F20002348FFF7E7FC009669462348FFF7A4FC37
:100F30000E220A212048FFF7DDFCCDF8009069461B
:100F40001D48FFF799FC0E2209211B48FFF7D2FC30
:100F500000961C4E69463046FFF78EFC0E220A2191
:100F60003046FFF7C7FCCDF8008002208DF8050061
:100F70008DF8044000208DF806008DF80740694682
:100F80002846FFF779FC009769462846FFF774FC6E
:100F900010212846FFF7C7FC80212846FFF7C3FC35
:100FA000BDE8FC9F001C024000040240000002401B
:100FB00000180240001002400020024000080240D9
:100FC000000C0240001402400148C0687047000055
:100FD000B000002010B590B00121880600F06AFB37
:100FE0000121C80500F03CFBFFF770FE00F0A2FEF7
:100FF000002401940294039404940D940E940F948D
:10100000042207214FF4C07000F0E0FB4FF4803061
:1010100000F0CCFB012000F0D3FB3D2000F0AAFB48
:101020000028FAD0059406942E20079017200890E7
:1010300040F24E30099040F2F7100A9040F26230D0
:101040000B9040F20D200C9001A800F001FA10B0B6
:1010500010BD000030B591B02F20019040F24E300D
:1010600002901820039040F2F71004900324059496
:10107000FF20069000200790089009900A904FF4F6
:1010800080600B9005200C9040F243600E90C01ED3
:101090000F904FF4F07010904FF050400D90144DA1
:1010A00001A9284600F036FA059412490D91610213
:1010B0000B9107210C910E4C01A98034204600F0C1
:1010C00029FA012000F072FA0121284600F016FAF0
:1010D0000121204600F012FA012000F067FA0648CC
:1010E00000F048F8012000F0A3F911B030BD000075
:1010F0008468014000B80BD04000002010B50020EB
:1011000000F03EF84FF400442046FFF7CDFC0120EC
:1011100000F036F8FF2000F04BF8214648F21F009F
:1011200000F022F82046FFF7BFFCFFF74DFFC08814
:10113000BDE8104001A1FFF753BD00004448543101
:10114000312074656D70657261747572652026203A
:1011500068756D6964697479206465746563742069
:1011600064656D6F00000000014A10805180704777
:10117000B00000200149C86070470000B0000020A6
:101180000649002804D0064848600120886070475E
:101190004FF050404860002088607047B000002049
:1011A00000B80BD00149088070470000B000002053
:1011B00010B509498968002908D00146074800F0A0
:1011C0009BF9BDE81040012000F0F0B9014603484A
:1011D000803800F091F9F4E7B00000200469014084
:1011E0004FF0FF363F4D340C4FF4FA673D49002372
:1011F00032461531E86802F0F9F901282AD0FFF7E4
:10120000E3FEC08804EA8000FFF780FCFFF7DCFE05
:10121000C18801EB810080B2FFF778FC4FF47C407D
:10122000FFF7C0FFFFF7D0FEC0882FA104EA4000FF
:10123000FFF7D6FCFFF7C8FEC08833A100EB4000E3
:1012400080B2FFF7CDFC38A001F07AF8384601F003
:101250005FFFCBE7FFF7B8FEC08804EA4000FFF766
:1012600055FCFFF7B1FEC18801EB410080B2FFF7EA
:101270004DFCFFF7A9FEC08804EA8000FFF746FC9A
:10128000FFF7A2FEC18801EB810080B2FFF73EFCB0
:10129000DFF850802FA108F11508344898F8013084
:1012A00098F8002001F05CF8FFF78EFEC0882F4907
:1012B00004EA8000FFF794FC98F8033098F80220C5
:1012C0002BA12A4801F04CF8FFF77EFEC18801EB04
:1012D000810080B22549FFF783FC2FA001F030F890
:1012E000B4E7000024000020444854313120696EE6
:1012F000697469616C697A6174696F6E206661698D
:101300006C65642100000000506C656173652063AA
:101310006865636B2074686520636F6E6E656374C7
:10132000696F6E21000000004C434420CFD4CABE38
:10133000CEC2CAAAB6C8B4ABB8D0C6F7B4EDCEF325
:10134000D0C5CFA2D0B4C8EBCDEAB3C90D0A0D0AFF
:101350000000000068756D69646974793A2025326F
:10136000642E25326420252552482000C400002028
:1013700074656D70657261747572653A20253264AA
:101380002E253264206465677265652043656C7341
:1013900069757320000000004C434420CFD4CABEBE
:1013A000CEC2CAAAB6C8D0B4C8EBCDEAB3C90D0A3A
:1013B0000D0A00002DE9FC410121802000F050F9C8
:1013C0004FF48064009401208DF8040000218DF812
:1013D00006108DF807008DF805100C4F6946384649
:1013E000FFF74AFA6600009669463846FFF744FA66
:1013F000A500009569463846FFF73EFA03481830C5
:10140000048006800580BDE8FC810000001C0240CD
:101410000649002804D0086840F0010008607047C1
:10142000086820F00100086070470000186801405B
:101430000649002804D0086840F4803008607047EE
:10144000086820F480300860704700001868014088
:1014500030B5264A136826490B401360038A1B04E3
:10146000146845692C431C431460121D13680B401B
:101470001360038B1B041468C5692C431C43146060
:10148000121D13680B401360038C1B041468456A1B
:101490002C431C431460121D13680B401360018D14
:1014A00009041368C46A23430B431360111D0A68BF
:1014B000104B1A400A60D0E900231A43D0E90234E5
:1014C00023431A430B681A430A60416B0A02018ED8
:1014D0000B04064924310C6804F07F440C600C684E
:1014E000806B134304431C430C6030BD086801400B
:1014F00000F800F08F88FE0F41617047002904D08A
:10150000016841F0010101607047016821F00101AB
:101510000160704770B58A881204436803F4704311
:1015200043600B68134343608A891204836803F4A1
:10153000704383608B6813438360026922F0070263
:1015400002610A690261CA6913020A8C120491F8E5
:10155000244024068569002585618E6922431E4347
:1015600016438661426922F0FF0242614A69426184
:10157000C26940F207739A43C261D1E90A231A4350
:10158000C261826A85620A6B82620A8F1204C36A30
:1015900003F0E023C3624B6B1343C362026B6FF330
:1015A0000A020263C96B016370BD00000149086053
:1015B0007047000024680140FEE7704708B54FF40B
:1015C000A06000F043F825208DF8000001208DF880
:1015D00001008DF802008DF80300684600F002F863
:1015E00008BD000030B50F23C27801250178002A1C
:1015F0001FD0154A126802F4E062C2F5E062C2F33D
:101600000722C2F10404D3404278A24084781C40EF
:101610001443220101F1E02181F80024007800F058
:101620001F018D404009800000F1E020C0F800510A
:1016300030BD01F01F0085404809800000F1E02026
:10164000C0F8805130BD00000CED00E002490843B5
:1016500002490860704700000000FA050CED00E048
:10166000054A002903D011680143116070471168D1
:10167000814311607047000030380240054A00295C
:1016800003D01168014311607047116881431160F4
:101690007047000010380240054A002903D0116845
:1016A0000143116070471168814311607047000069
:1016B00038380240054A002903D0116801431160FF
:1016C0007047116881431160704700004438024040
:1016D00070B5244B196801F00C01234C00291ED071
:1016E000224E04291DD008291DD00460196801F07C
:1016F000F00109091E4A545C0168E14041601C6820
:1017000004F4E054A40A145D21FA04F484601B6814
:1017100003F460435B0BD25CD140C16070BD0460D8
:10172000E4E70660E2E70F4A121F1168C1F3805533
:10173000116801F03F0135B1B6FBF1F11468C4F353
:101740008814614305E0B4FBF1F11468C4F3881414
:1017500061431268C2F30142521C5200B1FBF2F124
:101760000160C3E7083802400024F40040787D019E
:101770001400002002460020510901290BD0022943
:101780000DD00949096802F01F02012393400B4262
:1017900000D001207047044974390968F3E7024911
:1017A000091F0968EFE7000074380240034A116816
:1017B00021F4403101431160704700008C38024031
:1017C000014908677047000000004742800140EA75
:1017D0000160024940EA02700860704788380240A0
:1017E00008B5114C4FF0FF36A4F110054FF4FA671D
:1017F00014E0E0780090A378627821780BA000F0E4
:101800009FFD002332460849E86802F00DF802E027
:1018100015A000F095FD384601F07AFC024800F072
:101820005FF80128F4D1E4E7340000200D0AB6C1C6
:10183000C8A14448543131B3C9B9A6210D0A0D0AD3
:10184000CAAAB6C8CEAA25642E25642025255248EA
:1018500020A3ACCEC2B6C8CEAA2025642E2564A192
:10186000E6200D0A000000000D0A52656164204464
:1018700048543131204552524F52210D0A0D0A0071
:101880002DE9F04100250024144F0126042138469B
:10189000FFF740F80028F9D02820FEF7FBFD0421CF
:1018A0003846FFF737F801280BD0C4F1070006FAD5
:1018B00000F08543641CE4B2082CE7D32846BDE859
:1018C000F08104213846FFF725F80128F9D0C4F14A
:1018D000070006FA00F0C0B20543EBE70010024033
:1018E0002DE9F0410446FEF729FE304F0421384629
:1018F000FFF717F844F62060FEF7CCFD04213846C8
:10190000FFF711F81E20FEF7C5FDFEF705FE0421C6
:101910003846FEF7FFFF10B10020BDE8F08100253A
:101920004FF47A7608E06D1CADB2B54201D90020C3
:10193000F3E70A20FEF7AEFD04213846FEF7EAFF82
:101940000028F0D0002508E06D1CADB2B54201D9E9
:101950000020E2E70A20FEF79DFD04213846FEF74D
:10196000D9FF0128F0D0FFF78BFF2070FFF788FF29
:101970006070FFF785FFA070FFF782FFE070FFF750
:101980007FFF2071FEF7DAFD04213846FEF7CBFF1A
:1019900020786178E2780844A178114408442179DC
:1019A000884201D10120B8E70020B6E700100240CC
:1019B0002DE9FC5F0121FC20FFF752FE02208DF88B
:1019C00004008DF8050000208DF806008DF8070052
:1019D000012000906946D148FEF74EFF0C220021FD
:1019E000CE48FEF787FF022000906946CB48FEF7FD
:1019F00043FF0C220121C948FEF77CFF0420009020
:101A00006946C648FEF738FF0C220221C348FEF79C
:101A100071FF082000906946C048FEF72DFF0C2298
:101A20000321BE48FEF766FF102700976946BB48B2
:101A3000FEF722FF0C220421B848FEF75BFF4FF0AF
:101A40002008CDF800806946B448FEF715FF0C2247
:101A50000521B248FEF74EFF4FF48059CDF80090B3
:101A60006946AE48FEF708FF0C221146AB48FEF768
:101A700041FF4FF4005ACDF800A06946A748FEF791
:101A8000FBFE0C220D21A548FEF734FFBD02009598
:101A90006946A248FEF7F0FE0C220E219F48FEF791
:101AA00029FF6C00009469469C48FEF7E5FE0C2275
:101AB0000F219A48FEF71EFF0120009069469848C2
:101AC000FEF7DAFE0C2200219548FEF713FF0220F4
:101AD000009069469248FEF7CFFE0C220121904803
:101AE000FEF708FF009569468E48FEF7C5FE0C22FA
:101AF0000E218C48FEF7FEFE009469468948FEF7E9
:101B0000BBFE0C220F218748FEF7F4FE0120009057
:101B100069468448FEF7B0FE0C2200218148FEF79A
:101B2000E9FE0220009069467E48FEF7A5FE0C22E1
:101B300001217C48FEF7DEFE4FF0800BCDF800B0AF
:101B400069467948FEF798FE0C2207217648FEF791
:101B5000D1FEE611009669467348FEF78DFE0C2211
:101B600008217148FEF7C6FEA011009069466E4834
:101B7000FEF782FE0C2209216B48FEF7BBFE6011C6
:101B8000009069466848FEF777FE0C220A216648F5
:101B9000FEF7B0FE2011009069466348FEF76CFE28
:101BA0000C220B216048FEF7A5FECDF80090694697
:101BB0005D48FEF761FE0C2211465B48FEF79AFE77
:101BC000CDF800A069465848FEF756FE0C220D21BC
:101BD0005548FEF78FFE009569465348FEF74CFEC8
:101BE0000C220E215048FEF785FE009469464E48AF
:101BF000FEF742FE0C220F214B48FEF77BFE0096BB
:101C000069464848FEF738FE0C2208214548FEF791
:101C100071FEA011009069464248FEF72DFE0C228D
:101C200009214048FEF766FE6011009069463D4874
:101C3000FEF722FE0C220A213A48FEF75BFE402006
:101C400000903A4D69462846FEF716FE0C22062102
:101C50002846FEF74FFE009769463148FEF70CFE16
:101C60000C2204212E48FEF745FECDF8008069467F
:101C70002B48FEF701FE0C2205212948FEF73AFE0B
:101C8000012000902A4F69463846FEF7F5FD0C22E8
:101C900000213846FEF72EFE2011009069461F48AD
:101CA000FEF7EAFD0C220B211C48FEF723FE0094F0
:101CB00069461B48FEF7E0FD0C220F211848FEF78D
:101CC00019FE009669461648FEF7D6FD0C2208213B
:101CD0001348FEF70FFECDF800B069462846FEF720
:101CE000CBFD0C2207212846FEF704FE02200090BF
:101CF00069460D48FEF7C0FD0C2201210A48FEF797
:101D0000F9FD0120009069460748FEF7B5FD0C2259
:101D100000210548FEF7EEFDBDE8FC9F00140240DF
:101D200000180240000C024000100240001C02405B
:101D30000008024000B593B0FFF73AFE01210846C3
:101D4000FFF7AAFC022001900722029204210391CE
:101D500004920590069007900120089000200990B9
:101D60000A9110210B9140210C914FF4C0710D91FB
:101D70000E904FF400610F9110908800119001A80F
:101D8000129008A8FEF7ECFC00F002F813B000BDBA
:101D90002DE9FF41012500950826019602950024B2
:101DA000039420210120FEF7AFFC0028F9D16846FA
:101DB000FEF7C6FC0A2000F041F8022000900196D0
:101DC0000295039420210120FEF79EFC0028F9D102
:101DD0006846FEF7B5FC03200090019604270297A1
:101DE000039420210120FEF78FFC0028F9D16846DA
:101DF000FEF7A6FC20210120FEF786FC0028F9D181
:101E00006846FEF79DFC40F231200097019602954E
:101E1000039020210120FEF777FC0028F9D16846C5
:101E2000FEF78EFC40F26A50FEF71EFD20210120D5
:101E3000FEF76AFC0028F9D1BDE8FF8101B581B049
:101E4000054901984843009002E00098401E009028
:101E500000980028F9D10CBDA0860100002904D00B
:101E6000018841F0400101807047018821F0400164
:101E7000018070472DE9F04104460F4615460F4892
:101E800040260680032000F087F8C7F3074000F0E3
:101E900083F8C7F3072000F07FF8F8B200F07CF871
:101EA00004E0FF2000F078F804F8010B6D1EADB2DD
:101EB000F7D20248801E0680BDE8F0811A14024065
:101EC0002DE9F04387B001212020FFF7C9FB012154
:101ED0000805FFF7EFFBDFF8B89005220721484619
:101EE000FEF708FD052208214846FEF703FD0522FE
:101EF00009214846FEF7FEFC8020009002258DF85F
:101F000005508DF8045000248DF806408DF80740E8
:101F100069464846FEF7B0FCE8010090694648462D
:101F2000FEF7AAFC4FF40078CDF8008069464846D9
:101F3000FEF7A2FC4027009701268DF80460694651
:101F40004846FEF799FC124818300780ADF8084063
:101F50004FF48270ADF80A00ADF80C40ADF80E50A9
:101F6000ADF81060ADF81280ADF81440ADF8164031
:101F70000720ADF81800074C02A9204600F04FF8E2
:101F800001212046FFF76AFF07B0BDE8F08300009B
:101F900000140240005001402DE9F0410746184C62
:101FA0004FF480552560174E09E02068411E2160DE
:101FB00005D2002000F050F8C0B2BDE8F081022147
:101FC000304600F021F80028EFD03946304600F0C6
:101FD00024F8256008E021684A1E226004D201200E
:101FE00000F03AF8C0B2E8E70121304600F00CF802
:101FF0000028F0D0304600F00EF8C0B2DDE7000057
:10200000AC000020005001400246002012890A4224
:1020100000D001207047808970478181704730B5BA
:10202000028802F441530A884C88CD8822438C8868
:102030002C4322430C8922434C8922438C8922431E
:10204000CC8922431A430280828B22F4006282836D
:10205000098A018230BD000010B5014602A000F0DF
:102060006FF9002010BD00003C3C2D464C41534808
:102070002D4552524F522D3E3E2053504920B5C857
:10208000B4FDB3ACCAB1216572726F72436F6465FF
:10209000203D2025640A00001CB50021019100911B
:1020A0002E4A106840F4803010604FF4A04310684E
:1020B00000F4003000900198401C0190009810B985
:1020C00001989842F3D11068800302D50120009056
:1020D00000E00091009801283FD12048403001687D
:1020E00041F0805101601E49086840F4404008609A
:1020F0001A48083003680360036843F40043036030
:10210000036843F4A0530360041F164B2360136855
:1021100043F08073136013689B01FCD50A6842F496
:1021200080320A604A68D203FCD50A6842F4003261
:102130000A604A689203FCD50B4A40F205711160AF
:10214000016821F003010160016841F002010160B2
:102150000168C1F381010229FAD11CBD0038024097
:1021600000700040195A4007003C024010B501F0D1
:1021700097FC012803D0BDE8104001F0EBB910BD79
:102180000C480D490068B0FBF1F0401EB0F1807FB3
:1021900001D301200AE04FF0E0214861074AF02016
:1021A000107000208861072008610020002800D0FE
:1021B000FEE7704700000020A086010023ED00E04C
:1021C00010B51248016841F47001016010480168BF
:1021D00041F0010101600E4A0021083211600268DD
:1021E0000C4B1A400260031D0B4A1A60026822F46D
:1021F0008022026006480C300160FFF74DFF034962
:102200004FF000608039086010BD000088ED00E0EC
:1022100000380240FFFFF6FE10300024002904D0F1
:10222000818941F4005181817047818921F40051F5
:10223000818170470246002012880A4200D00120A6
:10224000704710B540F66A13C1F3421301F01F0442
:102250000121A140012B07D0022B07D014303AB145
:1022600002680A43026010BD0C30F8E71030F6E750
:1022700002688A43026010BD7FB504460D46208A7D
:1022800020F44051E88808432082A08941F20C6183
:102290008843A9882A8911436A8902431143A1818D
:1022A000A08A20F44071A8890843A0826846FFF7FD
:1022B0000FFA1E48844202D01D48844201D103987F
:1022C00000E00298A189090408D500EBC00101EBE8
:1022D000001029684900B0FBF1F007E000EBC001F5
:1022E00001EB001029688900B0FBF1F06422B0FB1B
:1022F000F2F109010B096FF018056B4300EB830045
:10230000A3891D044FF0320307D503EBC000B0FBD7
:10231000F2F000F00700084306E003EB0010B0FB0A
:10232000F2F000F00F00084320817FBD0010014053
:1023300000140140C1F3080181807047FEE70000EE
:102340000FB4054B10B503A9044A029800F02CF80D
:1023500010BC5DF814FB000015280008C000002028
:102360000FB4084B10B504A902AA039800F01CF89A
:10237000044602A9002000F048FA204610BC5DF88F
:1023800014FB00000B28000802E008C8121F08C157
:10239000002AFAD170477047002001E001C1121FE6
:1023A000002AFBD1704700002DE9FF4F8DB00F468A
:1023B0000546002606E025280BD0DDE90F129047E0
:1023C0006D1C761C28780028F5D111B03046BDE888
:1023D000F08F0024A246A1460122EC4900E004430C
:1023E00015F8013F203B02FA03F00842F7D12878A4
:1023F0002A2810D06FF02F022878A0F13001092987
:1024000014D80AEB8A0102EB410144F0020400EB0C
:10241000010A6D1CF0E701CF5FEA000A03D544F41E
:102420000054CAF1000A44F002046D1C28782E28DA
:1024300017D115F8010F44F004042A280ED06FF0CC
:102440002F022878A0F1300109290AD809EB890167
:1024500002EB410100EB01096D1CF2E757F8049B08
:102460006D1C28786C280FD006DC4C2817D0682803
:102470000DD06A2814D104E0742810D07A280FD126
:102480000DE044F400140AE044F4801401E044F444
:1024900040146978814202D104F580146D1C6D1CD2
:1024A0002A786E2A1FD00CDC632A31D004DC002A83
:1024B0008BD0582A11D1A3E0642A68D0692A0CD1A4
:1024C00065E0732A2ED004DC6F2A73D0702A04D101
:1024D0009BE0752A6FD0782A6ED01046DDE90F1286
:1024E0009047761C50E1C4F30250022806D003281E
:1024F00009D0042801CF09D0066045E101CFF117CA
:10250000C0E9006140E101CF06803DE106703BE19A
:1025100017F8040B8DF8000000208DF80100EB4641
:10252000012003E057F804BB4FF0FF3061074FF084
:10253000000102D40DE008F10101884649450FDA97
:102540008045F8DB1BF808100029F4D108E008F1F9
:10255000010188468142FADB1BF808100029F6D1F8
:10256000DDE90F23AAEB08008146214600F036F989
:10257000304400EB080604E0DDE90F121BF8010B04
:102580009047B8F10108F7D221464846F7E00A2102
:10259000C4F302534FF0000B0891022B04D001CF7B
:1025A000C117032B09D00AE0FF1D27F00707F7E842
:1025B000020108E032E01FE020E000B2C117042B66
:1025C00001D140B2C117031E71F1000307DA4FF0C9
:1025D000000CD0EB0C006CEB01012D2302E0230575
:1025E00004D52B238DF82430012303E0E30701D029
:1025F0002023F7E7984658E00A2110E010210EE06A
:1026000010204FF0000B08900CE010214FF0000B51
:1026100044F004044FF00809089103E008214FF04A
:10262000000B0891C4F30253022B04D001CF002108
:10263000032B06D006E0FF1D27F00707F7E802018D
:1026400003E080B2042B00D1C0B24FF00008230792
:102650002BD5702A07D0DDF820C08CF0100C5CEA76
:102660000B0C05D00EE040238DF82430012308E048
:1026700050EA010306D030238DF824308DF8252050
:1026800002239846DDF820C08CF0080C5CEA0B0CA5
:102690000BD150EA010301D1630706D530238DF831
:1026A00024304FF00108A9F10109582A04D038A2BA
:1026B0000B9208AA0A920BE03AA2F9E75B46089A45
:1026C000FDF7FEFD0B9B9B5C0A9A521E0A9213704B
:1026D00050EA0102F2D10A98ADEB000000F1200BA4
:1026E000600702D524F4803401E04FF00109D94598
:1026F00002DDA9EB0B0000E0002000EB0B014144E0
:102700000890AAEB010AE00306D4DDE90F23214675
:10271000504600F063F806444FF0000908E009A9AC
:1027200011F80900DDE90F12904709F10109761C43
:10273000C145F4DBE0030CD5DDE90F23214650460B
:1027400000F04CF8064404E0DDE90F123020904719
:10275000761C0899481E08900029F5DC08E00A98C4
:102760000A990078491C0A91DDE90F129047761CFE
:10277000BBF10001ABF1010BF1DC21465046DDE974
:102780000F2300F019F806446D1C1BE60928010010
:1027900030313233343536373839616263646566D7
:1027A0000000000030313233343536373839414299
:1027B00043444546000000002DE9F0410446002551
:1027C0001E461746880404D405E039462020B04749
:1027D0006D1C641EF9D52846BDE8F0812DE9F04155
:1027E000044600251E469046C80301D5302700E068
:1027F0002027880404D505E041463846B0476D1CC3
:10280000641EF9D52846BDE8F0810A68531C0B60A8
:102810001070704770B50446064DE1B22846FFF7C8
:1028200089FD80212846FFF705FD0028F9D02046C4
:1028300070BD0000001001401CB5FEF79DF8FEF7CA
:102840005DFC04210022084600F09AFE0D49C86094
:1028500010B90DA0FFF774FD0A480121CDE9001061
:102860004A0200230EA1124801F0EAF8012802D022
:102870004FF0FF301CBD00F04FFD0EA0FFF760FDD4
:1028800000201CBD2400002043616E277420637269
:10289000656174652044485431315F44617461005E
:1028A0004170705461736B43726561746500000020
:1028B0008903000845584954204552524F5221007F
:1028C0002DE9F04104460F46174EF5683068001DAB
:1028D00000F00CFB38B9306890F82C1001208840CB
:1028E000316981433161601C07D137B13168BDE87E
:1028F000F041091D0D4800F031BB2C4430684460A4
:10290000AC4206D23168B06B091DBDE8F04100F061
:102910000DBB3168706B091D00F008FBB06A844282
:1029200000D2B462BDE8F08170000020940702205C
:1029300070B5044600F01EFB1C4DA868401CA86042
:10294000286810B1686938B10CE02C60A8680128CB
:1029500008D100F047F905E02868E16AC06A8842BA
:1029600000D82C60686A401C6862E06A01212A690C
:102970008140114329610E4900EB800001EB80008A
:10298000211D00F0EBFA00F031FB686900280CD043
:102990002868E16AC06A884207D206494FF0805031
:1029A0000860BFF34F8FBFF36F8F70BD70000020C2
:1029B000C404022004ED00E070B5124E124D1CE07C
:1029C00000F0F4FC306820B1002401F043F9A4B910
:1029D00001E00124F9E700F0CDFAF068C468201D99
:1029E00000F084FAA868401EA8606868401E68600D
:1029F00000F0FCFA204600F04BF868680028DFD1B0
:102A000070BD0000800702207000002030B40B462B
:102A1000026C002A0CD0C1681144C1604468A14214
:102A200001D30168C160C16830BC1846FDF736BCEF
:102A300030BC70472DE9F041044617460026A56BCF
:102A4000226C002A1FD07FB1E068FDF727FCE16807
:102A5000206C091AE1602268914202D26168081A6A
:102A6000E060022F0DD00EE0A068FDF717FC216C8E
:102A7000A0680844A0606168884204D32068A06010
:102A800001E005B16D1E6D1CA5633046BDE8F08107
:102A900010B50446206B00F0DDFA2046BDE810407A
:102AA00000F0D8BA4FF400310F48420706D0C01DDD
:102AB00020F007000C49411AC1F500310B4A1060A3
:102AC000002353600144083921F00701103A1160D6
:102AD0004B600B600B1A436001604068906050606F
:102AE0004FF00040D0607047C40400205C0000201C
:102AF000074E4FF08054074DFFF75EFF3068012806
:102B0000FAD92C60BFF34F8FBFF36F8FF4E700004B
:102B1000C404022004ED00E003460098002905D01B
:102B20000260C3630164012100F024BE0060F8E785
:102B30002DE9F047DDE908580A9C81460E469A4681
:102B4000206B521E00EB820020F00707780705D0AB
:102B500040F22B3218A11FA0FFF7F2FB0020221831
:102B6000315C82F83410315C11B1401C1028F6D36E
:102B7000002684F84360202D00D31F25E562201D28
:102B800000F0D1F904F1180000F0CDF92461C5F18D
:102B90002000A0616462666484F848605246494639
:102BA000384600F091F92060B8F1000F01D0C8F864
:102BB0000040BDE8F08700002E2E5C2E2E5C467291
:102BC000656552544F535C7372635C7461736B73CD
:102BD0002E6300004572726F723A25732C25640DC6
:102BE0000A00000070B50024114D04EB840005EBD1
:102BF000800000F08DF9641C202CF6D30D4800F005
:102C000087F90C48143000F083F90A48283000F0A6
:102C10007FF908483C3000F07BF90648503000F05E
:102C200077F90548034941631431816370BD0000A1
:102C3000C4040220440702207000002030B513496C
:102C400000E011460A688242FBD34B685C1884425C
:102C500003D140681844486008460D68446823184A
:102C6000AB420DD1094B103B1B689A4206D052680B
:102C7000224442600A681268026002E0036000E0D9
:102C80000260814200D0086030BD00005C0000207E
:102C900010B5044600F06EF9A06B20B1002400F0DE
:102CA000A5F9204610BD0124F9E710B5044600F04F
:102CB00061F9A06BE16B884201D1012400E000249E
:102CC00000F094F9204610BD0748416B09680029BF
:102CD00005D0416BC968C9684968816270474FF087
:102CE000FF31816270470000700000200848406892
:102CF000401C05D040F20F1206A111A0FFF720FBE7
:102D0000502080F31188BFF34F8FBFF36F8FFEE722
:102D1000640000202E2E5C2E2E5C46726565525497
:102D20004F535C70726F745C525644535C41524D09
:102D30005F434D34465C706F72742E630000000078
:102D40004572726F723A25732C25640D0A000000DB
:102D50002DE9F041044600F00DF994F9455004F1D5
:102D6000240609E0606A48B1304600F021FF08B14E
:102D700000F074FA6D1E6DB2002DF3DC4FF0FF36DB
:102D800084F8456000F032F900F0F4F894F944500A
:102D900004F1100709E0206948B1384600F008FF47
:102DA00008B100F05BFA6D1E6DB2002DF3DC84F803
:102DB0004460BDE8F04100F019B900002DE9F04190
:102DC0000546002600F0F2FA304F386808B9FFF7E0
:102DD00069FEF86805424BD175B1083568070BD01C
:102DE00005F00700C0F108000544680704D0BF22C1
:102DF00027A131A0FFF7A4FA002D39D078688542C9
:102E000036D8224910310846046801E021460446BC
:102E10006068A84202D220680028F7D1386884424E
:102E200026D00E680836206808606068401B1028AD
:102E300011D904EB05085FEA487004D0EC2214A114
:102E40001DA0FFF77DFA6068401BC8F804006560AC
:102E50004046FFF7F3FE61687868401A7860BA6808
:102E6000904200D2B860F8680143616000202060A1
:102E700000F0F0FE700705D04FF4967204A10EA08A
:102E8000FFF75EFA3046BDE8F08100004C000020FC
:102E90002E2E5C2E2E5C4672656552544F535C702C
:102EA000726F745C4D656D4D616E675C68656170D5
:102EB0005F342E63000000004572726F723A257312
:102EC0002C25640D0A00000024384FF08073036243
:102ED00021F00101C1610449816142606FF002018A
:102EE00040F8201970470000ED2C00080169D0E976
:102EF00001329A60D0E901235A604A68824201D1C6
:102F000082684A60002202610868401E08607047BB
:102F100000F1080141604FF0FF328260C160016141
:102F200000210160704700210161704730B50C68D5
:102F3000621C02D000F1080202E0026904E01A46B5
:102F400053681D68A542FAD953684B6099608A603E
:102F5000516008610168491C016030BD42684A60E7
:102F600093688B6093685960916008610168491C9F
:102F700001607047502080F31188BFF34F8FBFF37B
:102F80006F8F09494868401C486001280AD10748EA
:102F9000006810F0FF0F05D040F2B91204A10FA095
:102FA000FFF7CEB9704700006400002004ED00E098
:102FB0002E2E5C2E2E5C4672656552544F535C700B
:102FC000726F745C525644535C41524D5F434D34B2
:102FD000465C706F72742E63000000004572726F61
:102FE000723A25732C25640D0A00000010B5094CB7
:102FF0006068002805D14FF4E07207A111A0FFF727
:103000009FF96068401E6060002801D180F311883C
:1030100010BD0000640000202E2E5C2E2E5C467237
:10302000656552544F535C70726F745C52564453D2
:103030005C41524D5F434D34465C706F72742E6339
:10304000000000004572726F723A25732C25640DE2
:103050000A00000070B500282AD008380446154D33
:103060006068E968084205D14FF4A07212A11CA063
:10307000FFF766F9206828B140F241120EA118A0AE
:10308000FFF75EF96068E968084211D02268002AFB
:103090000ED18843606000F089F96068696808446F
:1030A00068602046FFF7CAFDBDE8704000F0D2BD61
:1030B00070BD00004C0000202E2E5C2E2E5C46724F
:1030C000656552544F535C70726F745C4D656D4D05
:1030D000616E675C686561705F342E63000000009C
:1030E0004572726F723A25732C25640D0A00000038
:1030F00006484FF47A710068B0FBF1F14FF0E02020
:10310000491E416107210161704700000000002055
:1031100010B504460020002C10D00E48006B28B1DA
:1031200040F2CF420CA113A0FFF70AF900F03EF9DC
:1031300000212046FFF7C4FB00F08CFD002807D1DA
:1031400010494FF080500860BFF34F8FBFF36F8F6F
:1031500010BD0000700000202E2E5C2E2E5C4672EA
:10316000656552544F535C7372635C7461736B7327
:103170002E6300004572726F723A25732C25640D20
:103180000A00000004ED00E070B50446FFF7F2FE0F
:10319000234D04B92C68201DFFF7A8FE58B9E06A3A
:1031A000204A00EB800152F8211021B90121814011
:1031B000286988432861A06A18B104F11800FFF754
:1031C00095FE686A401C68622868844207D1211D08
:1031D0001548FFF7C3FE6868401C686007E0A868F0
:1031E000401EA8602046FFF753FCFFF76DFDFFF778
:1031F000FDFE6869002812D0286884420FD1286B30
:1032000028B140F2654209A10FA0FFF799F81249D1
:103210004FF080500860BFF34F8FBFF36F8F70BDCA
:1032200070000020C4040220800702202E2E5C2E95
:103230002E5C4672656552544F535C7372635C74C6
:1032400061736B732E6300004572726F723A25735F
:103250002C25640D0A00000004ED00E00149012066
:10326000C86170477000002070B504460D46002C00
:1032700005D140F6063208A10EA0FFF761F811480B
:10328000016820461831FFF751FE2846BDE870401E
:103290000121FFF715BB00002E2E5C2E2E5C46721E
:1032A000656552544F535C7372635C7461736B73E6
:1032B0002E6300004572726F723A25732C25640DDF
:1032C0000A0000007000002010B50446002C05D153
:1032D00040F6C13204A10BA0FFF732F80D48016A95
:1032E0002160C068606010BD2E2E5C2E2E5C467280
:1032F000656552544F535C7372635C7461736B7396
:103300002E6300004572726F723A25732C25640D8E
:103310000A000000700000201CB515480024CDE90B
:1033200000402346802213A1144800F089FB0128A5
:103330000AD0401C1BD102B040F28472BDE810409C
:103340000FA116A0FEF7FCBF502080F31188BFF339
:103350004F8FBFF36F8F06484FF0FF312C388162DB
:1033600001214161C460BDE81C4000F06BB81CBD88
:103370009C00002049444C4500000000F12A000850
:103380002E2E5C2E2E5C4672656552544F535C7334
:1033900072635C7461736B732E6300004572726FAD
:1033A000723A25732C25640D0A0000000248016B57
:1033B000491C0163704700007000002070B5144D77
:1033C000286B002802D00120E86170BD0020E86170
:1033D0002869B0FA80F0C0F11F000E4E00EB8004A7
:1033E00056F8240028B940F6F6220BA111A0FEF7EA
:1033F000A7FF06EB840041684968416000F10802BC
:10340000914201D1496841604068C068286070BD40
:1034100070000020C40402202E2E5C2E2E5C46720A
:10342000656552544F535C7372635C7461736B7364
:103430002E6300004572726F723A25732C25640D5D
:103440000A0000001CB52F4C20682F49884205D186
:1034500040F259122DA138A0FEF772FF20682A49C8
:10346000491E884205D14FF4AD7228A132A0FEF763
:1034700067FF354C20780190FF2020702078009065
:103480009DF800009DF8001000F0F000884205D083
:1034900040F273121DA128A0FEF752FF9DF8000014
:1034A0002A4A00F0500010700720906006E09068F3
:1034B000401E90609DF80000400000909DF80000C4
:1034C0000006F4D4107A000200F4E06090600198E5
:1034D00020700C482030016841F4700101600168DF
:1034E00041F070410160FFF703FE00205060FCF7DF
:1034F00087FE1748016841F040410160FCF770FE0B
:1035000000201CBD00ED00E071C20F412E2E5C2E8C
:103510002E5C4672656552544F535C70726F745CDA
:10352000525644535C41524D5F434D34465C706F7C
:1035300072742E63000000004572726F723A257338
:103540002C25640D0A00000000E400E06400002067
:1035500034EF00E010B5502080F31188BFF34F8F97
:10356000BFF36F8F00F0AAFA18B104494FF08050F2
:103570000860002080F3118810BD000004ED00E019
:10358000F8B505460E461746002D05D14FF4C47216
:103590000BA112A0FEF7D4FE86B105FB06F0483061
:1035A000FFF70CFC04463CB104F148023B463146AF
:1035B00028460094FFF7B0FA2046F8BD0020EEE759
:1035C0002E2E5C2E2E5C4672656552544F535C73F2
:1035D00072635C71756575652E6300004572726F6C
:1035E000723A25732C25640D0A0000002DE9FF4F67
:1035F00083B004468A469B460026002C05D140F243
:10360000DC4250A156A0FEF79BFEBAF1000F07D195
:10361000206C28B140F2DD424AA151A0FEF790FE95
:1036200000F03EFA38B9059828B14FF49C6245A1E4
:103630004BA0FEF785FE4FF000094FF08057DFF8F2
:103640003081FFF797FCA56B6DB3E66851462046C5
:10365000FFF7DCF9BBF1000F13D0E660606A50B1F0
:1036600004F1240000F0A4FA28B1C8F80070BFF3F8
:103670004F8FBFF36F8FFFF7B9FC012007B0BDE894
:10368000F08F6D1EA56320690028F4D004F11000AE
:1036900000F08EFA0028EED0C8F80070BFF34F8F0C
:1036A000BFF36F8FE7E7059808B126B107E0FFF792
:1036B0009DFC0020E2E701A8FFF706FE0126FFF7C8
:1036C00095FCFFF773FEFFF755FC94F94400401C8E
:1036D00001D184F8449094F94500401C01D184F84C
:1036E0004590FFF783FC05A901A800F05DF958B1EA
:1036F0002046FFF72DFB00F0ADFA2046FFF7C8FA91
:1037000000289ED00020B9E72046FFF7C1FA90B10B
:1037100004F124000599FFF7A7FD2046FFF718FBE9
:1037200000F098FA00288CD1C8F80070BFF34F8FD2
:10373000BFF36F8F85E72046FFF70AFB00F08AFA98
:103740007FE700002E2E5C2E2E5C4672656552547B
:103750004F535C7372635C71756575652E63000011
:103760004572726F723A25732C25640D0A000000B1
:1037700004ED00E070B504460D46002C05D140F282
:103780001B121DA123A0FEF7DBFDFFF7F3FBD4E91D
:103790000F20216802FB001161600021A1632168F4
:1037A000A160E06B2268216C401E00FB0121E160FA
:1037B0004FF0FF3084F8440084F8450004F1100015
:1037C0004DB1FFF7A5FB04F12400FFF7A1FBFFF7C4
:1037D0000DFC012070BD21690029F8D000F0E8F946
:1037E0000028F4D00F494FF080500860BFF34F8F8E
:1037F000BFF36F8FEBE700002E2E5C2E2E5C46721F
:10380000656552544F535C7372635C717565756581
:103810002E6300004572726F723A25732C25640D79
:103820000A00000004ED00E02DE9FF4782B00446E5
:103830008A461E460025002C05D140F2D9224EA111
:1038400054A0FEF77DFDBAF1000F07D1206C28B11E
:1038500040F2DA2248A14FA0FEF772FD022E08D1F5
:10386000E06B012805D040F2DB2243A149A0FEF71E
:1038700067FD00F015F938B9049828B140F2DE224E
:103880003DA144A0FEF75CFD4FF000094FF08057CA
:10389000DFF81081FFF76EFBA06BE16B884205D368
:1038A000022E03D0049808B325B327E032465146D0
:1038B0002046FFF7BFF8616A59B104F1240000F017
:1038C00077F968B1C8F80070BFF34F8FBFF36F8FFF
:1038D00006E028B1C8F80070BFF34F8FBFF36F8FB9
:1038E000FFF784FB012006B0BDE8F087FFF77EFB01
:1038F0000020F8E76846FFF7E7FC0125FFF776FBB5
:10390000FFF754FDFFF736FB94F94400401C01D14A
:1039100084F8449094F94500401C01D184F8459006
:10392000FFF764FB04A9684600F03EF830B120467A
:10393000FFF70EFA00F08EF90020D4E72046FFF7DB
:10394000B4F990B104F110000499FFF78DFC204602
:10395000FFF7FEF900F07EF900289BD1C8F800704F
:10396000BFF34F8FBFF36F8F94E72046FFF7F0F957
:1039700000F070F98EE700002E2E5C2E2E5C467251
:10398000656552544F535C7372635C717565756500
:103990002E6300004572726F723A25732C25640DF8
:1039A0000A00000004ED00E070B504460D46002C4E
:1039B00005D140F6CB3216A11CA0FEF7C1FC2DB9F3
:1039C00040F6CC3212A119A0FEF7BAFCFFF7D2FAEA
:1039D0001A4AD06829684B1C08D02368126A93429F
:1039E00006D06268824203D801240DE000240BE077
:1039F0006268801A884206D2081A28602046FFF7BB
:103A000063FC002400E00124FFF7F0FA204670BDBB
:103A10002E2E5C2E2E5C4672656552544F535C739D
:103A200072635C7461736B732E6300004572726F16
:103A3000723A25732C25640D0A00000070000020E6
:103A40002DE9FF5F8146DDE90E788A4616469B46E2
:103A5000B000FFF7B3F9054628000AD04C20FFF765
:103A6000ADF904460CB1256304E02846FFF7F2FAED
:103A700000E000248CB10020CDE90240CDE90078BF
:103A80005B46324651464846FFF752F82046FEF75D
:103A90004FFF012004B0BDE8F09F4FF0FF30F9E781
:103AA00005484169002903D0006B18B10020704718
:103AB0000120704702207047700000202DE9F0417E
:103AC00000262E4F386B002808D0B869401CB8611A
:103AD000F86900B101263046BDE8F081FD686D1C33
:103AE000FD608DB9786B006828B140F6D91224A129
:103AF0002AA0FEF725FC786BB96B7963B863386A46
:103B0000401C3862FFF7E0F8B86ADFF8A080854211
:103B10000DD3786B006838B1786BC068C468606892
:103B200085420ED2B86202E04FF0FF30B8623868CA
:103B3000C06A00EB800058F820000128C8D901268F
:103B4000C6E7201DFFF7D2F9A06A18B104F11800EA
:103B5000FFF7CCF9E06A01213A69814011433961EC
:103B600000EB800008EB8000211DFFF7F7F9E06A09
:103B70003968C96A8842CCD30126CAE770000020A0
:103B80002E2E5C2E2E5C4672656552544F535C732C
:103B900072635C7461736B732E6300004572726FA5
:103BA000723A25732C25640D0A000000C40402201B
:103BB0002DE9F041C068C468002C05D140F661329F
:103BC00016A11DA0FEF7BCFB04F118000746FFF785
:103BD0008DF91D4D2A6B012662B139461B48FFF74E
:103BE000BDF9E06A2968C96A884215D90120EE61E9
:103BF000BDE8F081201DFFF779F9E06A2A6906FA2D
:103C000000F111432961124900EB800001EB8000B3
:103C1000211DFFF7A3F9E4E70020E9E72E2E5C2E33
:103C20002E5C4672656552544F535C7372635C74CC
:103C300061736B732E6300004572726F723A257365
:103C40002C25640D0A000000700000206C07022083
:103C5000C40402202DE9F041002400272B4D286BDD
:103C6000002805D14FF4FD6229A130A0FEF768FBC2
:103C7000FFF780F9286B401E2863286BF0BBA8680B
:103C8000E0B3DFF8B88001261DE0D8F80C00C46866
:103C900004F11800FFF72AF9201DFFF727F9E06A61
:103CA0002A6906FA00F111432961254900EB8000D9
:103CB00001EB8000211DFFF751F9E06A2968C96A0C
:103CC000884200D3EE61D8F800000028DDD10CB1A5
:103CD000FEF7FAFFAC6944B1FFF7F0FE00B1EE6108
:103CE000641E002CF8D10020A861E86930B10127DA
:103CF000144938070860BFF34F8F00E001E0BFF3BD
:103D00006F8FFFF773F93846BDE8F081700000202F
:103D10002E2E5C2E2E5C4672656552544F535C739A
:103D200072635C7461736B732E6300004572726F13
:103D3000723A25732C25640D0A0000006C070220DE
:103D4000C404022004ED00E00000000000000000B8
:103D50000000000000000000000000000000000063
:103D60000000000000000000000000000000000053
:103D700000000000000000000000800180018001C0
:103D8000800180018001800180018001800180012B
:103D9000800180010000000080018001000000001F
:103DA000000000000000000000000000CC00CC007B
:103DB000CC00CC00CC00CC000000000000000000D3
:103DC00000000000000000000000000000000000F3
:103DD00000000000000000000000000000000000E3
:103DE00000000000600C600C600C30063006FE1F06
:103DF000FE1F300638071803FE1FFE1F18031803A6
:103E00008C018C018C01000000008000E003F80FA1
:103E10009C0E8C1C8C188C009800F801E007800E1A
:103E2000801C8C188C189C18B80CF00FE0038000D4
:103E300080000000000000000000000000000E18DC
:103E40001B0C110C11061106110311039B018E01AD
:103E5000C038C06C60446044304430441844186C2E
:103E60000C380000000000000000E001F0033807FB
:103E7000180618063003F001F000F8009C310E33EC
:103E8000061E061C061C063FFC73F0210000000005
:103E90000000000000000000000000000C000C000A
:103EA0000C000C000C000C000000000000000000E2
:103EB0000000000000000000000000000000000002
:103EC000000000000000000000000002000380016C
:103ED000C000C000600060003000300030003000E2
:103EE000300030003000300060006000C000C000D2
:103EF0008001000300020000000020006000C000FC
:103F00008001800100030003000600060006000691
:103F10000006000600060006000300038001800181
:103F2000C000600020000000000000000000000051
:103F300000000000C000C000D806F807E001300310
:103F40003807000000000000000000000000000032
:103F50000000000000000000000000000000000061
:103F60000000000080018001800180018001FC3F91
:103F7000FC3F800180018001800180010000000081
:103F80000000000000000000000000000000000031
:103F90000000000000000000000000000000000021
:103FA000000000000000000000008001800100010E
:103FB0000001800000000000000000000000000080
:103FC00000000000000000000000000000000000F1
:103FD000E007E00700000000000000000000000013
:103FE00000000000000000000000000000000000D1
:103FF00000000000000000000000000000000000C1
:1040000000000000000000000000C000C000000030
:1040100000000000000000000000000C000C000682
:1040200000060006000300030003800380018001F6
:104030008001C000C000C0006000600000000000FF
:1040400000000000000000000000E003F007380E50
:10405000180C0C180C180C180C180C180C180C1840
:104060000C180C18180C380EF007E00300000000C4
:104070000000000000000000000000018001C001FD
:10408000F001980188018001800180018001800198
:10409000800180018001800180018001000000001A
:1040A00000000000000000000000E003F80F180C02
:1040B0000C180C1800180018000C000600038001F2
:1040C000C000600030001800FC1FFC1F0000000052
:1040D00000000000000000000000E001F807180EDA
:1040E0000C0C0C0C000C0006C003C007000C0018E0
:1040F00000180C180C18180CF807E003000000005A
:1041000000000000000000000000000C000E000F86
:10411000000F800DC00C600C600C300C180C0C0CE7
:10412000FC3FFC3F000C000C000C000C00000000E9
:1041300000000000000000000000F80FF80F180059
:1041400018000C00EC03FC071C0E001C00180018E3
:1041500000180C181C0C180EF807E00300000000F3
:1041600000000000000000000000C007F00F381C35
:10417000181818000C00CC03EC0F3C0E1C1C0C187B
:104180000C180C18181C380EF007E0030000000093
:1041900000000000000000000000FC1FFC1F000CDD
:1041A00000060006000380038001C001C000E0009B
:1041B000600060007000300030003000000000003F
:1041C00000000000000000000000E003F007380ECF
:1041D000180C180C180C3806F007F007180C0C18FF
:1041E0000C180C180C18380CF80FE0030000000035
:1041F00000000000000000000000E003F007380E9F
:104200001C0C0C180C180C181C1C381EF81BE01980
:104210000018000C000C1C0EF807F0010000000054
:10422000000000000000000000000000000000008E
:10423000000000008001800100000000000000007C
:10424000000000000000000080018001000000006C
:10425000000000000000000000000000000000005E
:10426000000000008001800100000000000000004C
:10427000000000000000000080018001000100013A
:1042800080000000000000000000000000000000AE
:1042900000000000000000000010001C800FE00380
:1042A000F8001800F800E003800F001C0010000068
:1042B00000000000000000000000000000000000FE
:1042C0000000000000000000F81F000000000000D7
:1042D000F81F0000000000000000000000000000C7
:1042E00000000000000000000000000000000000CE
:1042F000000000000000000008003800F001C007C6
:10430000001F0018001FC007F0013800080000005F
:1043100000000000000000000000E003F80F180C8F
:104320000C180C180018000C000600038001C000D7
:10433000C000C00000000000C000C000000000007D
:10434000000000000000000000000000E007181856
:104350000420C229224A114409440944094409227B
:104360001113E20C024004201818E00700000000BE
:104370000000000000000000000080038003C00671
:10438000C006C006600C600C301830183018F83FBA
:10439000F83F1C700C600C6006C006C000000000F6
:1043A00000000000000000000000FC03FC0F0C0CEB
:1043B0000C180C180C180C0CFC07FC0F0C180C300B
:1043C0000C300C300C300C18FC1FFC0700000000F7
:1043D00000000000000000000000C007F01F383897
:1043E0001C300C7006600600060006000600060081
:1043F000060006600C701C30F01FE0070000000093
:1044000000000000000000000000FE03FE0F060E8A
:10441000061806180630063006300630063006301C
:10442000063006180618060EFE0FFE0300000000F8
:1044300000000000000000000000FC3FFC3F0C00FA
:104440000C000C000C000C00FC1FFC1F0C000C00EE
:104450000C000C000C000C00FC3FFC3F00000000B6
:1044600000000000000000000000F83FF83F1800C6
:104470001800180018001800F81FF81F180018007E
:10448000180018001800180018001800000000009C
:1044900000000000000000000000E00FF83F3C7842
:1044A0000E6006E007C00300030003FE03FE03C026
:1044B00007C006C00EC03CF0F83FE00F000000004F
:1044C000000000000000000000000C300C300C3038
:1044D0000C300C300C300C30FC3FFC3F0C300C30FE
:1044E0000C300C300C300C300C300C300000000064
:1044F0000000000000000000000080018001800139
:1045000080018001800180018001800180018001A3
:104510008001800180018001800180010000000095
:104520000000000000000000000000060006000679
:10453000000600060006000600060006000600064B
:104540000006180618063807F003E0010000000016
:104550000000000000000000000006300618060CF5
:10456000060606038601C60066007600DE008E01A0
:1045700006030606060C061806300660000000005A
:1045800000000000000000000000180018001800E3
:10459000180018001800180018001800180018005B
:1045A0001800180018001800F81FF81F000000007D
:1045B000000000000000000000000EE01EF01EF0F1
:1045C0001EF036D836D836D836D866CC66CC66CC0F
:1045D000C6C6C6C6C6C6C6C686C386C30000000019
:1045E000000000000000000000000C301C303C30D7
:1045F0003C306C306C30CC30CC308C310C330C33E4
:104600000C360C360C3C0C3C0C380C300000000016
:1046100000000000000000000000E007F81F1C3848
:104620000E70066003C003C003C003C003C003C014
:1046300003C006600E701C38F81FE0070000000081
:1046400000000000000000000000FC0FFC1F0C3800
:104650000C300C300C300C300C18FC1FFC070C001C
:104660000C000C000C000C000C000C000000000002
:1046700000000000000000000000E007F81F1C38E8
:104680000E70066003E003C003C003C003C003C094
:1046900007E006630E3F1C3CF83FE0F700C0000057
:1046A00000000000000000000000FE0FFE1F0638A2
:1046B0000630063006300638FE1FFE0706030606E3
:1046C000060C0618061806300630066000000000CA
:1046D00000000000000000000000E003F80F1C0CC8
:1046E0000C180C180C001C00F803E00F001E00381A
:1046F000063006300E301C1CF80FE00700000000EA
:1047000000000000000000000000FE7FFE7F80012E
:104710008001800180018001800180018001800191
:104720008001800180018001800180010000000083
:10473000000000000000000000000C300C300C30C5
:104740000C300C300C300C300C300C300C300C3089
:104750000C300C300C301818F81FE0070000000077
:10476000000000000000000000000360063006307A
:1047700006300C180C180C18180C180C380E3006D3
:104780003006700760036003C001C0010000000034
:10479000000000000000000000000360C361C3616E
:1047A000C3616633663366336633663366336C1BC8
:1047B0006C1B6C1B2C1A3C1E380E380E00000000BF
:1047C000000000000000000000000FE00C70183036
:1047D0003018700C600EC00780038003C003E00631
:1047E000700C301C18180C300E6007E00000000040
:1047F0000000000000000000000003C006600C3054
:104800001C383818300C6006E007C00380018001B6
:104810008001800180018001800180010000000092
:1048200000000000000000000000FC7FFC7F006032
:1048300000300018000C000600038001C00060007A
:10484000300018000C000600FE7FFE7F0000000014
:1048500000000000000000000000E003E003600032
:104860006000600060006000600060006000600048
:104870006000600060006000600060006000600038
:104880006000E003E0030000000030003000600042
:1048900060006000C000C000C000C0018001800155
:1048A0008001000300030003000600060000000072
:1048B00000000000000000000000E003E00300032F
:1048C00000030003000300030003000300030003D0
:1048D00000030003000300030003000300030003C0
:1048E0000003E003E003000000000000C001C0017D
:1048F00060036003600330063006180C180C0000DB
:1049000000000000000000000000000000000000A7
:104910000000000000000000000000000000000097
:104920000000000000000000000000000000000087
:1049300000000000000000000000FFFFFFFF00007B
:10494000000000000000000000000C000C000C0043
:104950000C000C000C000000000000000000000033
:104960000000000000000000000000000000000047
:104970000000000000000000000000000000000037
:1049800000000000F003F8071C0C0C0C000FF00FE7
:10499000F80C0C0C0C0C1C0FF80FF01800000000A9
:1049A00000000000000000000000180018001800BF
:1049B00018001800D803F80F380C18181818181811
:1049C000181818181818380CF80FD8030000000031
:1049D00000000000000000000000000000000000D7
:1049E00000000000C003F007300E180C180018007B
:1049F00018001800180C300EF007C003000000006B
:104A0000000000000000000000000018001800185E
:104A100000180018C01BF01F301C181818181818A0
:104A2000181818181818301CF01FC01B00000000C0
:104A30000000000000000000000000000000000076
:104A400000000000C003F00F300C1818F81FF81F0A
:104A5000180018003818301CF00FC00700000000C4
:104A600000000000000000000000800FC00FC00028
:104A7000C000C000F007F007C000C000C000C000C8
:104A8000C000C000C000C000C000C00000000000A6
:104A90000000000000000000000000000000000016
:104AA00000000000E00DF80F180E0C0C0C0C0C0CA4
:104AB0000C0C0C0C0C0C180EF80FE00D000C0C0C70
:104AC0001C06F807F001000000001800180018008C
:104AD00018001800D807F80F381C181818181818DC
:104AE00018181818181818181818181800000000A6
:104AF00000000000000000000000C000C000000036
:104B000000000000C000C000C000C000C000C00025
:104B1000C000C000C000C000C000C0000000000015
:104B200000000000000000000000C000C000000005
:104B300000000000C000C000C000C000C000C000F5
:104B4000C000C000C000C000C000C000C000C00065
:104B5000C000F8007800000000000C000C000C0001
:104B60000C000C000C0C0C060C038C01CC006C002F
:104B7000FC009C018C030C030C060C0C00000000D4
:104B800000000000000000000000C000C000C000E5
:104B9000C000C000C000C000C000C000C000C00015
:104BA000C000C000C000C000C000C0000000000085
:104BB00000000000000000000000000000000000F5
:104BC000000000007C3CFF7EC7E383C183C183C13A
:104BD00083C183C183C183C183C183C1000000003D
:104BE00000000000000000000000000000000000C5
:104BF000000000009807F80F381C1818181818182B
:104C00001818181818181818181818180000000084
:104C10000000000000000000000000000000000094
:104C200000000000C003F00F300C181818181818F6
:104C3000181818181818300CF00FC00300000000E6
:104C40000000000000000000000000000000000064
:104C500000000000D803F80F380C1818181818189E
:104C6000181818181818380CF80FD803180018005E
:104C700018001800180000000000000000000000EC
:104C800000000000C01BF01F301C1818181818185E
:104C9000181818181818301CF01FC01B001800181E
:104CA00000180018001800000000000000000000BC
:104CB00000000000B007F00370003000300030004A
:104CC00030003000300030003000300000000000C4
:104CD00000000000000000000000000000000000D4
:104CE00000000000E003F003380E180C3800F00359
:104CF000C007000C180C380EF007E003000000009D
:104D00000000000000000000000000008000C00063
:104D1000C000C000F007F007C000C000C000C00025
:104D2000C000C000C000C000C00780070000000035
:104D30000000000000000000000000000000000073
:104D40000000000018181818181818181818181843
:104D5000181818181818381CF01FE0190000000067
:104D60000000000000000000000000000000000043
:104D7000000000000C18180C180C180C3006300637
:104D80003006600360036003C001C0010000000042
:104D90000000000000000000000000000000000013
:104DA00000000000C141C141C36163636363636389
:104DB0003636363636361C1C1C1C1C1C0000000007
:104DC00000000000000000000000000000000000E3
:104DD000000000001C38381C300C600660036003C3
:104DE000600360036006300C381C1C3800000000B3
:104DF00000000000000000000000000000000000B3
:104E0000000000001830301830187018600C600C6A
:104E1000E00CC006C006800380038003800180018F
:104E2000C001F00070000000000000000000000061
:104E300000000000FC1FFC1F000C000600038001A6
:104E4000C000600030001800FC1FFC1F00000000C4
:104E50000000000000000000000000038001C0000E
:104E6000C000C000C000C000C00060006000300092
:104E700060004000C000C000C000C000C000C00012
:104E8000800100030000000000008001800180011B
:104E9000800180018001800180018001800180010A
:104EA00080018001800180018001800180018001FA
:104EB000800180018001000000006000C000C0018E
:104EC0008001800180018001800100030003000651
:104ED00000030001800180018001800180018001C8
:104EE000C0006000000000000000000000000000A2
:104EF0000000000000000000F010F81F080F000084
:104F000000000000000000000000000000000000A1
:104F10000000000000000000384F000800000020E2
:104F2000C400000088230008FC4F0008C4000020D3
:104F3000E40A0200982300080095BA0A0000000065
:104F40000000000001020304060708090000000039
:104F5000010203040102030406070809000000001F
:104F60000000000000000000000000000000000041
:104F70000000000000000000483D0008100018007C
:104F80000000000000000000000000000000000021
:104F90000000000000000000000000000000000011
:104FA000AAAAAAAA00000000000000000000000059
:104FB00000000000000000000000000000000000F1
:104FC00000000000000000000000000000000000E1
:104FD00000000000000000000000000000000000D1
:104FE0000000000000A000000000FFFF000000D053
:0C4FF000000000000000000000000000B5
:04000005080001AD41
:00000001FF
