:020000040800F2
:100000005811022079020008D320000825110008A9
:10001000D12000080D0A0008FD2F00080000000094
:10002000000000000000000000000000C101000806
:10003000B90B00080000000015020008412D00085F
:10004000930200089302000893020008930200083C
:10005000930200089302000893020008930200082C
:10006000930200089302000893020008930200081C
:10007000930200089302000893020008930200080C
:1000800093020008930200089302000893020008FC
:1000900093020008930200089302000893020008EC
:1000A00093020008930200089302000893020008DC
:1000B00093020008930200089302000893020008CC
:1000C00093020008930200089302000893020008BC
:1000D00093020008F12D000893020008212E000869
:1000E000930200089302000893020008930200089C
:1000F000930200089302000893020008930200088C
:10010000930200089302000893020008930200087B
:10011000930200089302000893020008930200086B
:10012000930200089302000893020008930200085B
:10013000930200089302000893020008930200084B
:10014000930200089302000893020008930200083B
:10015000930200089302000893020008930200082B
:10016000930200089302000893020008930200081B
:10017000930200089302000893020008930200080B
:1001800093020008930200089302000893020008FB
:1001900093020008930200089302000893020008EB
:1001A000930200089302000893020008DFF80CD0C5
:1001B00000F03EFB00480047593D0008581102205E
:1001C0002A4B19680868B0E8F04F80F30988BFF33C
:1001D0006F8F4FF0000080F311887047000000001F
:1001E00006480068006880F3088862B661B6BFF30D
:1001F0004F8FBFF36F8F00DF00BF00BF08ED00E03F
:10020000DFF80C00016841F470010160704700BF25
:1002100088ED00E0EFF30980BFF36F8F134B1A688E
:100220001EF0100F08BF20ED108A20E9F04F10607B
:1002300008B44FF0500080F31188BFF34F8FBFF325
:100240006F8F04F08BFB4FF0000080F3118808BC27
:1002500019680868B0E8F04F1EF0100F08BFB0EC46
:10026000108A80F30988BFF36F8F704788000020E1
:10027000EFF30580704700000648804706480047B6
:10028000FEE7FEE7FEE7FEE7FEE7FEE7FEE7FEE746
:10029000FEE7FEE7952D0008AD01000840EA0103E6
:1002A0009B0703D009E008C9121F08C0042AFAD22C
:1002B00003E011F8013B00F8013B521EF9D27047F0
:1002C000D2B201E000F8012B491EFBD27047002298
:1002D000F6E710B513460A4604461946FFF7F0FF45
:1002E000204610BD421E12F8013F002BFBD111F831
:1002F000013B02F8013B002BF9D17047421C10F87A
:10030000011B0029FBD1801A70472DE9F04D81EACD
:10031000030404F0004B21F0004514464FF0000A9E
:1003200023F0004150EA050220D054EA01021DD01A
:10033000C5F30A570246C5F31303C1F31300C1F313
:100340000A5640F4801543F48013A7EB0608101BEF
:10035000D64608F2FD3873EB050002D308F1010818
:1003600001E092185B41B8F1000F03DA002001466A
:10037000BDE8F08D00204FF48011064684460EE063
:10038000171B73EB050705D3121B63EB050306432D
:100390004CEA010C49084FEA300092185B4150EAE0
:1003A0000107EDD152EA030012D082EA040083EA89
:1003B0000501084305D0101BAB4106D201220023E2
:1003C00006E000224FF0004302E06FF001025310FC
:1003D0001AEB06004CEB085110EB0A0041EB0B0145
:1003E000BDE8F04D00F07DB80EB540F2334102910A
:1003F0000021CDE900110A460B4600F081F803B058
:1004000000BDC1F30A5210B5C1F3130140F2FF332E
:1004100041F480119A4201DA002010BD40F23343CA
:100420009A42A2F2334203DC524200F04AF810BD75
:10043000904010BD30B50B4601460020202201241B
:1004400009E021FA02F59D4205D303FA02F5491BA2
:1004500004FA02F52844151EA2F10102F1DC30BDB8
:100460002DE9F05F0546002092469B4688460646E9
:10047000814640241BE0284641464746224600F07C
:1004800020F853465A46C01A914110D311461846D7
:10049000224600F0DFF92D1A67EB01084F4622468D
:1004A0000120002100F0D6F917EB00094E41201E73
:1004B000A4F10104DFDC484631462A464346BDE844
:1004C000F09F202A04DB203A21FA02F00021704735
:1004D00021FA02F3D040C2F12002914008431946AC
:1004E000704710B5141E73F1000408DA401C41F186
:1004F000000192185B411A4301D120F0010010BDA8
:100500002DE9F04D92469B4611B1B1FA81F202E01D
:10051000B0FA80F22032904600F09CF904460F4673
:1005200040EA0A0041EA0B0153465A46084313D0F9
:10053000114653EA010019D0C8F140025046FFF7B6
:10054000C0FF05460E4650465946424600F082F925
:10055000084305D0012004E020463946BDE8F08D6F
:100560000020054346EAE0762C4337430A986305AA
:10057000E40AA0EB08000022FD0A44EA47540A30CE
:1005800002D500200146E9E7010510196941DDE9BE
:10059000084500196941BDE8F04DA2E72DE9FE4F7D
:1005A000804681EA0300C00F0C46009021F0004114
:1005B00023F00045B8EB0200A94105D24046214690
:1005C00090461C460B46024623F00040104347D09D
:1005D000270DC7F30A00C3F30A510290401A019095
:1005E00040286BDAC3F3130040F4801B0098924656
:1005F00020B10023D2EB030A63EB0B0B01985946A1
:10060000C0F14002504600F025F906460D4650461E
:100610005946019A00F02DF910EB080061410024C1
:1006200087EA115284EAE7731A4340D0009A62B312
:10063000019A012A4FEA075215DC001B61EB020107
:100640004FF0004202EA0752CDE90042001C41F59A
:10065000801132462B46FFF753FF03B0BDE8F08F01
:1006600040462146F9E7001B61EB0201001C41F501
:10067000801300185B412018A2F5001747EB030117
:1006800040EAD570B6196D4111E06D084FEA3606A3
:1006900045EAC0754FEA0752001B61EB0201001CDE
:1006A00041F5801149084FEA3000001951413246A6
:1006B0002B4603B0BDE8F04FFFF713BF00980122AF
:1006C00040000023D0EB020263EBE0730098214668
:1006D0004FEAE074B8EB000061EB0401E9E783F056
:1006E00000435BE781F0004158E72DE9FE4F81EAC6
:1006F000030404F0004421F0004100944FF0000B8B
:1007000023F0004350EA01045ED052EA03045BD0B8
:10071000C3F30A54C1F30A552C44A4F2F3340194F0
:10072000A0FB0254C1F3130141F48011C3F313037E
:1007300043F4801301FB024400FB034E840A970A32
:1007400044EA815447EA8357A4FB076802958D0A5F
:1007500005FB07854FEA932C04FB0C542705029DEB
:100760004FEA065847EA1637B5EB08056EEB070C5B
:10077000870E920E47EA811742EA8312A7FB020115
:10078000B6EB0B0164EB00042B0D43EA0C335E184F
:1007900044EB1C50DA465146E7FB0201C5F3130453
:1007A0004FEA0B3343EA14534FEA0432019C43EA05
:1007B0000603A4F10C040294009CCDE900B4FFF7F9
:1007C0009FFE03B0BDE8F08F00200146F9E7C1F3BA
:1007D0000A52C1F3130140F2FF3341F480119A42EF
:1007E00002DA00200146704740F233439A42A2F2F7
:1007F000334202DC5242FFF764BE00F02BB8000027
:1008000030B5041E71F1000404DB4FF00044404297
:1008100064EB0101141E73F1000405DB1C464FF06C
:100820000043524263EB0403994208BF904230BD3B
:10083000064C074D06E0E06840F0010394E807002D
:1008400098471034AC42F6D3FFF7B4FCB864000804
:10085000D8640008202A04DB203A00FA02F10020C4
:1008600070479140C2F1200320FA03F319439040EE
:100870007047202A06DBCB17203A41FA02F043EA00
:10088000E07306E041FA02F3D040C2F12002914049
:1008900008431946704700001CB503F03BFE25488D
:1008A0000621CDE900104FF400740023224622A156
:1008B000264804F095FB012802D125A002F086FD10
:1008C0001C4805210C38CDE90010002322462AA13E
:1008D0002D4804F085FB012802D12CA002F076FD02
:1008E000144804210838CDE90010002322462FA126
:1008F000334804F075FB012802D132A002F066FDF6
:100900000C480321001FCDE900100023224635A129
:10091000374804F065FB012802D136A002F056FDED
:1009200004481838806803F0FFFEBDE81C4003F05F
:100930002DBE00003C000020574946495F53656EBC
:1009400064446174655F5461736B0000013000089A
:10095000B4B4BDA8574946495F53656E6444617499
:10096000655F5461736B5F48616E646C65B3C9B950
:10097000A6210D0A00000000524541445F4448543E
:1009800031315F5461736B00B5230008B4B4BDA866
:10099000524541445F44485431315F5461736BC8E0
:1009A000CECEF1B3C9B9A6210D0A0000524541448B
:1009B0005F4248313735305F5461736B000000008F
:1009C00039230008B4B4BDA8524541445F424831C0
:1009D0003735305F5461736BC8CECEF1B3C9B9A659
:1009E000210D0A004C43445F5461736B000000000A
:1009F000D11B0008B4B4BDA84C43445F5461736B71
:100A0000C8CECEF1B3C9B9A6210D0A00FEE7000099
:100A10000648016841F0807101600548002141608D
:100A2000016841F00101016070470000FCED00E049
:100A3000001000E00148406870470000001000E02E
:100A40001CB50121102001F0A9FB04200090012019
:100A50008DF8040000218DF806108DF807000220A3
:100A60008DF805006946024800F030FA1CBD000010
:100A7000001002401CB50420009000208DF80400F6
:100A80008DF8070002208DF805006946014800F046
:100A90001DFA1CBD001002401CB50420009001206E
:100AA0008DF8040000218DF806108DF80700022053
:100AB0008DF805006946024800F008FA1CBD0000E8
:100AC0000010024010B50121CC05204601F074FB56
:100AD0002046BDE81040002101F06EBB0146002019
:100AE000024A52680A4200D00120704700B002401A
:100AF00030B500242A4B19682A4A11401960196838
:100B0000026811431960596B21F007015963596B51
:100B10004268114359634168002928D001292DD02A
:100B2000022930D0032933D0C1680A0101690902C2
:100B3000446924038568214315430D43996B0D4394
:100B40009D638169D963196C6FF30D011964196C88
:100B5000C26911431964818C09045A6C02F0404245
:100B60005A645A6C006A02430A435A6430BDC16831
:100B70000A02018A0904047D2406DBE7C1680A022F
:100B8000018A0904D6E7C1684A010169C902D1E7AF
:100B9000C1684A01016989024469E403CAE70000A7
:100BA00000B00240FCE0FCFF0248016841F0010196
:100BB0000160704700B002407047000070B586B019
:100BC0000121022001F0EAFA0121880401F010FB62
:100BD00000248DF8164001208DF8170002258DF8AD
:100BE00015508DF81450800204901C4E04A9304614
:100BF00000F06CF98DF81450A902049104A9304654
:100C000000F064F907220B21304600F09DF907221D
:100C10000A21304600F098F94FF4E1300090ADF829
:100C20000440ADF80640ADF80840ADF80C400C208B
:100C3000ADF80A000A4C6946204602F079F901F045
:100C40005CFA012240F22551204602F056F90121BA
:100C5000204602F01FF906B070BD000000040240FB
:100C60000048004070B586B00121084601F096FAB0
:100C70000121102001F0CAFA00248DF8164001204D
:100C80008DF8170002258DF815508DF8145040028C
:100C900004901C4E04A9304600F018F98DF8145049
:100CA0006902049104A9304600F010F907220A21D4
:100CB000304600F049F907220921304600F044F996
:100CC0004FF4E1300090ADF80440ADF80640ADF8C7
:100CD0000840ADF80C400C20ADF80A000A4C6946FB
:100CE000204602F025F901F0F5F9012240F22551E4
:100CF000204602F002F90121204602F0CBF806B0AE
:100D000070BD00000000024000100140F1B5002459
:100D1000FFF77EFE0F4810490068B0FBF1F600981F
:100D20004643FFF787FE054603F010FEFFF782FEFD
:100D3000A842FBD003D9A0EB05010C4403E06FEA05
:100D4000050101440C440546B442EFD3BDE8F84028
:100D500004F050BA0000002040420F0000224FF083
:100D6000204310280AD0B0F5807F09D0B0F5805F0D
:100D700009D0D3F85801814309D107E0586EFAE74A
:100D8000D3F88400F7E7D3F8A400F4E70122104673
:100D900070470000D0E9001211438268C068521EFB
:100DA000520142EA402001430148016070470000BF
:100DB000500100A070B50468A100A1F1C041D1F8B4
:100DC0004011CE0BF603D0E901121143D0E9032301
:100DD0001A4311434269C36911438269056A114389
:100DE0001943426A2943114331434FF02046002CF6
:100DF0003CD0D6F840416FF30E042B4322431343FB
:100E0000C6F8403102689200A2F1C042C2F8401117
:100E1000016871B38900A1F1C041D1F8481101F016
:100E20007043816A0A684C68521E641E42EA0414C8
:100E30008A68521E44EA02240A8A521E44EA024286
:100E40001A43D6F8483103F07043CC68898A641E8F
:100E50002403491E44EA01511943C6F848110068A9
:100E60008000A0F1C040C0F8482170BDC6F8401114
:100E7000CEE7FFE7D6F8481101F07041806A0268BA
:100E80004368521E5B1E42EA03138268521E43EA05
:100E90000223C268521E43EA0233028A521E43EA08
:100EA0000243828A007E521E43EA0252401E42EAF8
:100EB00000600843C6F8480170BD000002490A6896
:100EC00042EA400008607047540100A02DE9F0415B
:100ED000002201274FF0030C07FA02F50B682B40A4
:100EE000AB422CD1066853000CFA03F4A64306600B
:100EF0000E79D0F800809E4046EA080606600E791A
:100F0000012E01D0022E12D18668A64386604E794A
:100F1000D0F808809E4046EA080686604668AE43E0
:100F2000466045688E799640B6B235434560C568DF
:100F3000A543C560CC799C40C3681C43C460521C67
:100F4000102AC9D3BDE8F08110B54B07DB0E9A40DB
:100F5000C90800EB8100016A0F249C40A143016293
:100F6000016A1143016210BD0246002012690A4263
:100F700000D0012070474183704701837047000013
:100F800070B505460C46104E3078002803D101F0AC
:100F900081FD01203070220AE1B2A13AC2EB0210B9
:100FA00000EB421001EB4001A13901EBC1008101CE
:100FB000C81701EB5070C110482201F5AA0128465C
:100FC00001F042FD002070BD6000002010B54FF41C
:100FD000407001F0D9F8FFF745FE1AA002F0F6F9CB
:100FE000FFF7ECFD1CA002F0F1F900F06FFF20A06C
:100FF00002F0ECF900F034FA22A002F0E7F901F077
:10100000A9FE25A002F0E2F900F0DCFC00F01AFDD8
:10101000012000F089FF26A002F0D8F9FFF710FDAB
:1010200028A002F0D3F900F0A3F82BA002F0CEF92B
:1010300002F0DEF82EA002F0C9F9BDE8104032A09F
:1010400002F0C4B955534152545F436F6E666967ED
:1010500009094F4B210D0A005553415254335F4348
:101060006F6E66696709094F4B210D0A0000000089
:101070004C45445F436F6E66696709094F4B210D0C
:101080000A0000004B45595F436F6E6669670909A6
:101090004F4B210D0A0000005359535449434B5FF5
:1010A000436F6E66696709094F4B210D0A00000006
:1010B0004C43445F436F6E66696709094F4B210DCE
:1010C0000A00000044485431315F436F6E6669671F
:1010D00009094F4B210D0A004248313735305F4333
:1010E0006F6E66696709094F4B210D0A0000000009
:1010F000455350383236365F436F6E66696709096B
:101100004F4B210D0A000000414C4C5F436F6E664F
:10111000696709095245414459210D0A0D0A0D0A12
:1011200000000000FEE7002904D0018841F480613E
:1011300001807047018821F4806101807047034677
:1011400000209A8A1B8B1B041A4322F07F42914392
:1011500000D101207047002904D0018841F001012D
:1011600001807047018821F0010101807047000073
:1011700030B587B00121480501F03AF8012102207D
:1011800001F00CF8214D042206212846FFF7DCFE71
:10119000042207212846FFF7D7FE402105910221AE
:1011A0008DF818108DF8191001218DF81A100024EF
:1011B0008DF81B4005A92846FFF788FE8021059180
:1011C00005A92846FFF782FEADF808404BF6FF70F0
:1011D000ADF80A000A20ADF80C002815ADF80E0095
:1011E0000001ADF810000A4801900A4C01A9204600
:1011F00000F044F801212046FFF7ADFF012000F088
:10120000F5F8102000F0F2F807B030BD00040240FD
:10121000801A060000540040002904D0018841F4DF
:10122000807101807047018821F4807101807047CE
:10123000002904D0018841F40071018070470188C1
:1012400021F40071018070470CB502460020009225
:101250000A0F019221F07F41019A002A03D0009ADF
:101260001432009203E0090C009A18320092009A9E
:1012700012680A4200D001200CBD00007FB5044670
:101280000D46A08820F03F06684600F0CDFF02988A
:101290002749B0FBF1F189B20E43A680228822F0E3
:1012A00001022280234B2A689A4209D85200B0FBDF
:1012B000F2F080B2042800D20420491C218423E0EB
:1012C000EB88A3F53F46FF3E0BD002EBC20303EBD6
:1012D0000212B0FBF2F080B240F48040020506D06A
:1012E00007E002EB4202B0FBF2F080B2F6E740F01A
:1012F000010040F400404FF4967251434FF47A726B
:10130000B1FBF2F1491C2184A083208840F0010048
:10131000208020884FF6F5310840A9886A8911435A
:1013200001432180A8892989084320817FBD0000CD
:1013300040420F00A0860100008AC0B27047002A18
:1013400002D041F0010101E001F0FE01018270478D
:101350000182704770B5234C4FF400352946204672
:10136000FFF772FF0028F9D101212046FFF754FF53
:101370001D4D20462946FFF7E2FE0028F9D0012244
:1013800046212046FFF7DBFF174D6D1C29462046FE
:10139000FFF7D5FE0028F9D02646134C3F342146EE
:1013A0003046FFF7CCFE0028F9D03046FFF7C4FFE7
:1013B000050200213046FFF7B6FE01213046FFF757
:1013C00037FF21463046FFF7BAFE0028F9D03046F5
:1013D000FFF7B2FF40EA050401213046FFF7A3FE04
:1013E000204670BD005400400100030070B5054662
:1013F000184C4FF4003631462046FFF725FF0028F1
:10140000F9D101212046FFF707FF134E2046314650
:10141000FFF795FE0028F9D0002246212046FFF76D
:101420008EFF0E4E20463146FFF789FE0028F9D088
:1014300029462046FFF78CFF084DAD1C2946204663
:10144000FFF77DFE0028F9D02046BDE8704001215D
:10145000FFF7EEBE005400400100030082000700C9
:101460001CB50121052000F099FE0120009000200C
:101470008DF804008DF80700064C69462046FFF7FA
:1014800025FD4FF40051009169462046FFF71EFDEF
:101490001CBD000000080240F0B58BB00446E50A10
:1014A00004F01F07C4F34516FFF70CFB4FF4403060
:1014B00001900220029004960397059520040012E3
:1014C000000E06900C4C60680790002008904FF4C6
:1014D000F07009904FF448700A9001A8FFF708FBDC
:1014E000FFF762FB0220FFF7F9FA0028FAD0208804
:1014F00000F050FB0BB0F0BDCC000020F0B507466B
:1015000000240B4D4FF4487608E02022214638464F
:1015100000F04EF8E8688088204484B2B44205D2D6
:10152000E8688188081980B28842EED2F0BD0000D8
:10153000CC0000202DE9F04393B04FF4C86300FBCA
:1015400003F50C46114601A8FFF71AFD0023174FBB
:101550000DF1040C786803EB43011CF80120120222
:1015600061444E78164336028A78324300213E8821
:10157000B7F802805FEA022904D500EB440929F894
:10158000056003E000EB440929F80580641C520063
:10159000491CC9B21829EDD304F542745B1CDBB2B7
:1015A000182BD8D313B0BDE8F0830000CC00002086
:1015B00010B4203AD3B2054AD2681468D2885A438C
:1015C00004EB420210BC00F033B80000CC00002055
:1015D0002DE9F04180460D460024144E4FF4487723
:1015E00017E07E2A09D821464046FFF7E1FFF06860
:1015F0008088204484B26D1C0BE02988080200EB2F
:10160000112082B221464046FFF794FF1834A4B25D
:10161000AD1CBC4208D22A78002A05D0F068818827
:10162000081980B28842DCD2BDE8F081CC000020ED
:101630002DE9F04300254FF4C8635843DFF8789054
:10164000D9F804C0D9F80C7030E0002326E00C264D
:10165000B4FBF6F6F6004FF0800808FA06F832F808
:10166000156048FA03F818EA060F01D10C2C08D9C6
:101670004FF0010808FA03F816EA080F07D10C2CFE
:1016800005D90CEB4106B9F80240345204E00CEBEA
:101690004106B9F800403452491C5B1CBC889C428E
:1016A000D5D8BB88C3F5487319446D1CFB88AB4281
:1016B000CBD8BDE8F0830000CC0000202DE9FC5F12
:1016C000012140F2FF1000F069FD4FF00408CDF851
:1016D000008002208DF805008DF8040000208DF8B0
:1016E00006008DF807006946AA48FFF7EFFB0E22B7
:1016F0000221A848FFF728FC4FF00809CDF8009018
:101700006946A448FFF7E2FB0E220321A148FFF738
:101710001BFC4FF4807ACDF800A069469D48FFF786
:10172000D5FB0E2208219B48FFF70EFC01240094F4
:1017300069469948FFF7CAFB092200219648FFF73E
:1017400003FC4FF4006BCDF800B069469348FFF7F7
:10175000BDFB0E220B219148FFF7F6FB2003009002
:1017600069468E48FFF7B2FB0E220C218B48FFF72B
:10177000EBFB0220009069468748FFF7A7FB092290
:1017800001218548FFF7E0FB402500956946844824
:10179000FFF79CFB0E2206218148FFF7D5FB202096
:1017A000009069467F48FFF791FB0E2205217D4896
:1017B000FFF7CAFB009569467A48FFF787FB0E22C0
:1017C00006217848FFF7C0FB600300906946714826
:1017D000FFF77CFB0E220D216E48FFF7B5FBA6023A
:1017E000009669466E48FFF771FB09220A216C4892
:1017F000FFF7AAFBE003009069466648FFF766FB27
:101800000E220F216348FFF79FFB0094694666484C
:10181000FFF75CFB0E2200216348FFF795FB802752
:10182000009769466148FFF751FB0E2207215F4888
:10183000FFF78AFBCDF8008069465B48FFF746FB5F
:101840000E2202215848FFF77FFB4FF01008CDF819
:10185000008069465348FFF739FB0E2204215148A6
:10186000FFF772FB2003009069464D48FFF72EFBFF
:101870000E220C214A48FFF767FB00954C4D694644
:101880002846FFF723FB0E2206212846FFF75CFBC4
:10189000CDF800B069464248FFF718FB0E220B2135
:1018A0003F48FFF751FBCDF8008069463E48FFF7FF
:1018B0000DFB0E2204213C48FFF746FBCDF80090BB
:1018C00069463648FFF702FB0E2203213348FFF733
:1018D0003BFBCDF800A069462F48FFF7F7FA0E2230
:1018E00008212D48FFF730FB4FF40079CDF8009028
:1018F00069462948FFF7EAFA0E2209212648FFF730
:1019000023FB009769462648FFF7E0FA0E220721DD
:101910002348FFF719FB009669462348FFF7D6FADC
:101920000E220A212048FFF70FFBCDF800906946F0
:101930001D48FFF7CBFA0E2209211B48FFF704FBD5
:1019400000961C4E69463046FFF7C0FA0E220A2167
:101950003046FFF7F9FACDF8008002208DF8050037
:101960008DF8044000208DF806008DF80740694688
:101970002846FFF7ABFA009769462846FFF7A6FA14
:1019800010212846FFF7F9FA80212846FFF7F5FADB
:10199000BDE8FC9F001C0240000402400000024021
:1019A00000180240001002400020024000080240DF
:1019B000000C0240001402400148C068704700005B
:1019C000CC00002010B590B00121880600F01EFC6C
:1019D0000121C80500F0E2FBFFF770FE00F094FF64
:1019E000002401940294039404940D940E940F9493
:1019F000042207214FF4C07000F094FC4FF48030B3
:101A000000F080FC012000F087FC3D2000F05EFC2F
:101A10000028FAD0059406942E20079017200890ED
:101A200040F24E30099040F2F7100A9040F26230D6
:101A30000B9040F20D200C9001A800F095FA10B028
:101A400010BD000030B591B02F20019040F24E3013
:101A500002901820039040F2F7100490032405949C
:101A6000FF20069000200790089009900A904FF4FC
:101A700080600B9005200C9040F243600E90C01ED9
:101A80000F904FF4F07010904FF050400D90144DA7
:101A900001A9284600F0CAFA059412490D91610285
:101AA0000B9107210C910E4C01A98034204600F0C7
:101AB000BDFA012000F006FB0121284600F0AAFA39
:101AC0000121204600F0A6FA012000F0FBFA0648AA
:101AD00000F048F8012000F037FA11B030BD0000E6
:101AE0008468014000B80BD05800002010B50020D9
:101AF00000F03EF84FF400442046FFF7CDFC0120F3
:101B000000F036F8FF2000F04BF8214648F21F00A5
:101B100000F022F82046FFF7BFFCFFF74DFFC0881A
:101B2000BDE8104001A1FFF753BD000054656D7082
:101B30006572617475726520262048756D696469E7
:101B400074792026204C696768742054657374206A
:101B500044656D6F00000000014A1080518070479D
:101B6000CC0000200149C86070470000CC00002074
:101B70000649002804D00648486001208860704764
:101B80004FF050404860002088607047CC00002033
:101B900000B80BD00149088070470000CC0000203D
:101BA00010B509498968002908D00146074800F0A6
:101BB0002FFABDE81040012000F084BA0146034826
:101BC000803800F025FAF4E7CC00002004690140D9
:101BD0004FF0FF37684E3D0C4FF47C484FF47A7954
:101BE000654900233A462931F06902F0CFFF012808
:101BF00054D0FFF7E1FEC08805EA8000FFF77EFCC5
:101C0000FFF7DAFEC08800EB800080B2FFF776FCB9
:101C10004046FFF7BFFFFFF7CFFEC08857A105EA98
:101C20004000FFF7D5FCFFF7C7FEC0885BA100EBC3
:101C3000400080B2FFF7CCFC60A001F0C7FB4E492A
:101C400000233A46891C306A02F0A0FF012866D0C2
:101C5000FFF7B2FEC08800EB400005EA4000FFF746
:101C60004DFC4046FFF796FFFFF7A6FEC0885DA13A
:101C700000EB400005EA4000FFF7AAFCFFF79CFEDE
:101C8000C08846A1C0EBC00080B2FFF7A1FC5DA0F8
:101C900001F09CFB484602F00BFDA1E7FFF78CFE2C
:101CA000C08805EA4000FFF729FCFFF785FEC088E1
:101CB00000EB400080B2FFF721FCFFF77DFEC088FB
:101CC00005EA8000FFF71AFCFFF776FEC08800EBFC
:101CD000800080B2FFF712FC274C55A129345A48E6
:101CE0006378227801F096FBFFF766FEC0885649BC
:101CF00005EA8000FFF76CFCE378A27853A1524814
:101D000001F088FBFFF758FEC0884F4900EB8000C8
:101D100080B2FFF75DFC57A001F058FB8FE7FFF79B
:101D20004BFEC08800EB400005EA4000FFF7E6FBF1
:101D3000FFF742FEC088C0EBC00080B2FFF7DEFBB9
:101D4000728853A1564801F065FBFFF735FEC08845
:101D500054A100EB400005EA4000FFF739FCFFF713
:101D60002BFEC0884E49C0EBC00080B2FFF730FCAC
:101D70004EA001F02BFB8DE7240000204448543195
:101D80003120696E697469616C697A6174696F6E1A
:101D9000206661696C65642100000000506C65611B
:101DA000736520636865636B2074686520636F6E7C
:101DB0006E656374696F6E21000000004C4344201F
:101DC000CFD4CABECEC2CAAAB6C8B4ABB8D0C6F7C2
:101DD000B4EDCEF3D0C5CFA2D0B4C8EBCDEAB3C931
:101DE0000D0A000042483137353020696E69746948
:101DF000616C697A6174696F6E206661696C656493
:101E0000210000004C434420CFD4CABEB9E2D5D54E
:101E1000C7BFB6C8B4ABB8D0C6F7B4EDCEF3D0C523
:101E2000CFA2D0B4C8EBCDEAB3C90D0A0D0A0000A9
:101E300048756D69646974793A202532642E2532BB
:101E40006420252552482000E400002054656D7070
:101E5000657261747572653A202532642E2532648C
:101E6000206465677265652043656C7369757320CE
:101E7000000000000D0A4C434420CFD4CABECEC29D
:101E8000CAAAB6C8D0B4C8EBCDEAB3C90D0A0000DF
:101E90004C696768743A20253264204C7820000031
:101EA000E40400204248313735303A004C434420A6
:101EB000CFD4CABEB9E2D5D5C7BFB6C8D0B4C8EB77
:101EC000CDEAB3C90D0A0D0A000000002DE9FC415E
:101ED0000121802000F062F94FF480640094012019
:101EE0008DF8040000218DF806108DF807008DF89C
:101EF00005100C4F69463846FEF7E8FF660000966D
:101F000069463846FEF7E2FFA50000956946384667
:101F1000FEF7DCFF03481830048006800580BDE82A
:101F2000FC810000001C02400649002804D008681B
:101F300040F0010008607047086820F00100086068
:101F400070470000186801400649002804D008685E
:101F500040F4803008607047086820F480300860E2
:101F6000704700001868014030B5264A13682649BA
:101F70000B401360038A1B04146845692C431C43FF
:101F80001460121D13680B401360038B1B0414684C
:101F9000C5692C431C431460121D13680B40136069
:101FA000038C1B041468456A2C431C431460121DE7
:101FB00013680B401360018D09041368C46A23433E
:101FC0000B431360111D0A68104B1A400A60D0E9D8
:101FD00000231A43D0E9023423431A430B681A43FF
:101FE0000A60416B0A02018E0B04064924310C6819
:101FF00004F07F440C600C68806B134304431C4363
:102000000C6030BD0868014000F800F08F88FE0FBA
:1020100041617047002904D0016841F0010101606D
:102020007047016821F001010160704770B58A882E
:102030001204436803F4704343600B681343436026
:102040008A891204836803F4704383608B681343A6
:102050008360026922F0070202610A690261CA69AB
:1020600013020A8C120491F8244024068569002585
:1020700085618E6922431E4316438661426922F0C0
:10208000FF0242614A694261C26940F207739A43A2
:10209000C261D1E90A231A43C261826A85620A6B6E
:1020A00082620A8F1204C36A03F0E023C3624B6B9F
:1020B0001343C362026B6FF30A020263C96B0163CD
:1020C00070BD0000014908607047000024680140AD
:1020D000FEE7704708B54FF4A06000F055F82520E2
:1020E0008DF8000001208DF801008DF802008DF8B8
:1020F0000300684600F014F808BD08B54FF4A0606E
:1021000000F042F827208DF8000001208DF8010032
:102110008DF802008DF80300684600F001F808BD54
:1021200030B50F23C27801250178002A1FD0154A47
:10213000126802F4E062C2F5E062C2F30722C2F163
:102140000404D3404278A24084781C401443220106
:1021500001F1E02181F80024007800F01F018D409A
:102160004009800000F1E020C0F8005130BD01F0CE
:102170001F0085404809800000F1E020C0F8805130
:1021800030BD00000CED00E0024908430249086040
:10219000704700000000FA050CED00E0054A002938
:1021A00003D01168014311607047116881431160C9
:1021B0007047000030380240054A002903D01168FA
:1021C000014311607047116881431160704700003E
:1021D00010380240054A002903D0116801431160FC
:1021E0007047116881431160704700003838024021
:1021F000054A002903D01168014311607047116836
:10220000814311607047000040380240054A0029B0
:1022100003D0116801431160704711688143116058
:10222000704700004438024070B5244B196801F033
:102230000C01234C00291ED0224E04291DD0082950
:102240001DD00460196801F0F00109091E4A545CB0
:102250000168E14041601C6804F4E054A40A145D84
:1022600021FA04F484601B6803F460435B0BD25CC6
:10227000D140C16070BD0460E4E70660E2E70F4A48
:10228000121F1168C1F38055116801F03F0135B18B
:10229000B6FBF1F11468C4F38814614305E0B4FBA4
:1022A000F1F11468C4F3881461431268C2F3014267
:1022B000521C5200B1FBF2F10160C3E70838024042
:1022C0000024F40040787D01140000200246002024
:1022D000510901290BD002290DD00949096802F0E2
:1022E0001F02012393400B4200D001207047044994
:1022F00074390968F3E70249091F0968EFE700002C
:1023000074380240034A116821F4403101431160DE
:10231000704700008C380240014908677047000090
:1023200000004742800140EA0160024940EA027031
:1023300008607047883802402DED028B104C9FEDED
:10234000118B4FF0FF354FF47A76FFF703F880B228
:10235000FEF74AF853EC182BFDF7D7FFFEF751F8BC
:10236000208000232A460649206A02F02DFD21889C
:1023700006A001F02BF8304602F09AF9E5E70000DC
:1023800024000020333333333333F33F0D0A424804
:1023900031373530B6C1C8A1B3C9B9A6210D0AB9C4
:1023A000E2D5D5C7BFB6C8CEAA3A2564204C780D71
:1023B0000A0D0A0008B5114C4FF0FF36A4F12405B0
:1023C0004FF47A7714E0E0780090A378627821786F
:1023D0000BA000F0FBFF002332460849E86902F039
:1023E000F3FC02E015A000F0F1FF384602F060F9BE
:1023F000024800F05FF80128F4D1E4E7480000202B
:102400000D0AB6C1C8A14448543131B3C9B9A62197
:102410000D0ACAAAB6C8CEAA25642E256420252591
:10242000524820A3ACCEC2B6C8CEAA2025642E2521
:1024300064A1E6200D0A0D0A000000000D0A526595
:102440006164204448543131204552524F52210D8D
:102450000A0D0A002DE9F04100250024144F012641
:1024600004213846FEF780FD0028F9D02820FEF729
:102470004DFC04213846FEF777FD01280BD0C4F14E
:10248000070006FA00F08543641CE4B2082CE7D389
:102490002846BDE8F08104213846FEF765FD012895
:1024A000F9D0C4F1070006FA00F0C0B20543EBE72B
:1024B000001002402DE9F0410446FEF7EDFA304FDE
:1024C00004213846FEF757FD44F62060FEF71EFC57
:1024D00004213846FEF751FD1E20FEF717FCFEF7DB
:1024E000C9FA04213846FEF73FFD10B10020BDE8CF
:1024F000F08100254FF47A7608E06D1CADB2B5424C
:1025000001D90020F3E70A20FEF700FC0421384639
:10251000FEF72AFD0028F0D0002508E06D1CADB2C2
:10252000B54201D90020E2E70A20FEF7EFFB0421C3
:102530003846FEF719FD0128F0D0FFF78BFF207019
:10254000FFF788FF6070FFF785FFA070FFF782FF3D
:10255000E070FFF77FFF2071FEF79EFA04213846F6
:10256000FEF70BFD20786178E2780844A1781144E9
:1025700008442179884201D10120B8E70020B6E75C
:10258000001002402DE9FC5F0121FC20FFF706FE50
:1025900002208DF804008DF8050000208DF806005B
:1025A0008DF80700012000906946D148FEF78EFCA7
:1025B0000C220021CE48FEF7C7FC0220009069469D
:1025C000CB48FEF783FC0C220121C948FEF7BCFC76
:1025D000042000906946C648FEF778FC0C220221D0
:1025E000C348FEF7B1FC082000906946C048FEF7DA
:1025F0006DFC0C220321BE48FEF7A6FC10270097B5
:102600006946BB48FEF762FC0C220421B848FEF77D
:102610009BFC4FF02008CDF800806946B448FEF7D7
:1026200055FC0C220521B248FEF78EFC4FF4805970
:10263000CDF800906946AE48FEF748FC0C221146E2
:10264000AB48FEF781FC4FF4005ACDF800A0694674
:10265000A748FEF73BFC0C220D21A548FEF774FCB1
:10266000BD0200956946A248FEF730FC0C220E21FF
:102670009F48FEF769FC6C00009469469C48FEF791
:1026800025FC0C220F219A48FEF75EFC01200090E9
:1026900069469848FEF71AFC0C2200219548FEF77F
:1026A00053FC0220009069469248FEF70FFC0C2272
:1026B00001219048FEF748FC009569468E48FEF7D8
:1026C00005FC0C220E218C48FEF73EFC0094694666
:1026D0008948FEF7FBFB0C220F218748FEF734FCEC
:1026E0000120009069468448FEF7F0FB0C2200218F
:1026F0008148FEF729FC0220009069467E48FEF7DB
:10270000E5FB0C2201217C48FEF71EFC4FF0800BFC
:10271000CDF800B069467948FEF7D8FB0C220721B6
:102720007648FEF711FCE611009669467348FEF7FD
:10273000CDFB0C2208217148FEF706FCA011009089
:1027400069466E48FEF7C2FB0C2209216B48FEF772
:10275000FBFB6011009069466848FEF7B7FB0C224E
:102760000A216648FEF7F0FB201100906946634895
:10277000FEF7ACFB0C220B216048FEF7E5FBCDF821
:10278000009069465D48FEF7A1FB0C2211465B48AC
:10279000FEF7DAFBCDF800A069465848FEF796FB35
:1027A0000C220D215548FEF7CFFB00956946534892
:1027B000FEF78CFB0C220E215048FEF7C5FB00945F
:1027C00069464E48FEF782FB0C220F214B48FEF76C
:1027D000BBFB009669464848FEF778FB0C220821AF
:1027E0004548FEF7B1FBA011009069464248FEF74C
:1027F0006DFB0C2209214048FEF7A6FB60110090FA
:1028000069463D48FEF762FB0C220A213A48FEF772
:102810009BFB402000903A4D69462846FEF756FB48
:102820000C2206212846FEF78FFB009769463148A7
:10283000FEF74CFB0C2204212E48FEF785FBCDF859
:10284000008069462B48FEF741FB0C2205212948F0
:10285000FEF77AFB012000902A4F69463846FEF7C2
:1028600035FB0C2200213846FEF76EFB201100904C
:1028700069461F48FEF72AFB0C220B211C48FEF775
:1028800063FB009469461B48FEF720FB0C220F21D6
:102890001848FEF759FB009669461648FEF716FBE6
:1028A0000C2208211348FEF74FFBCDF800B0694613
:1028B0002846FEF70BFB0C2207212846FEF744FBB7
:1028C0000220009069460D48FEF700FB0C22012112
:1028D0000A48FEF739FB0120009069460748FEF7D9
:1028E000F5FA0C2200210548FEF72EFBBDE8FC9FFF
:1028F0000014024000180240000C02400010024088
:10290000001C02400008024000B593B0FFF73AFEF9
:1029100001210846FFF75EFC022001900722029287
:1029200004210391049205900690079001200890DD
:10293000002009900A9110210B9140210C914FF435
:10294000C0710D910E904FF400610F9110908800AE
:10295000119001A8129008A8FEF72CFA00F002F8D6
:1029600013B000BD2DE9FF41012500950826019611
:1029700002950024039420210120FEF7EFF900289E
:10298000F9D16846FEF706FA0A2000F041F8022065
:10299000009001960295039420210120FEF7DEF9B4
:1029A0000028F9D16846FEF7F5F90320009001965A
:1029B00004270297039420210120FEF7CFF9002875
:1029C000F9D16846FEF7E6F920210120FEF7C6F9A5
:1029D0000028F9D16846FEF7DDF940F23120009772
:1029E00001960295039020210120FEF7B7F90028F7
:1029F000F9D16846FEF7CEF940F26A50FEF75EFA6A
:102A000020210120FEF7AAF90028F9D1BDE8FF81B5
:102A100001B581B0054901984843009002E0009853
:102A2000401E009000980028F9D10CBDA08601003E
:102A3000002904D0018841F04001018070470188DD
:102A400021F04001018070472DE9F04104460F4616
:102A500015460F4840260680032000F087F8C7F38C
:102A6000074000F083F8C7F3072000F07FF8F8B2C2
:102A700000F07CF804E0FF2000F078F804F8010B87
:102A80006D1EADB2F7D20248801E0680BDE8F0810F
:102A90001A1402402DE9F04387B001212020FFF7EE
:102AA0007DFB01210805FFF7B1FBDFF8B890052297
:102AB00007214846FEF748FA052208214846FEF756
:102AC00043FA052209214846FEF73EFA802000908D
:102AD00002258DF805508DF8045000248DF806402D
:102AE0008DF8074069464846FEF7F0F9E801009086
:102AF00069464846FEF7EAF94FF40078CDF80080C1
:102B000069464846FEF7E2F94027009701268DF80E
:102B1000046069464846FEF7D9F912481830078024
:102B2000ADF808404FF48270ADF80A00ADF80C40E3
:102B3000ADF80E50ADF81060ADF81280ADF814404D
:102B4000ADF816400720ADF81800074C02A9204642
:102B500000F04FF801212046FFF76AFF07B0BDE8FB
:102B6000F083000000140240005001402DE9F041C4
:102B70000746184C4FF480552560174E09E0206831
:102B8000411E216005D2002000F050F8C0B2BDE81F
:102B9000F0810221304600F021F80028EFD03946BC
:102BA000304600F024F8256008E021684A1E2260C3
:102BB00004D2012000F03AF8C0B2E8E70121304623
:102BC00000F00CF80028F0D0304600F00EF8C0B24B
:102BD000DDE70000C8000020005001400246002050
:102BE00012890A4200D00120704780897047818194
:102BF000704730B5028802F441530A884C88CD886A
:102C000022438C882C4322430C8922434C89224343
:102C10008C892243CC8922431A430280828B22F47E
:102C200000628283098A018230BD000010B501462E
:102C300002A000F0CBFB002010BD00003C3C2D4664
:102C40004C4153482D4552524F522D3E3E20535039
:102C50004920B5C8B4FDB3ACCAB1216572726F72B8
:102C6000436F6465203D2025640A00001CB50021E7
:102C7000019100912E4A106840F4803010604FF4AA
:102C8000A043106800F4003000900198401C0190AF
:102C9000009810B901989842F3D11068800302D5CA
:102CA0000120009000E00091009801283FD12048C9
:102CB0004030016841F0805101601E49086840F4CD
:102CC000404008601A48083003680360036843F412
:102CD00000430360036843F4A0530360041F164BD2
:102CE0002360136843F08073136013689B01FCD565
:102CF0000A6842F480320A604A68D203FCD50A6846
:102D000042F400320A604A689203FCD50B4A40F252
:102D100005711160016821F003010160016841F053
:102D2000020101600168C1F381010229FAD11CBDD1
:102D30000038024000700040195A4007003C024031
:102D400010B502F07DF9012803D0BDE8104001F074
:102D5000D1BE10BD0C480D490068B0FBF1F0401E1B
:102D6000B0F1807F01D301200AE04FF0E0214861FB
:102D7000074AF020107000208861072008610020B9
:102D8000002800D0FEE7704700000020A086010068
:102D900023ED00E010B51248016841F470010160B4
:102DA0001048016841F0010101600E4A002108321B
:102DB000116002680C4B1A400260031D0B4A1A6036
:102DC000026822F48022026006480C300160FFF79E
:102DD0004DFF03494FF000608039086010BD0000CE
:102DE00088ED00E000380240FFFFF6FE10300024BE
:102DF00010B5094C40F22551204600F05EF800283D
:102E000008D0204600F0F2F8C1B2BDE810400348F7
:102E100000F0F0B810BD0000001001400048004074
:102E200070B5184C40F22551204600F046F80028B5
:102E300012D0204600F0DAF8C4B22146124800F061
:102E4000D9F812490888020406D443044FF000025E
:102E500007D50A2C01D00A8070BD40F400400880DC
:102E600070BD0D2C0AD00A4DC0F30D03EC54401C6C
:102E700080B20880C728F3D90A8070BD40F4804032
:102E8000088070BD0048004000100140C4000020D0
:102E9000900C0220002904D0818941F400518181E5
:102EA0007047818921F400518181704702460020DA
:102EB00012880A4200D00120704770B5002440F605
:102EC0006A12C1F3421301F01F05012606FA05F24A
:102ED000012B0CD0022B0DD0838A1340090A8E409F
:102EE000008830400BB100B10124204670BD8389B9
:102EF0001340F3E7038A1340F0E710B540F66A1376
:102F0000C1F3421301F01F040121A140012B07D09E
:102F1000022B07D014303AB102680A43026010BD98
:102F20000C30F8E71030F6E702688A43026010BD03
:102F30007FB504460D46208A20F44051E8880843B6
:102F40002082A08941F20C618843A9882A89114313
:102F50006A8902431143A181A08A20F44071A889A3
:102F60000843A0826846FFF75FF91E48844202D0FA
:102F70001D48844201D1039800E00298A189090408
:102F800008D500EBC00101EB001029684900B0FB37
:102F9000F1F007E000EBC00101EB001029688900A7
:102FA000B0FBF1F06422B0FBF2F109010B096FF004
:102FB00018056B4300EB8300A3891D044FF0320317
:102FC00007D503EBC000B0FBF2F000F007000843A8
:102FD00006E003EB0010B0FBF2F000F00F00084336
:102FE00020817FBD00100140001401408088C0F3A3
:102FF00008007047C1F3080181807047FEE70000B8
:1030000098B054A00068099053A00068089053A09D
:103010000068079052A000680690142101A8FDF7EF
:1030200056F9504E0DF132004FF0FF3800270DF1E8
:10303000460B0DF150090DF13C0A17904949002348
:1030400042462E31F06901F0A1FD044645490023B6
:103050004246091D306A01F099FD0546012C57D002
:1030600041A000F0B3F9012D6DD04CA000F0AEF9F5
:1030700009A901A8FDF736F90AA901A8FDF732F957
:1030800001A81799FDF72EF9514601A8FDF72AF975
:10309000594601A8FDF726F908A901A8FDF722F96C
:1030A000494601A8FDF71EF907A901A8FDF71AF97D
:1030B00006A901A8FDF716F901A945A001F0C0F97C
:1030C00044A001F0BDF901A943A000F07FF914214B
:1030D00001A8FDF7FCF80A210AA8FDF7F8F8CDF8D9
:1030E0003270CDF83670ADF83A700A215046FDF7CF
:1030F000EEF8CDF84670CDF84A70ADF84E700A2162
:103100004846FDF7E4F84FF4FA6001F0D1FA95E78C
:10311000144C36A22E340A21A378504600F066F9EA
:10312000E37832A20A21584600F060F923782FA2F2
:103130000A210AA800F05AF963782CA20A211798EC
:1031400000F054F98FE7B38828A20A21484600F01E
:103150004DF98DE7410000004200000043000000EF
:103160004400000024000020574946495F53656E23
:1031700064446174655F5461736B2043616E2774AE
:10318000207851756575655265636569766520447B
:10319000485431315F446174610000005749464929
:1031A0005F53656E64446174655F5461736B204363
:1031B000616E277420785175657565526563656920
:1031C0007665204248313735305F446174650000D0
:1031D000257300000D0A00000D0AD2D1B7A2CBCD95
:1031E000CFFBCFA23A25730D0A0000002564000032
:1031F00070B52D4C2D4D2168002923D12CA001F054
:103200001FF92846FDF782FD2DA001F019F92F487E
:10321000FDF77CFD2EA001F013F92846FDF776FDA1
:1032200032A001F00DF92846FDF770FD37A001F03E
:1032300007F92846FDF76AFD38A001F001F9284694
:10324000FDF764FD216801292CD13AA001F0F8F8BE
:103250002846FDF75BFD1AA001F0F2F83948FDF7AA
:1032600055FD39A001F0ECF8404C2046FDF74EFD2D
:103270003FA001F0E5F82846FDF748FD40A001F029
:10328000DFF82046FDF742FD48A001F0D9F82846B6
:10329000FDF73CFD49A001F0D3F82846BDE8704099
:1032A000FDF734BD70BD0000DC00002020A1070048
:1032B00041542B43574D4F44453D330D0A00000008
:1032C00041542B5253540D0A0000000060E31600D5
:1032D00041542B43495041503D223139322E313631
:1032E000382E312E31220D0A0000000041542B43AC
:1032F000575341503D22464851222C22313233341B
:1033000035363738222C352C300D0A0041542B43EA
:1033100049504D55583D310D0A00000041542B4392
:1033200049505345525645523D312C383038300DB6
:103330000A00000041542B43574D4F44453D310D89
:103340000A00000080841E0041542B43574A41501C
:103350003D224D6972726F725F7A65726F222C2204
:103360003131313131313131220D0A00C0C62D00E9
:1033700041542B4349504D55583D300D0A00000033
:1033800041542B43495053544152543D22544350CD
:10339000222C223132302E37362E3137332E333035
:1033A000222C35303032310D0A00000041542B43BD
:1033B00049504D4F44453D310D0A000041542B43C7
:1033C000495053454E440D0A000000000FB4054B10
:1033D00010B503A9044A029800F004F910BC5DF886
:1033E00014FB0000353D0008E00000200FB41CB5C0
:1033F0000A46521ECDE9000207A9054B6A46069807
:1034000000F0F0F8009A002111701CBC5DF814FB6C
:10341000133D00080FB4084B10B504A902AA039885
:1034200000F0E0F8044602A9002000F07DFC2046F0
:1034300010BC5DF814FB0000293D000837B51446A8
:103440000846064B6A46214600F0CCF80446694619
:10345000002000F069FC20463EBD0000293D000828
:1034600002E008C8121F08C1002AFAD1704770474D
:10347000002001E001C1121F002AFBD170470000AB
:103480002DE9FF5FDDE90220010DDDF838B00243D0
:1034900018D044F61050A1F2FF3141430D140F989B
:1034A000012820D0A5EB0B00401C5FEA000A4FF07A
:1034B0000004474EDFF81C91A046504616D5CAF1CD
:1034C000000728E00F98012443A2012808D000211A
:1034D00000980F9BC0E90021C0E90243BDE8FF9FAF
:1034E0006FEA0B01F4E7CBF10000DEE7074612E0DC
:1034F000F80707D02246334640464946FDF7F5F81F
:10350000804689462246334610461946FDF7EDF8B7
:1035100004460E467F10002FEAD1DDE90201BAF120
:10352000000F42464B4602DAFDF7DFF801E0FCF7F8
:10353000ECFE04460E460022284BFDF761F903D845
:103540004FF0FF30014607E00022254B2046314670
:10355000FDF724F8FDF73BF9102409E0002C0ADB05
:103560000A220023FCF77CFF019B30321A55641EAF
:1035700050EA0102F2D1641C019AC4F1110314440F
:103580000F9A012A03D0012208430DD10AE0084313
:1035900004D000204FF0110B0F9080E7A3EB0B0538
:1035A0006D1E0DE05B4504DD4FF0000205F10105E5
:1035B00004E003DA4FF00002A5F10105002AECD087
:1035C00000980F99C0E90231C0E9004586E7000084
:1035D000000024400000F03F300000000000F043F5
:1035E0000000E03F2DE9FF4F95B09B468946064617
:1035F00000250FE2252877D100242746F84A01212B
:10360000059400E0044316F8013F203B01FA03F063
:103610001042F7D130782A2811D06FF02F0330787C
:10362000A0F13002092A16D8059A44F0020402EBF0
:10363000820203EB42021044761C0590EFE759F832
:10364000042B0592002A03DA504244F400540590FA
:1036500044F00204761C30782E2816D116F8010F9B
:1036600044F004042A280DD06FF02F023078A0F126
:103670003003092B09D807EB870302EB4303C71874
:10368000761CF3E759F8047B761C30786C280FD051
:1036900006DC4C2817D068280DD06A2814D104E025
:1036A000742810D07A280FD10DE044F400140AE0F9
:1036B00044F4801401E044F440147278824202D150
:1036C00004F58014761C761C307866280BD013DC49
:1036D000582877D009DC002875D04528F6D0462830
:1036E000F4D047281AD19DE118E0632835D064282A
:1036F00079D0652812D195E1702873D008DC67284D
:10370000F1D069286FD06E280DD06F2806D1B5E0B2
:1037100073282CD0752875D0782874D05A461799FC
:1037200090476D1C75E1C4F30250022809D00328AC
:103730000DD0D9F8001004280DD00D6009F104094E
:1037400067E1D9F80010EA17C1E90052F6E7D9F8A5
:1037500000100D80F2E70D70F0E719F8041B8DF8EA
:10376000001000208DF80100EA46012003E059F81E
:1037700004AB4FF0FF3061074FF0000102D40DE0C1
:1037800008F101018846B9420FDA8045F8DB1AF8E2
:1037900008100029F4D108E008F1010188468142AF
:1037A000FADB1AF808100029F6D105985B46A0EB61
:1037B000080721463846179A00F094FA284400EB8F
:1037C000080507E04DE029E10DE01AF8010B5A4623
:1037D00017999047B8F10108F7D25B462146384661
:1037E000179A13E142E00A220092C4F302524FF00A
:1037F000000A022A08D059F804CB032A4FEAEC71D8
:103800000AD00DE029E02AE009F1070121F00702C2
:10381000F2E802C1914609E00FFA8CFC4FEAEC7124
:10382000042A03D14FFA8CFC4FEAEC71002907DA25
:103830000A460021DCF1000C61EB02012D2202E0BE
:10384000220504D52B228DF80420012203E0E20793
:1038500001D02022F7E7904659E00A2102E0102229
:103860000DE010214FF0000A00910BE010224FF004
:10387000000A44F004040827009203E008224FF0F5
:10388000000A0092C4F30252022A05D059F804CB70
:103890000021032A08D009E009F1070121F00702FD
:1038A000F2E802C1914605E01FFA8CFC042A01D11E
:1038B0000CF0FF0C4FF00008220728D5702806D026
:1038C000009B83F0100353EA0A0305D00EE0402268
:1038D0008DF80420012208E05CEA010206D03022C3
:1038E0008DF804208DF8050002229046009B83F09D
:1038F000080353EA0A030AD15CEA010201D1620714
:1039000005D530228DF804204FF001087F1E58287D
:1039100004D034A003900EA802900DE036A0F9E781
:1039200053466046009AFCF79BFD84460398825CF0
:103930000298401E029002705CEA0100F0D10298E9
:1039400006A9081A00F1200A600702D524F4803481
:1039500000E00127574502DDA7EB0A0000E0002048
:1039600000EB0A01009005984144401A0590E003DD
:1039700006D45B462146179A059800F0B3F9054432
:10398000002706E001A85A46C05D179990476D1CB4
:103990007F1C4745F6DBE0030CD55B462146179AB2
:1039A000059800F09FF9054404E030205A46179925
:1039B00090476D1C0099481E00900029F5DC08E036
:1039C000029802995A460078491C0291179990472B
:1039D0006D1CBAF10001AAF1010AF1DC65E10000F9
:1039E00009280100303132333435363738396162D5
:1039F0006364656600000000303132333435363799
:103A000038394142434445460000000000F058F96F
:103A10000544761C307800287FF4ECAD19B02846B8
:103A2000BDE8F08F620700D4062709F1070222F0F3
:103A3000070CFCE80223E14603F000485FEA080CAB
:103A400002D00FF2702C0DE05FEA045C02D50FF299
:103A5000682C07E05FEAC47C02D00FF2602C01E022
:103A6000AFF2700C4FF0FF3823F00043CDF850C098
:103A700065280CD006DC452809D046281DD04728EB
:103A80003DD13DE0662818D067287ED138E000217E
:103A9000112F01DB112000E0781CCDE9000106A9FF
:103AA0000EA8FFF7EDFCDDE90F010E9A039100214E
:103AB000009207F1010A04914DE04FF00040009799
:103AC000CDE9011006A90EA8FFF7DAFCDDE90F0227
:103AD00003920E9B11990022DDF80CA00093049232
:103AE00011B9791C00EB010AB7EB0A0004D4C0F14C
:103AF000FF3007F1010A0490AAEB0700019044E0AF
:103B0000012F00DA01270021112F01DD112000E033
:103B10003846CDE9000106A90EA8FFF7B1FCDDE9A2
:103B20000F010E9A0391002104910092BA462107D9
:103B30000CD40399514500DA8A46BAF1010F05DD2C
:103B4000009AAAF10101515C302908D0B84202DA8A
:103B500010F1040F06DA0121CDE9011015E0AAF1F8
:103B60000101E9E7002805DC049901440491AAEB6E
:103B7000000102E0411C514500DD8A460499401ACB
:103B8000401C01904FF000400290200704D401989F
:103B9000504501DBCDF8048000208DF84F000298DD
:103BA0000DF14F07B0F1004F25D02B200E90029859
:103BB0004FF0020800280CDA404202902D200E90AF
:103BC00007E00A210298FCF735FC3031029007F833
:103BD000011DB8F10001A8F10108F2DC02980028EB
:103BE000EFD1791E0E980870307800F0200040F078
:103BF000450007F8020D12A8C01B00F10708149831
:103C0000007800B1012000EB0A01019801EBE0719E
:103C100005984144401A401E0590E00306D45B46D7
:103C20002146179A059800F05DF80544149800782D
:103C300018B15A46179990476D1CE00324D55B468E
:103C40002146179A059800F04DF805441CE00498A9
:103C5000002807DBDDE90301884203DD0098405CB2
:103C6000179901E0179930205A469047049805F1BA
:103C70000105401C04900198401E019004D12E20A3
:103C80005A46179990476D1CBAF10001AAF1010A32
:103C9000DDDC05E017F8010B5A46179990476D1CBB
:103CA000B8F10001A8F10108F4DC5B462146179A3F
:103CB0000598ABE62D0000002B000000200000005E
:103CC0002DE9F041044600251E461746880404D419
:103CD00005E039462020B0476D1C641EF9D5284602
:103CE000BDE8F0812DE9F041044600251E469046CE
:103CF000C80301D5302700E02027880404D505E05B
:103D000041463846B0476D1C641EF9D52846BDE8CB
:103D1000F0814A68002A06D00A68531C0B601070B4
:103D20004868401E486070470A68531C0B6010705A
:103D30007047000070B50446064DE1B22846FFF713
:103D400059F980212846FFF7B1F80028F9D020461C
:103D500070BD0000001001401CB5FDF737F9FDF7FC
:103D6000C5FE04210022084600F0DAFE134CE06193
:103D700010B913A0FFF72AFB04210022084600F027
:103D8000CFFE206210B914A0FFF720FB0B480121E1
:103D90000830CDE900104A02002316A1194801F0AD
:103DA0001FF9012802D04FF0FF301CBD00F084FD48
:103DB00015A0FFF70BFB00201CBD00002400002015
:103DC00043616E27742063726561746520444854B2
:103DD00031315F446174610043616E277420637206
:103DE00065617465204248313735305F44617461E4
:103DF000000000004170705461736B437265617420
:103E00006500000099080008455849542045525261
:103E10004F5221002DE9F04104460F46174EF56838
:103E20003068001D00F032FB38B9306890F82C1073
:103E300001208840316981433161601C07D137B16D
:103E40003168BDE8F041091D0D4800F057BB2C4416
:103E500030684460AC4206D23168B06B091DBDE8E1
:103E6000F04100F033BB3168706B091D00F02EFB90
:103E7000B06A844200D2B462BDE8F08188000020BC
:103E8000B40B022070B5044600F044FB1C4DA8683A
:103E9000401CA860286810B1686938B10CE02C603B
:103EA000A868012808D100F047F905E02868E16A10
:103EB000C06A884200D82C60686A401C6862E06A68
:103EC00001212A698140114329610E4900EB8000DC
:103ED00001EB8000211D00F011FB00F057FB686929
:103EE00000280CD02868E16AC06A884207D20649D7
:103EF0004FF080500860BFF34F8FBFF36F8F70BDDE
:103F000088000020E408022004ED00E070B5124EA5
:103F1000124D1CE000F01AFD306820B1002401F0C1
:103F200069F9A4B901E00124F9E700F0F3FAF068B7
:103F3000C468201D00F0AAFAA868401EA86068683E
:103F4000401E686000F022FB204600F04BF86868D5
:103F50000028DFD170BD0000A00B022088000020E7
:103F600030B40B46026C002A0CD0C1681144C16009
:103F70004468A14201D30168C160C16830BC1846E1
:103F8000FCF78CB930BC70472DE9F0410446174668
:103F90000026A56B226C002A1FD07FB1E068FCF7D9
:103FA0007DF9E168206C091AE1602268914202D231
:103FB0006168081AE060022F0DD00EE0A068FCF7DF
:103FC0006DF9216CA0680844A0606168884204D340
:103FD0002068A06001E005B16D1E6D1CA563304630
:103FE000BDE8F08110B50446206B00F003FB2046CD
:103FF000BDE8104000F0FEBA4FF400310F48420710
:1040000006D0C01D20F007000C49411AC1F500314F
:104010000B4A1060002353600144083921F0070166
:10402000103A11604B600B600B1A436001604068EE
:10403000906050604FF00040D0607047E40800206E
:1040400074000020074E4FF08054074DFFF75EFFCD
:1040500030680128FAD92C60BFF34F8FBFF36F8F00
:10406000F4E70000E408022004ED00E003460098B5
:10407000002905D00260C3630164012100F04ABE3B
:104080000060F8E72DE9F047DDE908580A9C814611
:104090000E469A46206B521E00EB820020F0070766
:1040A000780705D040F22B3218A11FA0FFF78EF938
:1040B00000202218315C82F83410315C11B1401CB0
:1040C0001028F6D3002684F84360202D00D31F2546
:1040D000E562201D00F0F7F904F1180000F0F3F993
:1040E0002461C5F12000A0616462666484F84860C0
:1040F00052464946384600F091F92060B8F1000F69
:1041000001D0C8F80040BDE8F08700002E2E5C2EDC
:104110002E5C4672656552544F535C7372635C74D7
:1041200061736B732E6300004572726F723A257370
:104130002C25640D0A00000070B50024114D04EB1D
:10414000840005EB800000F0B3F9641C202CF6D34A
:104150000D4800F0ADF90C48143000F0A9F90A48F8
:10416000283000F0A5F908483C3000F0A1F90648D5
:10417000503000F09DF905480349416314318163D3
:1041800070BD0000E4080220640B022088000020BB
:1041900030B5134900E011460A688242FBD34B68F0
:1041A0005C18844203D140681844486008460D6892
:1041B00044682318AB420DD1094B103B1B689A424F
:1041C00006D05268224442600A681268026002E027
:1041D000036000E00260814200D0086030BD000052
:1041E0007400002010B5044600F094F9A06B20B1D3
:1041F000002400F0CBF9204610BD0124F9E710B5EA
:10420000044600F087F9A06BE16B884201D10124DC
:1042100000E0002400F0BAF9204610BD0748416BC9
:104220000968002905D0416BC968C968496881627D
:1042300070474FF0FF318162704700008800002016
:1042400008484068401C05D040F20F1206A111A09A
:10425000FFF7BCF8502080F31188BFF34F8FBFF3F6
:104260006F8FFEE77C0000202E2E5C2E2E5C4672A7
:10427000656552544F535C70726F745C5256445370
:104280005C41524D5F434D34465C706F72742E63D7
:10429000000000004572726F723A25732C25640D80
:1042A0000A0000002DE9F041044600F033F994F9CA
:1042B000455004F1240609E0606A48B1304600F038
:1042C00047FF08B100F09AFA6D1E6DB2002DF3DCC5
:1042D0004FF0FF3684F8456000F058F900F01AF905
:1042E00094F9445004F1100709E0206948B13846B8
:1042F00000F02EFF08B100F081FA6D1E6DB2002DA6
:10430000F3DC84F84460BDE8F04100F03FB9000000
:104310002DE9F0410546002600F018FB304F3868C3
:1043200008B9FFF769FEF86805424BD175B1083549
:1043300068070BD005F00700C0F1080005446807C6
:1043400004D0BF2227A131A0FFF740F8002D39D0BB
:104350007868854236D8224910310846046801E061
:10436000214604466068A84202D220680028F7D19E
:104370003868844226D00E68083620680860606875
:10438000401B102811D904EB05085FEA487004D0DF
:10439000EC2214A11DA0FFF719F86068401BC8F8B3
:1043A000040065604046FFF7F3FE61687868401AD4
:1043B0007860BA68904200D2B860F86801436160E2
:1043C0000020206000F016FF700705D04FF49672B1
:1043D00004A10EA0FEF7FAFF3046BDE8F081000010
:1043E000640000202E2E5C2E2E5C467265655254B1
:1043F0004F535C70726F745C4D656D4D616E675CA0
:10440000686561705F342E63000000004572726F52
:10441000723A25732C25640D0A00000024384FF0F1
:104420008073036221F00101C1610449816142602E
:104430006FF0020140F82019704700004142000867
:104440000FB4F8B507AA0F480699FEF7F7FF00204A
:1044500000900C48FBF752FF86B200240A4F094D2A
:104460000BE040213846FEF721FD0028F9D0295DF8
:104470003846FEF7BFFD641CA4B2B442F1D3F8BCC9
:104480005DF814FBC80B0220004800400169D0E928
:1044900001329A60D0E901235A604A68824201D110
:1044A00082684A60002202610868401E0860704706
:1044B00000F1080141604FF0FF328260C16001618C
:1044C00000210160704700210161704730B50C6820
:1044D000621C02D000F1080202E0026904E01A4600
:1044E00053681D68A542FAD953684B6099608A6089
:1044F000516008610168491C016030BD42684A6032
:1045000093688B6093685960916008610168491CE9
:1045100001607047502080F31188BFF34F8FBFF3C5
:104520006F8F09494868401C486001280AD1074834
:10453000006810F0FF0F05D040F2B91204A10FA0DF
:10454000FEF744BF704700007C00002004ED00E04F
:104550002E2E5C2E2E5C4672656552544F535C7055
:10456000726F745C525644535C41524D5F434D34FC
:10457000465C706F72742E63000000004572726FAB
:10458000723A25732C25640D0A00000010B5094C01
:104590006068002805D14FF4E07207A111A0FEF772
:1045A00015FF6068401E6060002801D180F311880B
:1045B00010BD00007C0000202E2E5C2E2E5C46726A
:1045C000656552544F535C70726F745C525644531D
:1045D0005C41524D5F434D34465C706F72742E6384
:1045E000000000004572726F723A25732C25640D2D
:1045F0000A00000070B500282AD008380446154D7E
:104600006068E968084205D14FF4A07212A11CA0AD
:10461000FEF7DCFE206828B140F241120EA118A07E
:10462000FEF7D4FE6068E968084211D02268002ACB
:104630000ED18843606000F089F9606869680844B9
:1046400068602046FFF7A4FDBDE8704000F0D2BDD1
:1046500070BD0000640000202E2E5C2E2E5C467281
:10466000656552544F535C70726F745C4D656D4D4F
:10467000616E675C686561705F342E6300000000E6
:104680004572726F723A25732C25640D0A00000082
:1046900006484FF47A710068B0FBF1F14FF0E0206A
:1046A000491E4161072101617047000000000020A0
:1046B00010B504460020002C10D00E48006B28B125
:1046C00040F2CF420CA113A0FEF780FE00F03EF9AD
:1046D00000212046FFF79EFB00F08CFD002807D14B
:1046E00010494FF080500860BFF34F8FBFF36F8FBA
:1046F00010BD0000880000202E2E5C2E2E5C46721D
:10470000656552544F535C7372635C7461736B7371
:104710002E6300004572726F723A25732C25640D6A
:104720000A00000004ED00E070B50446FFF7F2FE59
:10473000234D04B92C68201DFFF7A8FE58B9E06A84
:10474000204A00EB800152F8211021B9012181405B
:10475000286988432861A06A18B104F11800FFF79E
:1047600095FE686A401C68622868844207D1211D52
:104770001548FFF7C3FE6868401C686007E0A8683A
:10478000401EA8602046FFF72DFCFFF747FDFFF70E
:10479000FDFE6869002812D0286884420FD1286B7A
:1047A00028B140F2654209A10FA0FEF70FFE1249A1
:1047B0004FF080500860BFF34F8FBFF36F8F70BD15
:1047C00088000020E4080220A00B02202E2E5C2E80
:1047D0002E5C4672656552544F535C7372635C7411
:1047E00061736B732E6300004572726F723A2573AA
:1047F0002C25640D0A00000004ED00E001490120B1
:10480000C86170478800002070B504460D46002C32
:1048100005D140F6063208A10EA0FEF7D7FD1148DB
:10482000016820461831FFF751FE2846BDE8704068
:104830000121FFF7EFBA00002E2E5C2E2E5C46728F
:10484000656552544F535C7372635C7461736B7330
:104850002E6300004572726F723A25732C25640D29
:104860000A0000008800002010B50446002C05D185
:1048700040F6C13204A10BA0FEF7A8FD0D48016A65
:104880002160C068606010BD2E2E5C2E2E5C4672CA
:10489000656552544F535C7372635C7461736B73E0
:1048A0002E6300004572726F723A25732C25640DD9
:1048B0000A000000880000201CB515480024CDE93E
:1048C00000402346802213A1144800F089FB0128F0
:1048D0000AD0401C1BD102B040F28472BDE81040E7
:1048E0000FA116A0FEF772BD502080F31188BFF310
:1048F0004F8FBFF36F8F06484FF0FF312C38816226
:1049000001214161C460BDE81C4000F06BB81CBDD2
:10491000B400002049444C45000000004540000818
:104920002E2E5C2E2E5C4672656552544F535C737E
:1049300072635C7461736B732E6300004572726FF7
:10494000723A25732C25640D0A0000000248016BA1
:10495000491C0163704700008800002070B5144DA9
:10496000286B002802D00120E86170BD0020E861BA
:104970002869B0FA80F0C0F11F000E4E00EB8004F1
:1049800056F8240028B940F6F6220BA111A0FEF734
:104990001DFD06EB840041684968416000F1080292
:1049A000914201D1496841604068C068286070BD8B
:1049B00088000020E40802202E2E5C2E2E5C467219
:1049C000656552544F535C7372635C7461736B73AF
:1049D0002E6300004572726F723A25732C25640DA8
:1049E0000A0000001CB52F4C20682F49884205D1D1
:1049F00040F259122DA138A0FEF7E8FC20682A49A0
:104A0000491E884205D14FF4AD7228A132A0FEF7AD
:104A1000DDFC354C20780190FF202070207800903C
:104A20009DF800009DF8001000F0F000884205D0CD
:104A300040F273121DA128A0FEF7C8FC9DF80000EB
:104A40002A4A00F0500010700720906006E090683D
:104A5000401E90609DF80000400000909DF800000E
:104A60000006F4D4107A000200F4E060906001982F
:104A700020700C482030016841F470010160016829
:104A800041F070410160FFF703FE00205060FBF72A
:104A9000B7FB1748016841F040410160FBF7A0FBFC
:104AA00000201CBD00ED00E071C20F412E2E5C2ED7
:104AB0002E5C4672656552544F535C70726F745C25
:104AC000525644535C41524D5F434D34465C706FC7
:104AD00072742E63000000004572726F723A257383
:104AE0002C25640D0A00000000E400E07C0000209A
:104AF00034EF00E010B5502080F31188BFF34F8FE2
:104B0000BFF36F8F00F0AAFA18B104494FF080503C
:104B10000860002080F3118810BD000004ED00E063
:104B2000F8B505460E461746002D05D14FF4C47260
:104B30000BA112A0FEF74AFC86B105FB06F0483037
:104B4000FFF7E6FB04463CB104F148023B46314620
:104B500028460094FFF78AFA2046F8BD0020EEE7C9
:104B60002E2E5C2E2E5C4672656552544F535C733C
:104B700072635C71756575652E6300004572726FB6
:104B8000723A25732C25640D0A0000002DE9FF4FB1
:104B900083B004468A469B460026002C05D140F28D
:104BA000DC4250A156A0FEF711FCBAF1000F07D16C
:104BB000206C28B140F2DD424AA151A0FEF706FC6C
:104BC00000F03EFA38B9059828B14FF49C6245A12F
:104BD0004BA0FEF7FBFB4FF000094FF08057DFF8CA
:104BE0003081FFF797FCA56B6DB3E6685146204610
:104BF000FFF7B6F9BBF1000F13D0E660606A50B161
:104C000004F1240000F0A4FA28B1C8F80070BFF342
:104C10004F8FBFF36F8FFFF7B9FC012007B0BDE8DE
:104C2000F08F6D1EA56320690028F4D004F11000F8
:104C300000F08EFA0028EED0C8F80070BFF34F8F56
:104C4000BFF36F8FE7E7059808B126B107E0FFF7DC
:104C50009DFC0020E2E701A8FFF706FE0126FFF712
:104C600095FCFFF773FEFFF755FC94F94400401CD8
:104C700001D184F8449094F94500401C01D184F896
:104C80004590FFF783FC05A901A800F05DF958B134
:104C90002046FFF707FB00F0ADFA2046FFF7A2FA27
:104CA00000289ED00020B9E72046FFF79BFA90B17C
:104CB00004F124000599FFF7A7FD2046FFF7F2FA5B
:104CC00000F098FA00288CD1C8F80070BFF34F8F1D
:104CD000BFF36F8F85E72046FFF7E4FA00F08AFA0A
:104CE0007FE700002E2E5C2E2E5C467265655254C6
:104CF0004F535C7372635C71756575652E6300005C
:104D00004572726F723A25732C25640D0A000000FB
:104D100004ED00E070B504460D46002C05D140F2CC
:104D20001B121DA123A0FEF751FBFFF7F3FBD4E9F3
:104D30000F20216802FB001161600021A16321683E
:104D4000A160E06B2268216C401E00FB0121E16044
:104D50004FF0FF3084F8440084F8450004F110005F
:104D60004DB1FFF7A5FB04F12400FFF7A1FBFFF70E
:104D70000DFC012070BD21690029F8D000F0E8F990
:104D80000028F4D00F494FF080500860BFF34F8FD8
:104D9000BFF36F8FEBE700002E2E5C2E2E5C467269
:104DA000656552544F535C7372635C7175657565CC
:104DB0002E6300004572726F723A25732C25640DC4
:104DC0000A00000004ED00E02DE9FF4782B0044630
:104DD0008A461E460025002C05D140F2D9224EA15C
:104DE00054A0FEF7F3FABAF1000F07D1206C28B1F6
:104DF00040F2DA2248A14FA0FEF7E8FA022E08D1CD
:104E0000E06B012805D040F2DB2243A149A0FEF768
:104E1000DDFA00F015F938B9049828B140F2DE2225
:104E20003DA144A0FEF7D2FA4FF000094FF08057A1
:104E3000DFF81081FFF76EFBA06BE16B884205D3B2
:104E4000022E03D0049808B325B327E0324651461A
:104E50002046FFF799F8616A59B104F1240000F087
:104E600077F968B1C8F80070BFF34F8FBFF36F8F49
:104E700006E028B1C8F80070BFF34F8FBFF36F8F03
:104E8000FFF784FB012006B0BDE8F087FFF77EFB4B
:104E90000020F8E76846FFF7E7FC0125FFF776FBFF
:104EA000FFF754FDFFF736FB94F94400401C01D195
:104EB00084F8449094F94500401C01D184F8459051
:104EC000FFF764FB04A9684600F03EF830B12046C5
:104ED000FFF7E8F900F08EF90020D4E72046FFF74D
:104EE0008EF990B104F110000499FFF78DFC204673
:104EF000FFF7D8F900F07EF900289BD1C8F80070C0
:104F0000BFF34F8FBFF36F8F94E72046FFF7CAF9C7
:104F100000F070F98EE700002E2E5C2E2E5C46729B
:104F2000656552544F535C7372635C71756575654A
:104F30002E6300004572726F723A25732C25640D42
:104F40000A00000004ED00E070B504460D46002C98
:104F500005D140F6CB3216A11CA0FEF737FA2DB9C9
:104F600040F6CC3212A119A0FEF730FAFFF7D2FAC0
:104F70001A4AD06829684B1C08D02368126A9342E9
:104F800006D06268824203D801240DE000240BE0C1
:104F90006268801A884206D2081A28602046FFF705
:104FA00063FC002400E00124FFF7F0FA204670BD06
:104FB0002E2E5C2E2E5C4672656552544F535C73E8
:104FC00072635C7461736B732E6300004572726F61
:104FD000723A25732C25640D0A0000008800002019
:104FE0002DE9FF5F8146DDE90E788A4616469B462D
:104FF000B000FFF78DF9054628000AD04C20FFF7D6
:1050000087F904460CB1256304E02846FFF7F2FA5D
:1050100000E000248CB10020CDE90240CDE9007809
:105020005B46324651464846FFF72CF82046FEF7CD
:1050300029FF012004B0BDE8F09F4FF0FF30F9E7F1
:1050400005484169002903D0006B18B10020704762
:105050000120704702207047880000202DE9F041B0
:1050600000262E4F386B002808D0B869401CB86164
:10507000F86900B101263046BDE8F081FD686D1C7D
:10508000FD608DB9786B006828B140F6D91224A173
:105090002AA0FEF79BF9786BB96B7963B863386A1D
:1050A000401C3862FFF7BAF8B86ADFF8A080854282
:1050B0000DD3786B006838B1786BC068C4686068DD
:1050C00085420ED2B86202E04FF0FF30B862386815
:1050D000C06A00EB800058F820000128C8D90126DA
:1050E000C6E7201DFFF7D2F9A06A18B104F1180035
:1050F000FFF7CCF9E06A01213A6981401143396137
:1051000000EB800008EB8000211DFFF7F7F9E06A53
:105110003968C96A8842CCD30126CAE788000020D2
:105120002E2E5C2E2E5C4672656552544F535C7376
:1051300072635C7461736B732E6300004572726FEF
:10514000723A25732C25640D0A000000E408022041
:105150002DE9F041C068C468002C05D140F66132E9
:1051600016A11DA0FEF732F904F118000746FFF75B
:105170008DF91D4D2A6B012662B139461B48FFF798
:10518000BDF9E06A2968C96A884215D90120EE6133
:10519000BDE8F081201DFFF779F9E06A2A6906FA77
:1051A00000F111432961124900EB800001EB8000FE
:1051B000211DFFF7A3F9E4E70020E9E72E2E5C2E7E
:1051C0002E5C4672656552544F535C7372635C7417
:1051D00061736B732E6300004572726F723A2573B0
:1051E0002C25640D0A000000880000208C0B022092
:1051F000E40802202DE9F041002400272B4D286B04
:10520000002805D14FF4FD6229A130A0FEF7DEF899
:10521000FFF780F9286B401E2863286BF0BBA86855
:10522000E0B3DFF8B88001261DE0D8F80C00C468B0
:1052300004F11800FFF72AF9201DFFF727F9E06AAB
:105240002A6906FA00F111432961254900EB800023
:1052500001EB8000211DFFF751F9E06A2968C96A56
:10526000884200D3EE61D8F800000028DDD10CB1EF
:10527000FEF7D4FFAC6944B1FFF7F0FE00B1EE6178
:10528000641E002CF8D10020A861E86930B1012724
:10529000144938070860BFF34F8F00E001E0BFF307
:1052A0006F8FFFF773F93846BDE8F0818800002062
:1052B0002E2E5C2E2E5C4672656552544F535C73E5
:1052C00072635C7461736B732E6300004572726F5E
:1052D000723A25732C25640D0A0000008C0B022005
:1052E000E408022004ED00E00000000000000000DF
:1052F00000000000000000000000000000000000AE
:10530000000000000000000000000000000000009D
:10531000000000000000000000008001800180010A
:105320008001800180018001800180018001800175
:105330008001800100000000800180010000000069
:10534000000000000000000000000000CC00CC00C5
:10535000CC00CC00CC00CC0000000000000000001D
:10536000000000000000000000000000000000003D
:10537000000000000000000000000000000000002D
:1053800000000000600C600C600C30063006FE1F50
:10539000FE1F300638071803FE1FFE1F18031803F0
:1053A0008C018C018C01000000008000E003F80FEC
:1053B0009C0E8C1C8C188C009800F801E007800E65
:1053C000801C8C188C189C18B80CF00FE00380001F
:1053D00080000000000000000000000000000E1827
:1053E0001B0C110C11061106110311039B018E01F8
:1053F000C038C06C60446044304430441844186C79
:105400000C380000000000000000E001F003380745
:10541000180618063003F001F000F8009C310E3336
:10542000061E061C061C063FFC73F021000000004F
:105430000000000000000000000000000C000C0054
:105440000C000C000C000C0000000000000000002C
:10545000000000000000000000000000000000004C
:1054600000000000000000000000000200038001B6
:10547000C000C0006000600030003000300030002C
:10548000300030003000300060006000C000C0001C
:105490008001000300020000000020006000C00046
:1054A00080018001000300030006000600060006DC
:1054B00000060006000600060003000380018001CC
:1054C000C00060002000000000000000000000009C
:1054D00000000000C000C000D806F807E00130035B
:1054E000380700000000000000000000000000007D
:1054F00000000000000000000000000000000000AC
:105500000000000080018001800180018001FC3FDB
:10551000FC3F8001800180018001800100000000CB
:10552000000000000000000000000000000000007B
:10553000000000000000000000000000000000006B
:105540000000000000000000000080018001000158
:1055500000018000000000000000000000000000CA
:10556000000000000000000000000000000000003B
:10557000E007E0070000000000000000000000005D
:10558000000000000000000000000000000000001B
:10559000000000000000000000000000000000000B
:1055A00000000000000000000000C000C00000007B
:1055B00000000000000000000000000C000C0006CD
:1055C0000006000600030003000380038001800141
:1055D0008001C000C000C00060006000000000004A
:1055E00000000000000000000000E003F007380E9B
:1055F000180C0C180C180C180C180C180C180C188B
:105600000C180C18180C380EF007E003000000000E
:105610000000000000000000000000018001C00147
:10562000F0019801880180018001800180018001E2
:105630008001800180018001800180010000000064
:1056400000000000000000000000E003F80F180C4C
:105650000C180C1800180018000C0006000380013C
:10566000C000600030001800FC1FFC1F000000009C
:1056700000000000000000000000E001F807180E24
:105680000C0C0C0C000C0006C003C007000C00182A
:1056900000180C180C18180CF807E00300000000A4
:1056A00000000000000000000000000C000E000FD1
:1056B000000F800DC00C600C600C300C180C0C0C32
:1056C000FC3FFC3F000C000C000C000C0000000034
:1056D00000000000000000000000F80FF80F1800A4
:1056E00018000C00EC03FC071C0E001C001800182E
:1056F00000180C181C0C180EF807E003000000003E
:1057000000000000000000000000C007F00F381C7F
:10571000181818000C00CC03EC0F3C0E1C1C0C18C5
:105720000C180C18181C380EF007E00300000000DD
:1057300000000000000000000000FC1FFC1F000C27
:1057400000060006000380038001C001C000E000E5
:105750006000600070003000300030000000000089
:1057600000000000000000000000E003F007380E19
:10577000180C180C180C3806F007F007180C0C1849
:105780000C180C180C18380CF80FE003000000007F
:1057900000000000000000000000E003F007380EE9
:1057A0001C0C0C180C180C181C1C381EF81BE019CB
:1057B0000018000C000C1C0EF807F001000000009F
:1057C00000000000000000000000000000000000D9
:1057D00000000000800180010000000000000000C7
:1057E00000000000000000008001800100000000B7
:1057F00000000000000000000000000000000000A9
:105800000000000080018001000000000000000096
:105810000000000000000000800180010001000184
:1058200080000000000000000000000000000000F8
:1058300000000000000000000010001C800FE003CA
:10584000F8001800F800E003800F001C00100000B2
:105850000000000000000000000000000000000048
:105860000000000000000000F81F00000000000021
:10587000F81F000000000000000000000000000011
:105880000000000000000000000000000000000018
:10589000000000000000000008003800F001C00710
:1058A000001F0018001FC007F001380008000000AA
:1058B00000000000000000000000E003F80F180CDA
:1058C0000C180C180018000C000600038001C00022
:1058D000C000C00000000000C000C00000000000C8
:1058E000000000000000000000000000E0071818A1
:1058F0000420C229224A11440944094409440922C6
:105900001113E20C024004201818E0070000000008
:105910000000000000000000000080038003C006BB
:10592000C006C006600C600C301830183018F83F04
:10593000F83F1C700C600C6006C006C00000000040
:1059400000000000000000000000FC03FC0F0C0C35
:105950000C180C180C180C0CFC07FC0F0C180C3055
:105960000C300C300C300C18FC1FFC070000000041
:1059700000000000000000000000C007F01F3838E1
:105980001C300C70066006000600060006000600CB
:10599000060006600C701C30F01FE00700000000DD
:1059A00000000000000000000000FE03FE0F060ED5
:1059B0000618061806300630063006300630063067
:1059C000063006180618060EFE0FFE030000000043
:1059D00000000000000000000000FC3FFC3F0C0045
:1059E0000C000C000C000C00FC1FFC1F0C000C0039
:1059F0000C000C000C000C00FC3FFC3F0000000001
:105A000000000000000000000000F83FF83F180010
:105A10001800180018001800F81FF81F18001800C8
:105A200018001800180018001800180000000000E6
:105A300000000000000000000000E00FF83F3C788C
:105A40000E6006E007C00300030003FE03FE03C070
:105A500007C006C00EC03CF0F83FE00F0000000099
:105A6000000000000000000000000C300C300C3082
:105A70000C300C300C300C30FC3FFC3F0C300C3048
:105A80000C300C300C300C300C300C3000000000AE
:105A90000000000000000000000080018001800183
:105AA00080018001800180018001800180018001EE
:105AB00080018001800180018001800100000000E0
:105AC00000000000000000000000000600060006C4
:105AD0000006000600060006000600060006000696
