:020000040800F2
:100000003009022079020008DB170008990E000869
:10001000D917000805080008B924000800000000EE
:10002000000000000000000000000000C101000806
:10003000610900080000000015020008FD21000809
:10004000930200089302000893020008930200083C
:10005000930200089302000893020008930200082C
:10006000930200089302000893020008930200081C
:10007000930200089302000893020008930200080C
:1000800093020008930200089302000893020008FC
:1000900093020008930200089302000893020008EC
:1000A00093020008930200089302000893020008DC
:1000B00093020008930200089302000893020008CC
:1000C00093020008930200089302000893020008BC
:1000D00093020008AD22000893020008DD22000808
:1000E000930200089302000893020008930200089C
:1000F000930200089302000893020008930200088C
:10010000930200089302000893020008930200087B
:10011000930200089302000893020008930200086B
:10012000930200089302000893020008930200085B
:10013000930200089302000893020008930200084B
:10014000930200089302000893020008930200083B
:10015000930200089302000893020008930200082B
:10016000930200089302000893020008930200081B
:10017000930200089302000893020008930200080B
:1001800093020008930200089302000893020008FB
:1001900093020008930200089302000893020008EB
:1001A000930200089302000893020008DFF80CD0C5
:1001B00000F07AFA00480047B92F00083009022001
:1001C0002A4B19680868B0E8F04F80F30988BFF33C
:1001D0006F8F4FF0000080F311887047000000001F
:1001E00006480068006880F3088862B661B6BFF30D
:1001F0004F8FBFF36F8F00DF00BF00BF08ED00E03F
:10020000DFF80C00016841F470010160704700BF25
:1002100088ED00E0EFF30980BFF36F8F134B1A688E
:100220001EF0100F08BF20ED108A20E9F04F10607B
:1002300008B44FF0500080F31188BFF34F8FBFF325
:100240006F8F03F023FB4FF0000080F3118808BC90
:1002500019680868B0E8F04F1EF0100F08BFB0EC46
:10026000108A80F30988BFF36F8F70475C0000200D
:10027000EFF30580704700000648804706480047B6
:10028000FEE7FEE7FEE7FEE7FEE7FEE7FEE7FEE746
:10029000FEE7FEE751220008AD010008421C10F8FD
:1002A000011B0029FBD1801A704730B50B4601466F
:1002B00000202022012409E021FA02F59D4205D305
:1002C00003FA02F5491B04FA02F52844151EA2F1AF
:1002D0000102F1DC30BD2DE9F05F054600209246B9
:1002E0009B4688460646814640241BE028464146F8
:1002F0004746224600F0F9F953465A46C01A914142
:1003000010D311461846224600F0E0F92D1A67EB8B
:1003100001084F4622460120002100F0D7F917EBD3
:1003200000094E41201EA4F10104DFDC484631469D
:100330002A464346BDE8F09F2DE9FE4F804681EAFC
:100340000300C00F0C46009021F0004123F000454F
:10035000B8EB0200A94105D24046214690461C4612
:100360000B46024623F00040104347D0270DC7F349
:100370000A00C3F30A510290401A019040286BDA38
:10038000C3F3130040F4801B0098924620B1002371
:10039000D2EB030A63EB0B0B01985946C0F1400204
:1003A000504600F093F906460D4650465946019ACC
:1003B00000F0ABF910EB08006141002487EA11520C
:1003C00084EAE7731A4340D0009A62B3019A012A83
:1003D0004FEA075215DC001B61EB02014FF00042AF
:1003E00002EA0752CDE90042001C41F58011324675
:1003F0002B4600F0ABF903B0BDE8F08F4046214634
:10040000F9E7001B61EB0201001C41F580130018A5
:100410005B412018A2F5001747EB030140EAD570B5
:10042000B6196D4111E06D084FEA360645EAC07510
:100430004FEA0752001B61EB0201001C41F58011DD
:1004400049084FEA30000019514132462B4603B0AB
:10045000BDE8F04F00F06BB9009801224000002386
:10046000D0EB020263EBE073009821464FEAE074A0
:10047000B8EB000061EB0401E9E783F000435BE7C0
:1004800081F0004158E72DE9FE4F81EA030404F0B2
:10049000004421F0004100944FF0000B23F0004392
:1004A00050EA01045ED052EA03045BD0C3F30A545D
:1004B000C1F30A552C44A4F2F3340194A0FB025476
:1004C000C1F3130141F48011C3F3130343F4801308
:1004D00001FB024400FB034E840A970A44EA81545C
:1004E00047EA8357A4FB076802958D0A05FB078539
:1004F0004FEA932C04FB0C542705029D4FEA065843
:1005000047EA1637B5EB08056EEB070C870E920E1F
:1005100047EA811742EA8312A7FB0201B6EB0B01FF
:1005200064EB00042B0D43EA0C335E1844EB1C50C3
:10053000DA465146E7FB0201C5F313044FEA0B33D9
:1005400043EA14534FEA0432019C43EA0603A4F140
:100550000C040294009CCDE900B400F0F7F803B05D
:10056000BDE8F08F00200146F9E72DE9F04D81EA62
:10057000030404F0004B21F0004514464FF0000A3C
:1005800023F0004150EA050220D054EA01021DD0B8
:10059000C5F30A570246C5F31303C1F31300C1F3B1
:1005A0000A5640F4801543F48013A7EB0608101B8D
:1005B000D64608F2FD3873EB050002D308F10108B6
:1005C00001E092185B41B8F1000F03DA0020014608
:1005D000BDE8F08D00204FF48011064684460EE001
:1005E000171B73EB050705D3121B63EB05030643CB
:1005F0004CEA010C49084FEA300092185B4150EA7E
:100600000107EDD152EA030012D082EA040083EA26
:100610000501084305D0101BAB4106D2012200237F
:1006200006E000224FF0004302E06FF00102531099
:100630001AEB06004CEB085110EB0A0041EB0B01E2
:10064000BDE8F04D00F073B8C1F30A52C1F31301D5
:1006500040F2FF3341F480119A4202DA0020014651
:10066000704740F233439A42A2F2334202DC5242D4
:1006700000F03BB800F02AB830B5041E71F1000458
:1006800004DB4FF00044404264EB0101141E73F19F
:10069000000405DB1C464FF00043524263EB0403A9
:1006A000994208BF904230BD064C074D06E0E06815
:1006B00040F0010394E8070098471034AC42F6D3A9
:1006C000FFF778FD4850000868500008202A04DB36
:1006D000203A00FA02F1002070479140C2F1200355
:1006E00020FA03F3194390407047202A04DB203A94
:1006F00021FA02F00021704721FA02F3D040C2F142
:1007000020029140084319467047202A06DBCB1788
:10071000203A41FA02F043EAE07306E041FA02F3BC
:10072000D040C2F12002914008431946704710B5ED
:10073000141E73F1000408DA401C41F10001921804
:100740005B411A4301D120F0010010BD2DE9F04DAD
:1007500092469B4611B1B1FA81F202E0B0FA80F202
:1007600020329046FFF7B2FF04460F4640EA0A00E7
:1007700041EA0B0153465A46084313D0114653EA47
:10078000010019D0C8F140025046FFF7AEFF054600
:100790000E46504659464246FFF798FF084305D09B
:1007A000012004E020463946BDE8F08D00200543D5
:1007B00046EAE0762C4337430A986305E40AA0EB47
:1007C00008000022FD0A44EA47540A3002D50020FE
:1007D0000146E9E7010510196941DDE908450019FD
:1007E0006941BDE8F04DA2E710B502F0C5FE04482E
:1007F000006802F08FFFBDE8104002F0F9BE000073
:1008000024000020FEE700000648016841F08071E6
:100810000160054800214160016841F0010101606B
:1008200070470000FCED00E0001000E00148406867
:1008300070470000001000E01CB50121102001F0FD
:1008400031F80420009001208DF8040000218DF87B
:1008500006108DF8070002208DF805006946024851
:1008600000F008FA1CBD00000010024010B5012184
:10087000CC05204601F024F82046BDE810400021B8
:1008800001F01EB801460020024A52680A4200D018
:100890000120704700B0024030B500242A4B19688F
:1008A0002A4A114019601968026811431960596B8E
:1008B00021F007015963596B42681143596341683C
:1008C000002928D001292DD0022930D0032933D086
:1008D000C1680A010169090244692403856821434A
:1008E00015430D43996B0D439D638169D963196C61
:1008F0006FF30D011964196CC26911431964818C7D
:1009000009045A6C02F040425A645A6C006A02436D
:100910000A435A6430BDC1680A02018A0904047D91
:100920002406DBE7C1680A02018A0904D6E7C16828
:100930004A010169C902D1E7C1684A010169890216
:100940004469E403CAE7000000B00240FCE0FCFF99
:100950000248016841F001010160704700B00240A7
:100960007047000070B586B00121022000F09AFFA8
:100970000121880400F0C0FF00248DF816400120FA
:100980008DF8170002258DF815508DF8145080024F
:1009900004901C4E04A9304600F06CF98DF81450F8
:1009A000A902049104A9304600F064F907220B2142
:1009B000304600F09DF907220A21304600F098F9F0
:1009C0004FF4E1300090ADF80440ADF80640ADF8CA
:1009D0000840ADF80C400C20ADF80A000A4C6946FE
:1009E000204601F003FD00F00CFF012240F22551EA
:1009F000204601F0E0FC0121204601F0A9FC06B0F0
:100A000070BD0000000402400048004070B586B090
:100A10000121084600F046FF0121102000F07AFF76
:100A200000248DF8164001208DF8170002258DF85E
:100A300015508DF81450400204901C4E04A9304605
:100A400000F018F98DF814506902049104A9304699
:100A500000F010F907220A21304600F049F9072278
:100A60000921304600F044F94FF4E1300090ADF830
:100A70000440ADF80640ADF80840ADF80C400C203D
:100A8000ADF80A000A4C6946204601F0AFFC00F0C0
:100A9000A5FE012240F22551204601F08CFC0121E7
:100AA000204601F055FC06B070BD00000000024079
:100AB00000100140F1B50024FFF7A6FE0F481049D1
:100AC0000068B0FBF1F600984643FFF7AFFE05461D
:100AD00002F0D4FEFFF7AAFEA842FBD003D9A0EB98
:100AE00005010C4403E06FEA050101440C4405468E
:100AF000B442EFD3BDE8F84003F044B90000002051
:100B000040420F0000224FF0204310280AD0B0F5D9
:100B1000807F09D0B0F5805F09D0D3F858018143B8
:100B200009D107E0586EFAE7D3F88400F7E7D3F865
:100B3000A400F4E70122104670470000D0E900123B
:100B400011438268C068521E520142EA40200143AC
:100B50000148016070470000500100A070B50468B2
:100B6000A100A1F1C041D1F84011CE0BF603D0E9AC
:100B700001121143D0E903231A4311434269C369A7
:100B800011438269056A11431943426A294311439B
:100B900031434FF02046002C3CD0D6F840416FF353
:100BA0000E042B4322431343C6F8403102689200DF
:100BB000A2F1C042C2F84011016871B38900A1F1ED
:100BC000C041D1F8481101F07043816A0A684C684D
:100BD000521E641E42EA04148A68521E44EA022429
:100BE0000A8A521E44EA02421A43D6F8483103F0F8
:100BF0007043CC68898A641E2403491E44EA01516B
:100C00001943C6F8481100688000A0F1C040C0F840
:100C1000482170BDC6F84011CEE7FFE7D6F848116D
:100C200001F07041806A02684368521E5B1E42EA0E
:100C300003138268521E43EA0223C268521E43EA2B
:100C40000233028A521E43EA0243828A007E521E07
:100C500043EA0252401E42EA00600843C6F84801D7
:100C600070BD000002490A6842EA4000086070470F
:100C7000540100A02DE9F041002201274FF0030CA0
:100C800007FA02F50B682B40AB422CD106685300E3
:100C90000CFA03F4A64306600E79D0F800809E405B
:100CA00046EA080606600E79012E01D0022E12D106
:100CB0008668A64386604E79D0F808809E4046EA52
:100CC000080686604668AE43466045688E79964061
:100CD000B6B235434560C568A543C560CC799C4034
:100CE000C3681C43C460521C102AC9D3BDE8F081FC
:100CF00010B54B07DB0E9A40C90800EB8100016A72
:100D00000F249C40A1430162016A1143016210BD9E
:100D10000183704770B505460C46104E30780028A8
:100D200003D101F015F901203070220AE1B2A13A95
:100D3000C2EB021000EB421001EB4001A13901EBC4
:100D4000C1008101C81701EB5070C110482201F5A4
:100D5000AA01284601F0D6F8002070BD340000201A
:100D600010B54FF4407000F093FDFFF74FFE18A050
:100D700001F090FCFFF7F6FD1AA001F08BFC00F0EB
:100D800029FC1EA001F086FC00F088F820A001F0EC
:100D900081FC01F03DFA23A001F07CFC00F014FB83
:100DA00000F052FB012000F043FC24A001F072FC93
:100DB000FFF742FD26A001F06DFC01F07FFB29A0AA
:100DC00001F068FCBDE810402CA001F063BC0000FD
:100DD00055534152545F436F6E66696709094F4B23
:100DE000210D0A005553415254335F436F6E6669BB
:100DF0006709094F4B210D0A000000004C45445F74
:100E0000436F6E66696709094F4B210D0A000000A8
:100E10004B45595F436F6E66696709094F4B210D5A
:100E20000A0000005359535449434B5F436F6E66A9
:100E3000696709094F4B210D0A0000004C43445FCC
:100E4000436F6E66696709094F4B210D0A00000068
:100E500044485431315F436F6E66696709094F4BEF
:100E6000210D0A00455350383236365F436F6E66A7
:100E7000696709094F4B210D0A000000414C4C5F86
:100E8000436F6E66696709095245414459210D0A4D
:100E90000D0A0D0A00000000FEE700001CB501214C
:100EA000052000F0FFFC0120009000208DF80400D8
:100EB0008DF80700064C69462046FFF7DBFE4FF42D
:100EC0000051009169462046FFF7D4FE1CBD00008A
:100ED00000080240F0B58BB00446E50A04F01F0795
:100EE000C4F34516FFF7C2FC4FF4403001900220D6
:100EF000029004960397059520040012000E0690B8
:100F00000C4C60680790002008904FF4F070099036
:100F10004FF448700A9001A8FFF7BEFCFFF718FDD8
:100F20000220FFF7AFFC0028FAD0208800F034FB45
:100F30000BB0F0BDA00000202DE9F04393B04FF4BA
:100F4000C86300FB03F50C46114601A8FFF7E2FE5B
:100F50000023174F0DF1040C786803EB43011CF8D4
:100F60000120120261444E78164336028A783243D9
:100F700000213E88B7F802805FEA022904D500EB21
:100F8000440929F8056003E000EB440929F80580CD
:100F9000641C5200491CC9B21829EDD304F54274EF
:100FA0005B1CDBB2182BD8D313B0BDE8F083000074
:100FB000A000002010B4203AD3B2054AD2681468C9
:100FC000D2885A4304EB420210BC00F033B8000050
:100FD000A00000202DE9F04180460D460024144E6B
:100FE0004FF4487717E07E2A09D821464046FFF79C
:100FF000E1FFF0688088204484B26D1C0BE02988F2
:10100000080200EB112082B221464046FFF794FF10
:101010001834A4B2AD1CBC4208D22A78002A05D0EC
:10102000F0688188081980B28842DCD2BDE8F0817E
:10103000A00000202DE9F04300254FF4C863584379
:10104000DFF87890D9F804C0D9F80C7030E00023AC
:1010500026E00C26B4FBF6F6F6004FF0800808FAFE
:1010600006F832F8156048FA03F818EA060F01D1BD
:101070000C2C08D94FF0010808FA03F816EA080FFB
:1010800007D10C2C05D90CEB4106B9F802403452BB
:1010900004E00CEB4106B9F800403452491C5B1CDB
:1010A000BC889C42D5D8BB88C3F5487319446D1CD5
:1010B000FB88AB42CBD8BDE8F0830000A000002045
:1010C0002DE9FC5F012140F2FF1000F0EBFB4FF037
:1010D0000408CDF8008002208DF805008DF804008A
:1010E00000208DF806008DF807006946AA48FFF732
:1010F000C1FD0E220221A848FFF7FAFD4FF00809B2
:10110000CDF800906946A448FFF7B4FD0E220321F4
:10111000A148FFF7EDFD4FF4807ACDF800A06946B5
:101120009D48FFF7A7FD0E2208219B48FFF7E0FD31
:101130000124009469469948FFF79CFD092200218B
:101140009648FFF7D5FD4FF4006BCDF800B0694627
:101150009348FFF78FFD0E220B219148FFF7C8FD42
:101160002003009069468E48FFF784FD0E220C2173
:101170008B48FFF7BDFD0220009069468748FFF7C6
:1011800079FD092201218548FFF7B2FD4025009530
:1011900069468448FFF76EFD0E2206218148FFF75D
:1011A000A7FD2020009069467F48FFF763FD0E22CF
:1011B00005217D48FFF79CFD009569467A48FFF7B9
:1011C00059FD0E2206217848FFF792FD600300903A
:1011D00069467148FFF74EFD0E220D216E48FFF75C
:1011E00087FDA602009669466E48FFF743FD092277
:1011F0000A216C48FFF77CFDE003009069466648D1
:10120000FFF738FD0E220F216348FFF771FD0094B0
:1012100069466648FFF72EFD0E2200216348FFF75E
:1012200067FD8027009769466148FFF723FD0E227E
:1012300007215F48FFF75CFDCDF8008069465B48F9
:10124000FFF718FD0E2202215848FFF751FD4FF01D
:101250001008CDF8008069465348FFF70BFD0E22B9
:1012600004215148FFF744FD2003009069464D4892
:10127000FFF700FD0E220C214A48FFF739FD0095CB
:101280004C4D69462846FFF7F5FC0E2206212846FC
:10129000FFF72EFDCDF800B069464248FFF7EAFCA3
:1012A0000E220B213F48FFF723FDCDF80080694651
:1012B0003E48FFF7DFFC0E2204213C48FFF718FDF3
:1012C000CDF8009069463648FFF7D4FC0E22032182
:1012D0003348FFF70DFDCDF800A069462F48FFF712
:1012E000C9FC0E2208212D48FFF702FD4FF40079BA
:1012F000CDF8009069462948FFF7BCFC0E22092171
:101300002648FFF7F5FC009769462648FFF7B2FC30
:101310000E2207212348FFF7EBFC0096694623487D
:10132000FFF7A8FC0E220A212048FFF7E1FCCDF8C8
:10133000009069461D48FFF79DFC0E2209211B48BD
:10134000FFF7D6FC00961C4E69463046FFF792FC2C
:101350000E220A213046FFF7CBFCCDF80080022098
:101360008DF805008DF8044000208DF806008DF8FA
:10137000074069462846FFF77DFC009769462846E6
:10138000FFF778FC10212846FFF7C2FC8021284691
:10139000FFF7BEFCBDE8FC9F001C024000040240B9
:1013A00000000240001802400010024000200240ED
:1013B00000080240000C0240001402400148C068CE
:1013C00070470000A000002010B590B001218806F1
:1013D00000F0A0FA0121C80500F064FAFFF770FEE2
:1013E00000F0F0FC002401940294039404940D9402
:1013F0000E940F94042207214FF4C07000F016FBE6
:101400004FF4803000F002FB012000F009FB3D208A
:1014100000F0E0FA0028FAD0059406942E200790F8
:101420001720089040F24E30099040F2F7100A90D1
:1014300040F262300B9040F20D200C9001A800F0B9
:1014400017F910B010BD000030B591B02F200190F9
:1014500040F24E3002901820039040F2F7100490B2
:1014600003240594FF20069000200790089009901F
:101470000A904FF480600B9005200C9040F243607E
:101480000E90C01E0F904FF4F07010904FF050402F
:101490000D90144D01A9284600F04CF9059412490D
:1014A0000D9161020B9107210C910E4C01A9803422
:1014B000204600F03FF9012000F088F9012128467C
:1014C00000F02CF90121204600F028F9012000F05D
:1014D0007DF9064800F048F8012000F0B9F811B095
:1014E00030BD00008468014000B80BD02C00002003
:1014F00010B5002000F03EF84FF400442046FFF7FE
:10150000E9FC012000F036F8FF2000F04BF82146FE
:1015100048F21F0000F022F82046FFF7DBFCFFF73F
:101520004DFFC088BDE8104001A1FFF753BD00008A
:1015300044485431312074656D7065726174757200
:101540006520262068756D69646974792064657406
:101550006563742064656D6F00000000014A1080AF
:1015600051807047A00000200149C860704700000A
:10157000A00000200649002804D006484860012049
:10158000886070474FF05040486000208860704786
:10159000A000002000B80BD001490880704700006F
:1015A000A000002010B509498968002908D001462B
:1015B000074800F0B1F8BDE81040012000F006B97E
:1015C00001460348803800F0A7F8F4E7A0000020A7
:1015D000046901402DE9FC410121802000F062F9FD
:1015E0004FF48064009401208DF8040000218DF8F0
:1015F00006108DF807008DF805100C4F6946384627
:10160000FFF738FB6600009669463846FFF732FB65
:10161000A500009569463846FFF72CFB03481830B3
:10162000048006800580BDE8FC810000001C0240AB
:101630000649002804D0086840F00100086070479F
:10164000086820F001000860704700001868014039
:101650000649002804D0086840F4803008607047CC
:10166000086820F480300860704700001868014066
:1016700030B5264A136826490B401360038A1B04C1
:10168000146845692C431C431460121D13680B40F9
:101690001360038B1B041468C5692C431C4314603E
:1016A000121D13680B401360038C1B041468456AF9
:1016B0002C431C431460121D13680B401360018DF2
:1016C00009041368C46A23430B431360111D0A689D
:1016D000104B1A400A60D0E900231A43D0E90234C3
:1016E00023431A430B681A430A60416B0A02018EB6
:1016F0000B04064924310C6804F07F440C600C682C
:10170000806B134304431C430C6030BD08680140E8
:1017100000F800F08F88FE0F41617047002904D067
:10172000016841F0010101607047016821F0010189
:101730000160704770B58A881204436803F47043EF
:1017400043600B68134343608A891204836803F47F
:10175000704383608B6813438360026922F0070241
:1017600002610A690261CA6913020A8C120491F8C3
:10177000244024068569002585618E6922431E4325
:1017800016438661426922F0FF0242614A69426162
:10179000C26940F207739A43C261D1E90A231A432E
:1017A000C261826A85620A6B82620A8F1204C36A0E
:1017B00003F0E023C3624B6B1343C362026B6FF30E
:1017C0000A020263C96B016370BD00000149086031
:1017D0007047000024680140FEE7704708B54FF4E9
:1017E000A06000F055F825208DF8000001208DF84C
:1017F00001008DF802008DF80300684600F014F82F
:1018000008BD08B54FF4A06000F042F827208DF81D
:10181000000001208DF801008DF802008DF8030012
:10182000684600F001F808BD30B50F23C2780125E5
:101830000178002A1FD0154A126802F4E062C2F54E
:10184000E062C2F30722C2F10404D3404278A2400E
:1018500084781C401443220101F1E02181F8002426
:10186000007800F01F018D404009800000F1E02069
:10187000C0F8005130BD01F01F00854048098000CC
:1018800000F1E020C0F8805130BD00000CED00E018
:101890000249084302490860704700000000FA0549
:1018A0000CED00E0054A002903D0116801431160E6
:1018B0007047116881431160704700003038024062
:1018C000054A002903D0116801431160704711686F
:1018D000814311607047000010380240054A00291A
:1018E00003D0116801431160704711688143116092
:1018F0007047000038380240054A002903D01168BB
:101900000143116070471168814311607047000006
:1019100040380240054A002903D011680143116094
:1019200070471168814311607047000044380240DD
:1019300070B5244B196801F00C01234C00291ED00E
:10194000224E04291DD008291DD00460196801F019
:10195000F00109091E4A545C0168E14041601C68BD
:1019600004F4E054A40A145D21FA04F484601B68B2
:1019700003F460435B0BD25CD140C16070BD046076
:10198000E4E70660E2E70F4A121F1168C1F38055D1
:10199000116801F03F0135B1B6FBF1F11468C4F3F1
:1019A0008814614305E0B4FBF1F11468C4F38814B2
:1019B00061431268C2F30142521C5200B1FBF2F1C2
:1019C0000160C3E7083802400024F40040787D013C
:1019D0001400002002460020510901290BD00229E1
:1019E0000DD00949096802F01F02012393400B4200
:1019F00000D001207047044974390968F3E70249AF
:101A0000091F0968EFE7000074380240034A1168B3
:101A100021F4403101431160704700008C380240CE
:101A2000014908677047000000004742800140EA12
:101A30000160024940EA027008607047883802403D
:101A40002DE9FC5F0121FC20FFF72CFF02208DF81F
:101A500004008DF8050000208DF806008DF80700C1
:101A6000012000906946D148FFF704F90C220021BB
:101A7000CE48FFF73DF9022000906946CB48FFF7BA
:101A8000F9F80C220121C948FFF732F9042000902F
:101A90006946C648FFF7EEF80C220221C348FFF75B
:101AA00027F9082000906946C048FFF7E3F80C22A8
:101AB0000321BE48FFF71CF9102700976946BB4871
:101AC000FFF7D8F80C220421B848FFF711F94FF0BE
:101AD0002008CDF800806946B448FFF7CBF80C2207
:101AE0000521B248FFF704F94FF48059CDF8009072
:101AF0006946AE48FFF7BEF80C221146AB48FFF727
:101B0000F7F84FF4005ACDF800A06946A748FFF750
:101B1000B1F80C220D21A548FFF7EAF8BD020095A7
:101B20006946A248FFF7A6F80C220E219F48FFF74E
:101B3000DFF86C00009469469C48FFF79BF80C2284
:101B40000F219A48FFF7D4F8012000906946984881
:101B5000FFF790F80C2200219548FFF7C9F8022002
:101B6000009069469248FFF785F80C2201219048C1
:101B7000FFF7BEF8009569468E48FFF77BF80C2208
:101B80000E218C48FFF7B4F8009469468948FFF7A6
:101B900071F80C220F218748FFF7AAF80120009066
:101BA00069468448FFF766F80C2200218148FFF758
:101BB0009FF80220009069467E48FFF75BF80C22F0
:101BC00001217C48FFF794F84FF0800BCDF800B06E
:101BD00069467948FFF74EF80C2207217648FFF74F
:101BE00087F8E611009669467348FFF743F80C2220
:101BF00008217148FFF77CF8A011009069466E48F3
:101C0000FFF738F80C2209216B48FFF771F86011D3
:101C1000009069466848FFF72DF80C220A216648B3
:101C2000FFF766F82011009069466348FFF722F835
:101C30000C220B216048FFF75BF8CDF80090694655
:101C40005D48FFF717F80C2211465B48FFF750F884
:101C5000CDF800A069465848FFF70CF80C220D217A
:101C60005548FFF745F8009569465348FFF702F8D5
:101C70000C220E215048FFF73BF8009469464E486D
:101C8000FEF7F8FF0C220F214B48FFF731F80096C2
:101C900069464848FEF7EEFF0C2208214548FFF749
:101CA00027F8A011009069464248FEF7E3FF0C2296
:101CB00009214048FFF71CF86011009069463D4833
:101CC000FEF7D8FF0C220A213A48FFF711F840200E
:101CD00000903A4D69462846FEF7CCFF0C220621BB
:101CE0002846FFF705F8009769463148FEF7C2FF1E
:101CF0000C2204212E48FEF7FBFFCDF80080694638
:101D00002B48FEF7B7FF0C2205212948FEF7F0FF0C
:101D1000012000902A4F69463846FEF7ABFF0C229F
:101D200000213846FEF7E4FF2011009069461F4865
:101D3000FEF7A0FF0C220B211C48FEF7D9FF0094F0
:101D400069461B48FEF796FF0C220F211848FEF744
:101D5000CFFF009669461648FEF78CFF0C2208213B
:101D60001348FEF7C5FFCDF800B069462846FEF7D8
:101D700081FF0C2207212846FEF7BAFF02200090BF
:101D800069460D48FEF776FF0C2201210A48FEF74E
:101D9000AFFF0120009069460748FEF76BFF0C2259
:101DA00000210548FEF7A4FFBDE8FC9F0014024097
:101DB00000180240000C024000100240001C0240CB
:101DC0000008024000B593B0FFF73AFE0121084633
:101DD000FFF784FD02200190072202920421039163
:101DE0000492059006900790012008900020099029
:101DF0000A9110210B9140210C914FF4C0710D916B
:101E00000E904FF400610F9110908800119001A87E
:101E1000129008A8FEF7A2FE00F002F813B000BD71
:101E20002DE9FF4101250095082601960295002421
:101E3000039420210120FEF765FE0028F9D16846B1
:101E4000FEF77CFE0A2000F041F802200090019687
:101E50000295039420210120FEF754FE0028F9D1B9
:101E60006846FEF76BFE0320009001960427029758
:101E7000039420210120FEF745FE0028F9D1684691
:101E8000FEF75CFE20210120FEF73CFE0028F9D180
:101E90006846FEF753FE40F2312000970196029506
:101EA000039020210120FEF72DFE0028F9D168467D
:101EB000FEF744FE40F26A50FEF7D4FE20210120D6
:101EC000FEF720FE0028F9D1BDE8FF8101B581B001
:101ED000054901984843009002E00098401E009098
:101EE00000980028F9D10CBDA0860100002904D07B
:101EF000018841F0400101807047018821F04001D4
:101F0000018070472DE9F04104460F4615460F4801
:101F100040260680032000F087F8C7F3074000F052
:101F200083F8C7F3072000F07FF8F8B200F07CF8E0
:101F300004E0FF2000F078F804F8010B6D1EADB24C
:101F4000F7D20248801E0680BDE8F0811A140240D4
:101F50002DE9F04387B001212020FFF7A3FC0121E8
:101F60000805FFF7D7FCDFF8B8900522072148469F
:101F7000FEF7BEFE052208214846FEF7B9FE0522FF
:101F800009214846FEF7B4FE8020009002258DF816
:101F900005508DF8045000248DF806408DF8074058
:101FA00069464846FEF766FEE801009069464846E5
:101FB000FEF760FE4FF40078CDF800806946484691
:101FC000FEF758FE4027009701268DF80460694609
:101FD0004846FEF74FFE124818300780ADF808401B
:101FE0004FF48270ADF80A00ADF80C40ADF80E5019
:101FF000ADF81060ADF81280ADF81440ADF81640A1
:102000000720ADF81800074C02A9204600F04FF851
:1020100001212046FFF76AFF07B0BDE8F08300000A
:1020200000140240005001402DE9F0410746184CD1
:102030004FF480552560174E09E02068411E21604D
:1020400005D2002000F050F8C0B2BDE8F0810221B6
:10205000304600F021F80028EFD03946304600F035
:1020600024F8256008E021684A1E226004D201207D
:1020700000F03AF8C0B2E8E70121304600F00CF871
:102080000028F0D0304600F00EF8C0B2DDE70000C6
:102090009C000020005001400246002012890A42A4
:1020A00000D001207047808970478181704730B52A
:1020B000028802F441530A884C88CD8822438C88D8
:1020C0002C4322430C8922434C8922438C8922438E
:1020D000CC8922431A430280828B22F400628283DD
:1020E000098A018230BD000010B5014602A000F04F
:1020F000D1FA002010BD00003C3C2D464C41534815
:102100002D4552524F522D3E3E2053504920B5C8C6
:10211000B4FDB3ACCAB1216572726F72436F64656E
:10212000203D2025640A00001CB50021019100918A
:102130002E4A106840F4803010604FF4A0431068BD
:1021400000F4003000900198401C0190009810B9F4
:1021500001989842F3D11068800302D501200090C5
:1021600000E00091009801283FD1204840300168EC
:1021700041F0805101601E49086840F44040086009
:102180001A48083003680360036843F4004303609F
:10219000036843F4A0530360041F164B23601368C5
:1021A00043F08073136013689B01FCD50A6842F406
:1021B00080320A604A68D203FCD50A6842F40032D1
:1021C0000A604A689203FCD50B4A40F2057111601F
:1021D000016821F003010160016841F00201016022
:1021E0000168C1F381010229FAD11CBD0038024007
:1021F00000700040195A4007003C024010B501F041
:10220000E7FC012803D0BDE8104001F00BBC10BD75
:102210000C480D490068B0FBF1F0401EB0F1807F22
:1022200001D301200AE04FF0E0214861074AF02085
:10223000107000208861072008610020002800D06D
:10224000FEE7704700000020A086010023ED00E0BB
:1022500010B51248016841F470010160104801682E
:1022600041F0010101600E4A00210832116002684C
:102270000C4B1A400260031D0B4A1A60026822F4DC
:102280008022026006480C300160FFF74DFF0349D1
:102290004FF000608039086010BD000088ED00E05C
:1022A00000380240FFFFF6FE1030002410B5094C44
:1022B00040F22551204600F05EF8002808D0204664
:1022C00000F0F2F8C1B2BDE81040034800F0F0B8E9
:1022D00010BD0000001001400048004070B5184CCF
:1022E00040F22551204600F046F8002812D0204642
:1022F00000F0DAF8C4B22146124800F0D9F81249C9
:102300000888020406D443044FF0000207D50A2CC3
:1023100001D00A8070BD40F40040088070BD0D2CD3
:102320000AD00A4DC0F30D03EC54401C80B2088063
:10233000C728F3D90A8070BD40F48040088070BD82
:102340000048004000100140980000206404022072
:10235000002904D0818941F400518181704781892D
:1023600021F40051818170470246002012880A4200
:1023700000D00120704770B5002440F66A12C1F306
:10238000421301F01F05012606FA05F2012B0CD0BD
:10239000022B0DD0838A1340090A8E4000883040FA
:1023A0000BB100B10124204670BD83891340F3E7CF
:1023B000038A1340F0E710B540F66A13C1F34213E5
:1023C00001F01F040121A140012B07D0022B07D0EF
:1023D00014303AB102680A43026010BD0C30F8E7CD
:1023E0001030F6E702688A43026010BD7FB50446EC
:1023F0000D46208A20F44051E88808432082A089B5
:1024000041F20C618843A9882A8911436A890243F1
:102410001143A181A08A20F44071A8890843A082B9
:102420006846FFF785FA1E48844202D01D48844260
:1024300001D1039800E00298A189090408D500EBB6
:10244000C00101EB001029684900B0FBF1F007E082
:1024500000EBC00101EB001029688900B0FBF1F02E
:102460006422B0FBF2F109010B096FF018056B4310
:1024700000EB8300A3891D044FF0320307D503EB63
:10248000C000B0FBF2F000F00700084306E003EBE9
:102490000010B0FBF2F000F00F00084320817FBD78
:1024A00000100140001401408088C0F3080070470C
:1024B000C1F3080181807047FEE7000070B52D4828
:1024C0002D4C016800292ED0012952D12BA001F0FA
:1024D00001F82046FEF7EEFA2CA000F0FBFFA0006A
:1024E000FEF7E8FA2CA000F0F5FF344D2846FEF781
:1024F000E1FA33A000F0EEFF2046FEF7DBFA34A04D
:1025000000F0E8FF2846FEF7D5FA3CA000F0E2FF15
:102510002046FEF7CFFA3DA000F0DCFF2046BDE8E4
:102520007040FEF7C7BA3DA000F0D4FF2046FEF78A
:10253000C1FA16A000F0CEFF3C48FEF7BBFA3CA063
:1025400000F0C8FF2046FEF7B5FA40A000F0C2FF39
:102550002046FEF7AFFA45A000F0BCFF2046FEF78C
:10256000A9FA46A000F0B6FF2046BDE87040FEF78D
:10257000A1BA70BDB000002020A1070041542B4338
:10258000574D4F44453D310D0A00000041542B5238
:1025900053540D0A0000000041542B43574A415048
:1025A0003D224D6972726F725F7A65726F222C22C2
:1025B0003131313131313131220D0A00C0C62D00A7
:1025C00041542B4349504D55583D300D0A000000F1
:1025D00041542B43495053544152543D225443508B
:1025E000222C223132302E37362E3137332E3330F3
:1025F000222C35303032310D0A00000041542B437B
:1026000049504D4F44453D310D0A000041542B4384
:10261000495053454E440D0A0000000041542B43DD
:10262000574D4F44453D330D0A00000060E316004E
:1026300041542B43495041503D223139322E3136DD
:10264000382E312E31220D0A0000000041542B4358
:10265000575341503D22464851222C2231323334C7
:1026600035363738222C352C300D0A0041542B4397
:1026700049504D55583D310D0A00000041542B433F
:1026800049505345525645523D312C383038300D63
:102690000A0000000FB4054B10B503A9044A0298C4
:1026A00000F0DCF810BC5DF814FB0000952F00086A
:1026B000B400002037B514460846064B6A4621464A
:1026C00000F0CCF804466946002000F05EFC20468D
:1026D0003EBD00008B2F000802E008C8121F08C191
:1026E000002AFAD170477047002001E001C1121F93
:1026F000002AFBD1704700002DE9FF5FDDE90220D1
:10270000010DDDF838B0024318D044F61050A1F2A4
:10271000FF3141430D140F98012820D0A5EB0B0089
:10272000401C5FEA000A4FF00004474EDFF81C919E
:10273000A046504616D5CAF1000728E00F9801249C
:1027400043A2012808D0002100980F9BC0E9002176
:10275000C0E90243BDE8FF9F6FEA0B01F4E7CBF14C
:102760000000DEE7074612E0F80707D022463346AE
:1027700040464946FDF787FE804689462246334655
:1027800010461946FDF77FFE04460E467F10002FC7
:10279000EAD1DDE90201BAF1000F42464B4602DA06
:1027A000FDF771FE01E0FDF7E0FE04460E46002253
:1027B000284BFDF761FF03D84FF0FF30014607E0DB
:1027C0000022254B20463146FDF7B6FDFDF73CFFC4
:1027D000102409E0002C0ADB0A220023FDF77BFD10
:1027E000019B30321A55641E50EA0102F2D1641C7A
:1027F000019AC4F1110314440F9A012A03D0012253
:1028000008430DD10AE0084304D000204FF0110B1B
:102810000F9080E7A3EB0B056D1E0DE05B4504DD1B
:102820004FF0000205F1010504E003DA4FF0000269
:10283000A5F10105002AECD000980F99C0E90231FA
:10284000C0E9004586E70000000024400000F03F9A
:10285000300000000000F0430000E03F2DE9FF4F92
:1028600095B09B468946064600250FE2252877D17C
:1028700000242746F84A0121059400E0044316F895
:10288000013F203B01FA03F01042F7D130782A28AB
:1028900011D06FF02F033078A0F13002092A16D83A
:1028A000059A44F0020402EB820203EB4202104458
:1028B000761C0590EFE759F8042B0592002A03DAFD
:1028C000504244F40054059044F00204761C3078E1
:1028D0002E2816D116F8010F44F004042A280DD032
:1028E0006FF02F023078A0F13003092B09D807EBE5
:1028F000870302EB4303C718761CF3E759F8047B00
:10290000761C30786C280FD006DC4C2817D068284D
:102910000DD06A2814D104E0742810D07A280FD181
:102920000DE044F400140AE044F4801401E044F49F
:1029300040147278824202D104F58014761C761C11
:10294000307866280BD013DC582877D009DC0028B3
:1029500075D04528F6D04628F4D047281AD19DE1F5
:1029600018E0632835D0642879D0652812D195E124
:10297000702873D008DC6728F1D069286FD06E28E2
:102980000DD06F2806D1B5E073282CD0752875D0EE
:10299000782874D05A46179990476D1C75E1C4F396
:1029A0000250022809D003280DD0D9F800100428BD
:1029B0000DD00D6009F1040967E1D9F80010EA179C
:1029C000C1E90052F6E7D9F800100D80F2E70D706A
:1029D000F0E719F8041B8DF8001000208DF80100B5
:1029E000EA46012003E059F804AB4FF0FF306107DD
:1029F0004FF0000102D40DE008F101018846B94210
:102A00000FDA8045F8DB1AF808100029F4D108E045
:102A100008F1010188468142FADB1AF80810002902
:102A2000F6D105985B46A0EB080721463846179A71
:102A300000F094FA284400EB080507E04DE029E196
:102A40000DE01AF8010B5A4617999047B8F10108A2
:102A5000F7D25B4621463846179A13E142E00A2234
:102A60000092C4F302524FF0000A022A08D059F82B
:102A700004CB032A4FEAEC710AD00DE029E02AE0EA
:102A800009F1070121F00702F2E802C1914609E0CD
:102A90000FFA8CFC4FEAEC71042A03D14FFA8CFC3C
:102AA0004FEAEC71002907DA0A460021DCF1000C3C
:102AB00061EB02012D2202E0220504D52B228DF8C4
:102AC0000420012203E0E20701D02022F7E790462C
:102AD00059E00A2102E010220DE010214FF0000A17
:102AE00000910BE010224FF0000A44F00404082784
:102AF000009203E008224FF0000A0092C4F3025251
:102B0000022A05D059F804CB0021032A08D009E095
:102B100009F1070121F00702F2E802C1914605E040
:102B20001FFA8CFC042A01D10CF0FF0C4FF00008B6
:102B3000220728D5702806D0009B83F0100353EAA3
:102B40000A0305D00EE040228DF80420012208E09F
:102B50005CEA010206D030228DF804208DF80500D1
:102B600002229046009B83F0080353EA0A030AD12D
:102B70005CEA010201D1620705D530228DF80420FC
:102B80004FF001087F1E582804D034A003900EA8EF
:102B900002900DE036A0F9E753466046009AFDF733
:102BA0009AFB84460398825C0298401E0290027051
:102BB0005CEA0100F0D1029806A9081A00F1200A87
:102BC000600702D524F4803400E00127574502DD78
:102BD000A7EB0A0000E0002000EB0A010090059836
:102BE0004144401A0590E00306D45B462146179AFB
:102BF000059800F0B3F90544002706E001A85A46FD
:102C0000C05D179990476D1C7F1C4745F6DBE003BC
:102C10000CD55B462146179A059800F09FF90544AC
:102C200004E030205A46179990476D1C0099481EC1
:102C300000900029F5DC08E0029802995A460078D5
:102C4000491C0291179990476D1CBAF10001AAF135
:102C5000010AF1DC65E1000009280100303132335E
:102C600034353637383961626364656600000000C8
:102C700030313233343536373839414243444546B2
:102C80000000000000F058F90544761C3078002858
:102C90007FF4ECAD19B02846BDE8F08F620700D490
:102CA000062709F1070222F0070CFCE80223E1469F
:102CB00003F000485FEA080C02D00FF2702C0DE020
:102CC0005FEA045C02D50FF2682C07E05FEAC47C7F
:102CD00002D00FF2602C01E0AFF2700C4FF0FF3821
:102CE00023F00043CDF850C065280CD006DC452801
:102CF00009D046281DD047283DD13DE0662818D090
:102D000067287ED138E00021112F01DB112000E07F
:102D1000781CCDE9000106A90EA8FFF7EDFCDDE95E
:102D20000F010E9A03910021009207F1010A04910C
:102D30004DE04FF000400097CDE9011006A90EA824
:102D4000FFF7DAFCDDE90F0203920E9B11990022D6
:102D5000DDF80CA00093049211B9791C00EB010A74
:102D6000B7EB0A0004D4C0F1FF3007F1010A049068
:102D7000AAEB0700019044E0012F00DA01270021AF
:102D8000112F01DD112000E03846CDE9000106A930
:102D90000EA8FFF7B1FCDDE90F010E9A03910021A7
:102DA00004910092BA4621070CD40399514500DAE8
:102DB0008A46BAF1010F05DD009AAAF10101515CC2
:102DC000302908D0B84202DA10F1040F06DA0121E6
:102DD000CDE9011015E0AAF10101E9E7002805DCC1
:102DE000049901440491AAEB000102E0411C514501
:102DF00000DD8A460499401A401C01904FF00040C3
:102E00000290200704D40198504501DBCDF80480DE
:102E100000208DF84F0002980DF14F07B0F1004FE0
:102E200025D02B200E9002984FF0020800280CDAD3
:102E3000404202902D200E9007E00A210298FDF7F3
:102E400034FA3031029007F8011DB8F10001A8F101
:102E50000108F2DC02980028EFD1791E0E98087064
:102E6000307800F0200040F0450007F8020D12A86D
:102E7000C01B00F107081498007800B1012000EB96
:102E80000A01019801EBE07105984144401A401E87
:102E90000590E00306D45B462146179A059800F09A
:102EA0005DF805441498007818B15A461799904770
:102EB0006D1CE00324D55B462146179A059800F067
:102EC0004DF805441CE00498002807DBDDE9030108
:102ED000884203DD0098405C179901E01799302083
:102EE0005A469047049805F10105401C049001984A
:102EF000401E019004D12E205A46179990476D1C10
:102F0000BAF10001AAF1010ADDDC05E017F8010BB6
:102F10005A46179990476D1CB8F10001A8F10108B5
:102F2000F4DC5B462146179A0598ABE62D000000BD
:102F30002B000000200000002DE9F0410446002590
:102F40001E461746880404D405E039462020B047C1
:102F50006D1C641EF9D52846BDE8F0812DE9F041CD
:102F6000044600251E469046C80301D5302700E0E0
:102F70002027880404D505E041463846B0476D1C3B
:102F8000641EF9D52846BDE8F0810A68531C0B6021
:102F90001070704770B50446064DE1B22846FFF741
:102FA00087FA80212846FFF7DFF90028F9D020466C
:102FB00070BD0000001001401CB5FDF7D1FEFEF70A
:102FC00097FA04210022084600F042FD0D4C606093
:102FD00010B90DA0FFF75EFB0120CDE9000442020D
:102FE00000230FA1124800F0C3FD012802D04FF0CA
:102FF000FF301CBD00F0F8FB0EA0FFF74BFB0020DC
:103000001CBD00002400002043616E277420637201
:10301000656174652044485431315F4461746100D6
:103020004170705461736B43726561746500000098
:10303000E907000845584954204552524F52210093
:1030400070B5044600F098FA1C4DA868401CA860B2
:10305000286810B1686938B10CE02C60A8680128B4
:1030600008D100F005F905E02868E16AC06A8842E5
:1030700000D82C60686A401C6862E06A01212A69F5
:103080008140114329610E4900EB800001EB800073
:10309000211D00F065FA00F0ABFA686900280CD039
:1030A0002868E16AC06A884207D206494FF080501A
:1030B0000860BFF34F8FBFF36F8F70BD5C000020BF
:1030C000B800022004ED00E070B5124E124D1CE075
:1030D00000F0D4FB306820B1002400F053FEA4B906
:1030E00001E00124F9E700F047FAF068C468201D08
:1030F00000F016FAA868401EA8606868401E686064
:1031000000F076FA204600F009F868680028DFD160
:1031100070BD0000740302205C00002010B504465E
:10312000206B00F099FA2046BDE8104000F094BAF8
:103130004FF400310F48420706D0C01D20F00700B1
:103140000C49411AC1F500310B4A1060002353604D
:103150000144083921F00701103A11604B600B60FF
:103160000B1A436001604068906050604FF000406F
:10317000D0607047B800002048000020074E4FF094
:103180008054074DFFF7A0FF30680128FAD92C6062
:10319000BFF34F8FBFF36F8FF4E70000B80002203A
:1031A00004ED00E003460098002905D00260C363E7
:1031B0000164012100F082BC0060F8E72DE9F047CE
:1031C000DDE908580A9C81460E469A46206B521E3D
:1031D00000EB820020F00707780705D040F22B3281
:1031E00018A11FA0FFF756FA00202218315C82F8C0
:1031F0003410315C11B1401C1028F6D3002684F83D
:103200004360202D00D31F25E562201D00F0A5F9A5
:1032100004F1180000F0A1F92461C5F12000A061BB
:103220006462666484F8486052464946384600F055
:103230003FF92060B8F1000F01D0C8F80040BDE8A8
:10324000F08700002E2E5C2E2E5C4672656552546F
:103250004F535C7372635C7461736B732E63000015
:103260004572726F723A25732C25640D0A000000B6
:1032700070B50024114D04EB840005EB800000F0D4
:1032800061F9641C202CF6D30D4800F05BF90C4862
:10329000143000F057F90A48283000F053F9084874
:1032A0003C3000F04FF90648503000F04BF905482B
:1032B000034941631431816370BD0000B8000220EE
:1032C000380302205C00002030B5134900E01146AD
:1032D0000A688242FBD34B685C18844203D1406881
:1032E0001844486008460D6844682318AB420DD165
:1032F000094B103B1B689A4206D052682244426038
:103300000A681268026002E0036000E00260814225
:1033100000D0086030BD0000480000200748416B25
:103320000968002905D0416BC968C968496881628C
:1033300070474FF0FF318162704700005C00002051
:1033400008484068401C05D040F20F1206A111A0A9
:10335000FFF7A0F9502080F31188BFF34F8FBFF320
:103360006F8FFEE7500000202E2E5C2E2E5C4672E2
:10337000656552544F535C70726F745C525644537F
:103380005C41524D5F434D34465C706F72742E63E6
:10339000000000004572726F723A25732C25640D8F
:1033A0000A0000002DE9F0410546002600F066FA0B
:1033B000304F386808B9FFF7BBFEF86805424BD1BB
:1033C00075B1083568070BD005F00700C0F108009B
:1033D0000544680704D0BF2227A131A0FFF75AF99E
:1033E000002D39D07868854236D8224910310846F8
:1033F000046801E0214604466068A84202D22068C1
:103400000028F7D13868844226D00E680836206834
:1034100008606068401B102811D904EB05085FEABA
:10342000487004D0EC2214A11DA0FFF733F96068A6
:10343000401BC8F8040065604046FFF745FF61681F
:103440007868401A7860BA68904200D2B860F8682C
:10345000014361600020206000F094FC700705D0FB
:103460004FF4967204A10EA0FFF714F93046BDE8A0
:10347000F0810000380000202E2E5C2E2E5C46725B
:10348000656552544F535C70726F745C4D656D4D41
:10349000616E675C686561705F342E6300000000D8
:1034A0004572726F723A25732C25640D0A00000074
:1034B00024384FF08073036221F00101C161044997
:1034C000816142606FF0020140F8201970470000EE
:1034D000413300080FB4F8B507AA0F480699FFF763
:1034E000E9F8002000900C48FCF7D8FE86B20024D2
:1034F0000A4F094D0BE040213846FEF735FF002802
:10350000F9D0295D3846FEF7D3FF641CA4B2B4425B
:10351000F1D3F8BC5DF814FB9C0302200048004086
:103520000169D0E901329A60D0E901235A604A6802
:10353000824201D182684A60002202610868401E0E
:103540000860704700F1080141604FF0FF3282606F
:10355000C160016100210160704700210161704775
:1035600042684A6093688B60936859609160086113
:103570000168491C01607047502080F31188BFF337
:103580004F8FBFF36F8F09494868401C486001287E
:103590000AD10748006810F0FF0F05D040F2B912B9
:1035A00004A10FA0FFF776B870470000500000207C
:1035B00004ED00E02E2E5C2E2E5C467265655254A2
:1035C0004F535C70726F745C525644535C41524D61
:1035D0005F434D34465C706F72742E6300000000D0
:1035E0004572726F723A25732C25640D0A00000033
:1035F00010B5094C6068002805D14FF4E07207A1AE
:1036000011A0FFF747F86068401E6060002801D1F4
:1036100080F3118810BD0000500000202E2E5C2E7B
:103620002E5C4672656552544F535C70726F745CC9
:10363000525644535C41524D5F434D34465C706F6B
:1036400072742E63000000004572726F723A257327
:103650002C25640D0A00000070B500282AD0083817
:103660000446154D6068E968084205D14FF4A07220
:1036700012A11CA0FFF70EF8206828B140F24112F9
:103680000EA118A0FFF706F86068E968084211D09B
:103690002268002A0ED18843606000F0EFF860686D
:1036A0006968084468602046FFF70EFEBDE8704078
:1036B00000F068BB70BD0000380000202E2E5C2E8C
:1036C0002E5C4672656552544F535C70726F745C29
:1036D0004D656D4D616E675C686561705F342E632A
:1036E000000000004572726F723A25732C25640D3C
:1036F0000A00000006484FF47A710068B0FBF1F14F
:103700004FF0E020491E4161072101617047000030
:103710000000002070B50446FFF72EFF234D04B9CA
:103720002C68201DFFF7FCFE58B9E06A204A00EB28
:10373000800152F8211021B9012181402869884374
:103740002861A06A18B104F11800FFF7E9FE686A61
:10375000401C68622868844207D1211D1548FFF784
:10376000FFFE6868401C686007E0A868401EA8600B
:103770002046FFF7D3FCFFF7D1FDFFF739FF68695B
:10378000002812D0286884420FD1286B28B140F25B
:10379000654209A10FA0FEF77DFF12494FF080504E
:1037A0000860BFF34F8FBFF36F8F70BD5C000020C8
:1037B000B8000220740302202E2E5C2E2E5C46726E
:1037C000656552544F535C7372635C7461736B73C1
:1037D0002E6300004572726F723A25732C25640DBA
:1037E0000A00000004ED00E01CB515480024CDE9F6
:1037F00000402346802213A1144800F0B9F90128A3
:103800000AD0401C1BD102B040F28472BDE81040C7
:103810000FA116A0FEF73EBF502080F31188BFF322
:103820004F8FBFF36F8F06484FF0FF312C38816206
:1038300001214161C460BDE81C4000F06BB81CBDB3
:103840008800002049444C45000000007D310008FC
:103850002E2E5C2E2E5C4672656552544F535C735F
:1038600072635C7461736B732E6300004572726FD8
:10387000723A25732C25640D0A0000000248016B82
:10388000491C0163704700005C00002070B5144DB6
:10389000286B002802D00120E86170BD0020E8619B
:1038A0002869B0FA80F0C0F11F000E4E00EB8004D2
:1038B00056F8240028B940F6F6220BA111A0FEF715
:1038C000E9FE06EB840041684968416000F10802A6
:1038D000914201D1496841604068C068286070BD6C
:1038E0005C000020B80002202E2E5C2E2E5C46725A
:1038F000656552544F535C7372635C7461736B7390
:103900002E6300004572726F723A25732C25640D88
:103910000A0000001CB52F4C20682F49884205D1B1
:1039200040F259122DA138A0FEF7B4FE20682A49B2
:10393000491E884205D14FF4AD7228A132A0FEF78E
:10394000A9FE354C20780190FF202070207800904F
:103950009DF800009DF8001000F0F000884205D0AE
:1039600040F273121DA128A0FEF794FE9DF80000FE
:103970002A4A00F0500010700720906006E090681E
:10398000401E90609DF80000400000909DF80000EF
:103990000006F4D4107A000200F4E0609060019810
:1039A00020700C482030016841F47001016001680A
:1039B00041F070410160FFF79DFE00205060FCF770
:1039C0001FFC1748016841F040410160FCF708FC0A
:1039D00000201CBD00ED00E071C20F412E2E5C2EB8
:1039E0002E5C4672656552544F535C70726F745C06
:1039F000525644535C41524D5F434D34465C706FA8
:103A000072742E63000000004572726F723A257363
:103A10002C25640D0A00000000E400E050000020A6
:103A200034EF00E010B5502080F31188BFF34F8FC2
:103A3000BFF36F8F00F0DAF818B104494FF08050EF
:103A40000860002080F3118810BD000004ED00E044
:103A5000F8B505460E461746002D05D14FF4C47241
:103A60000BA112A0FEF716FE86B105FB06F048304A
:103A7000FFF798FC04463CB104F148023B4631464E
:103A800028460094FFF78EFB2046F8BD0020EEE7A5
:103A90002E2E5C2E2E5C4672656552544F535C731D
:103AA00072635C71756575652E6300004572726F97
:103AB000723A25732C25640D0A00000070B5044687
:103AC0000D46002C05D140F21B121DA123A0FEF7CC
:103AD000E1FDFFF751FDD4E90F20216802FB001141
:103AE00061600021A1632168A160E06B2268216C04
:103AF000401E00FB0121E1604FF0FF3084F84400DC
:103B000084F8450004F110004DB1FFF71BFD04F1EE
:103B10002400FFF717FDFFF76BFD012070BD216941
:103B20000029F8D000F0DCF80028F4D00F494FF05D
:103B300080500860BFF34F8FBFF36F8FEBE700003B
:103B40002E2E5C2E2E5C4672656552544F535C736C
:103B500072635C71756575652E6300004572726FE6
:103B6000723A25732C25640D0A00000004ED00E074
:103B70002DE9FF5F8146DDE90E788A4616469B46B1
:103B8000B000FFF70FFC054628000AD04C20FFF7D5
:103B900009FC04460CB1256304E02846FFF75CFDF0
:103BA00000E000248CB10020CDE90240CDE900788E
:103BB0005B46324651464846FFF700FB2046FFF77A
:103BC0003FFA012004B0BDE8F09F4FF0FF30F9E765
:103BD00005484169002903D0006B18B100207047E7
:103BE00001207047022070475C0000202DE9F04161
:103BF00000262E4F386B002808D0B869401CB861E9
:103C0000F86900B101263046BDE8F081FD686D1C01
:103C1000FD608DB9786B006828B140F6D91224A1F7
:103C20002AA0FEF737FD786BB96B7963B863386A01
:103C3000401C3862FFF772FBB86ADFF8A08085424B
:103C40000DD3786B006838B1786BC068C468606861
:103C500085420ED2B86202E04FF0FF30B862386899
:103C6000C06A00EB800058F820000128C8D901265E
:103C7000C6E7201DFFF754FCA06A18B104F1180034
:103C8000FFF74EFCE06A01213A6981401143396136
:103C900000EB800008EB8000211DFFF761FCE06A6B
:103CA0003968C96A8842CCD30126CAE75C00002083
:103CB0002E2E5C2E2E5C4672656552544F535C73FB
:103CC00072635C7461736B732E6300004572726F74
:103CD000723A25732C25640D0A000000B8000220FA
:103CE0002DE9F041C068C468002C05D140F661326E
:103CF00016A11DA0FEF7CEFC04F118000746FFF741
:103D00000FFC1D4D2A6B012662B139461B48FFF797
:103D100027FCE06A2968C96A884215D90120EE614A
:103D2000BDE8F081201DFFF7FBFBE06A2A6906FA77
:103D300000F111432961124900EB800001EB800082
:103D4000211DFFF70DFCE4E70020E9E72E2E5C2E95
:103D50002E5C4672656552544F535C7372635C749B
:103D600061736B732E6300004572726F723A257334
:103D70002C25640D0A0000005C0000206003022076
:103D8000B80002202DE9F041002400272B4D286BBC
:103D9000002805D14FF4FD6229A130A0FEF77AFC7E
:103DA000FFF7EAFB286B401E2863286BF0BBA8686E
:103DB000E0B3DFF8B88001261DE0D8F80C00C46835
:103DC00004F11800FFF7ACFB201DFFF7A9FBE06A28
:103DD0002A6906FA00F111432961254900EB8000A8
:103DE00001EB8000211DFFF7BBFBE06A2968C96A6F
:103DF000884200D3EE61D8F800000028DDD10CB174
:103E0000FFF78CFAAC6944B1FFF7F0FE00B1EE6148
:103E1000641E002CF8D10020A861E86930B10127A8
:103E2000144938070860BFF34F8F00E001E0BFF38B
:103E30006F8FFFF7DDFB3846BDE8F0815C000020A6
:103E40002E2E5C2E2E5C4672656552544F535C7369
:103E500072635C7461736B732E6300004572726FE2
:103E6000723A25732C25640D0A00000060030220BD
:103E7000B800022004ED00E0000000000000000097
:103E80000000000000000000000000000000000032
:103E90000000000000000000000000000000000022
:103EA000000000000000000000008001800180018F
:103EB00080018001800180018001800180018001FA
:103EC00080018001000000008001800100000000EE
:103ED000000000000000000000000000CC00CC004A
:103EE000CC00CC00CC00CC000000000000000000A2
:103EF00000000000000000000000000000000000C2
:103F000000000000000000000000000000000000B1
:103F100000000000600C600C600C30063006FE1FD4
:103F2000FE1F300638071803FE1FFE1F1803180374
:103F30008C018C018C01000000008000E003F80F70
:103F40009C0E8C1C8C188C009800F801E007800EE9
:103F5000801C8C188C189C18B80CF00FE0038000A3
:103F600080000000000000000000000000000E18AB
:103F70001B0C110C11061106110311039B018E017C
:103F8000C038C06C60446044304430441844186CFD
:103F90000C380000000000000000E001F0033807CA
:103FA000180618063003F001F000F8009C310E33BB
:103FB000061E061C061C063FFC73F02100000000D4
:103FC0000000000000000000000000000C000C00D9
:103FD0000C000C000C000C000000000000000000B1
:103FE00000000000000000000000000000000000D1
:103FF000000000000000000000000002000380013B
:10400000C000C000600060003000300030003000B0
:10401000300030003000300060006000C000C000A0
:104020008001000300020000000020006000C000CA
:104030008001800100030003000600060006000660
:104040000006000600060006000300038001800150
:10405000C000600020000000000000000000000020
:1040600000000000C000C000D806F807E0013003DF
:104070003807000000000000000000000000000001
:104080000000000000000000000000000000000030
:104090000000000080018001800180018001FC3F60
:1040A000FC3F800180018001800180010000000050
:1040B0000000000000000000000000000000000000
:1040C00000000000000000000000000000000000F0
:1040D00000000000000000000000800180010001DD
:1040E000000180000000000000000000000000004F
:1040F00000000000000000000000000000000000C0
:10410000E007E007000000000000000000000000E1
:10411000000000000000000000000000000000009F
:10412000000000000000000000000000000000008F
:1041300000000000000000000000C000C0000000FF
:1041400000000000000000000000000C000C000651
:1041500000060006000300030003800380018001C5
:104160008001C000C000C0006000600000000000CE
:1041700000000000000000000000E003F007380E1F
:10418000180C0C180C180C180C180C180C180C180F
:104190000C180C18180C380EF007E0030000000093
:1041A0000000000000000000000000018001C001CC
:1041B000F001980188018001800180018001800167
:1041C00080018001800180018001800100000000E9
:1041D00000000000000000000000E003F80F180CD1
:1041E0000C180C1800180018000C000600038001C1
:1041F000C000600030001800FC1FFC1F0000000021
:1042000000000000000000000000E001F807180EA8
:104210000C0C0C0C000C0006C003C007000C0018AE
:1042200000180C180C18180CF807E0030000000028
:1042300000000000000000000000000C000E000F55
:10424000000F800DC00C600C600C300C180C0C0CB6
:10425000FC3FFC3F000C000C000C000C00000000B8
:1042600000000000000000000000F80FF80F180028
:1042700018000C00EC03FC071C0E001C00180018B2
:1042800000180C181C0C180EF807E00300000000C2
:1042900000000000000000000000C007F00F381C04
:1042A000181818000C00CC03EC0F3C0E1C1C0C184A
:1042B0000C180C18181C380EF007E0030000000062
:1042C00000000000000000000000FC1FFC1F000CAC
:1042D00000060006000380038001C001C000E0006A
:1042E000600060007000300030003000000000000E
:1042F00000000000000000000000E003F007380E9E
:10430000180C180C180C3806F007F007180C0C18CD
:104310000C180C180C18380CF80FE0030000000003
:1043200000000000000000000000E003F007380E6D
:104330001C0C0C180C180C181C1C381EF81BE0194F
:104340000018000C000C1C0EF807F0010000000023
:10435000000000000000000000000000000000005D
:10436000000000008001800100000000000000004B
:10437000000000000000000080018001000000003B
:10438000000000000000000000000000000000002D
:10439000000000008001800100000000000000001B
:1043A0000000000000000000800180010001000109
:1043B000800000000000000000000000000000007D
:1043C00000000000000000000010001C800FE0034F
:1043D000F8001800F800E003800F001C0010000037
:1043E00000000000000000000000000000000000CD
:1043F0000000000000000000F81F000000000000A6
:10440000F81F000000000000000000000000000095
:10441000000000000000000000000000000000009C
:10442000000000000000000008003800F001C00794
:10443000001F0018001FC007F0013800080000002E
:1044400000000000000000000000E003F80F180C5E
:104450000C180C180018000C000600038001C000A6
:10446000C000C00000000000C000C000000000004C
:10447000000000000000000000000000E007181825
:104480000420C229224A114409440944094409224A
:104490001113E20C024004201818E007000000008D
:1044A0000000000000000000000080038003C00640
:1044B000C006C006600C600C301830183018F83F89
:1044C000F83F1C700C600C6006C006C000000000C5
:1044D00000000000000000000000FC03FC0F0C0CBA
:1044E0000C180C180C180C0CFC07FC0F0C180C30DA
:1044F0000C300C300C300C18FC1FFC0700000000C6
:1045000000000000000000000000C007F01F383865
:104510001C300C700660060006000600060006004F
:10452000060006600C701C30F01FE0070000000061
:1045300000000000000000000000FE03FE0F060E59
:1045400006180618063006300630063006300630EB
:10455000063006180618060EFE0FFE0300000000C7
:1045600000000000000000000000FC3FFC3F0C00C9
:104570000C000C000C000C00FC1FFC1F0C000C00BD
:104580000C000C000C000C00FC3FFC3F0000000085
:1045900000000000000000000000F83FF83F180095
:1045A0001800180018001800F81FF81F180018004D
:1045B000180018001800180018001800000000006B
:1045C00000000000000000000000E00FF83F3C7811
:1045D0000E6006E007C00300030003FE03FE03C0F5
:1045E00007C006C00EC03CF0F83FE00F000000001E
:1045F000000000000000000000000C300C300C3007
:104600000C300C300C300C30FC3FFC3F0C300C30CC
:104610000C300C300C300C300C300C300000000032
:104620000000000000000000000080018001800107
:104630008001800180018001800180018001800172
:104640008001800180018001800180010000000064
:104650000000000000000000000000060006000648
:10466000000600060006000600060006000600061A
:104670000006180618063807F003E00100000000E5
:104680000000000000000000000006300618060CC4
:10469000060606038601C60066007600DE008E016F
:1046A00006030606060C0618063006600000000029
:1046B00000000000000000000000180018001800B2
:1046C000180018001800180018001800180018002A
:1046D0001800180018001800F81FF81F000000004C
:1046E000000000000000000000000EE01EF01EF0C0
:1046F0001EF036D836D836D836D866CC66CC66CCDE
:10470000C6C6C6C6C6C6C6C686C386C300000000E7
:10471000000000000000000000000C301C303C30A5
:104720003C306C306C30CC30CC308C310C330C33B2
:104730000C360C360C3C0C3C0C380C3000000000E5
:1047400000000000000000000000E007F81F1C3817
:104750000E70066003C003C003C003C003C003C0E3
:1047600003C006600E701C38F81FE0070000000050
:1047700000000000000000000000FC0FFC1F0C38CF
:104780000C300C300C300C300C18FC1FFC070C00EB
:104790000C000C000C000C000C000C0000000000D1
:1047A00000000000000000000000E007F81F1C38B7
:1047B0000E70066003E003C003C003C003C003C063
:1047C00007E006630E3F1C3CF83FE0F700C0000026
:1047D00000000000000000000000FE0FFE1F063871
:1047E0000630063006300638FE1FFE0706030606B2
:1047F000060C061806180630063006600000000099
:1048000000000000000000000000E003F80F1C0C96
:104810000C180C180C001C00F803E00F001E0038E8
:10482000063006300E301C1CF80FE00700000000B8
:1048300000000000000000000000FE7FFE7F8001FD
:104840008001800180018001800180018001800160
:104850008001800180018001800180010000000052
:10486000000000000000000000000C300C300C3094
:104870000C300C300C300C300C300C300C300C3058
:104880000C300C300C301818F81FE0070000000046
:104890000000000000000000000003600630063049
:1048A00006300C180C180C18180C180C380E3006A2
:1048B0003006700760036003C001C0010000000003
:1048C000000000000000000000000360C361C3613D
:1048D000C3616633663366336633663366336C1B97
:1048E0006C1B6C1B2C1A3C1E380E380E000000008E
:1048F000000000000000000000000FE00C70183005
:104900003018700C600EC00780038003C003E006FF
:10491000700C301C18180C300E6007E0000000000E
:104920000000000000000000000003C006600C3022
:104930001C383818300C6006E007C0038001800185
:104940008001800180018001800180010000000061
:1049500000000000000000000000FC7FFC7F006001
:1049600000300018000C000600038001C000600049
:10497000300018000C000600FE7FFE7F00000000E3
:1049800000000000000000000000E003E003600001
:104990006000600060006000600060006000600017
:1049A0006000600060006000600060006000600007
:1049B0006000E003E0030000000030003000600011
:1049C00060006000C000C000C000C0018001800124
:1049D0008001000300030003000600060000000041
:1049E00000000000000000000000E003E0030003FE
:1049F000000300030003000300030003000300039F
:104A0000000300030003000300030003000300038E
:104A10000003E003E003000000000000C001C0014B
:104A200060036003600330063006180C180C0000A9
:104A30000000000000000000000000000000000076
:104A40000000000000000000000000000000000066
:104A50000000000000000000000000000000000056
:104A600000000000000000000000FFFFFFFF00004A
:104A7000000000000000000000000C000C000C0012
:104A80000C000C000C000000000000000000000002
:104A90000000000000000000000000000000000016
:104AA0000000000000000000000000000000000006
:104AB00000000000F003F8071C0C0C0C000FF00FB6
:104AC000F80C0C0C0C0C1C0FF80FF0180000000078
:104AD000000000000000000000001800180018008E
:104AE00018001800D803F80F380C181818181818E0
:104AF000181818181818380CF80FD8030000000000
:104B000000000000000000000000000000000000A5
:104B100000000000C003F007300E180C1800180049
:104B200018001800180C300EF007C0030000000039
:104B3000000000000000000000000018001800182D
:104B400000180018C01BF01F301C1818181818186F
:104B5000181818181818301CF01FC01B000000008F
:104B60000000000000000000000000000000000045
:104B700000000000C003F00F300C1818F81FF81FD9
:104B8000180018003818301CF00FC0070000000093
:104B900000000000000000000000800FC00FC000F7
:104BA000C000C000F007F007C000C000C000C00097
:104BB000C000C000C000C000C000C0000000000075
:104BC00000000000000000000000000000000000E5
:104BD00000000000E00DF80F180E0C0C0C0C0C0C73
:104BE0000C0C0C0C0C0C180EF80FE00D000C0C0C3F
:104BF0001C06F807F001000000001800180018005B
:104C000018001800D807F80F381C181818181818AA
:104C10001818181818181818181818180000000074
:104C200000000000000000000000C000C000000004
:104C300000000000C000C000C000C000C000C000F4
:104C4000C000C000C000C000C000C00000000000E4
:104C500000000000000000000000C000C0000000D4
:104C600000000000C000C000C000C000C000C000C4
:104C7000C000C000C000C000C000C000C000C00034
:104C8000C000F8007800000000000C000C000C00D0
:104C90000C000C000C0C0C060C038C01CC006C00FE
:104CA000FC009C018C030C030C060C0C00000000A3
:104CB00000000000000000000000C000C000C000B4
:104CC000C000C000C000C000C000C000C000C000E4
:104CD000C000C000C000C000C000C0000000000054
:104CE00000000000000000000000000000000000C4
:104CF000000000007C3CFF7EC7E383C183C183C109
:104D000083C183C183C183C183C183C1000000000B
:104D10000000000000000000000000000000000093
:104D2000000000009807F80F381C181818181818F9
:104D30001818181818181818181818180000000053
:104D40000000000000000000000000000000000063
:104D500000000000C003F00F300C181818181818C5
:104D6000181818181818300CF00FC00300000000B5
:104D70000000000000000000000000000000000033
:104D800000000000D803F80F380C1818181818186D
:104D9000181818181818380CF80FD803180018002D
:104DA00018001800180000000000000000000000BB
:104DB00000000000C01BF01F301C1818181818182D
:104DC000181818181818301CF01FC01B00180018ED
:104DD000001800180018000000000000000000008B
:104DE00000000000B007F003700030003000300019
:104DF0003000300030003000300030000000000093
:104E000000000000000000000000000000000000A2
:104E100000000000E003F003380E180C3800F00327
:104E2000C007000C180C380EF007E003000000006B
:104E30000000000000000000000000008000C00032
:104E4000C000C000F007F007C000C000C000C000F4
:104E5000C000C000C000C000C00780070000000004
:104E60000000000000000000000000000000000042
:104E70000000000018181818181818181818181812
:104E8000181818181818381CF01FE0190000000036
:104E90000000000000000000000000000000000012
:104EA000000000000C18180C180C180C3006300606
:104EB0003006600360036003C001C0010000000011
:104EC00000000000000000000000000000000000E2
:104ED00000000000C141C141C36163636363636358
:104EE0003636363636361C1C1C1C1C1C00000000D6
:104EF00000000000000000000000000000000000B2
:104F0000000000001C38381C300C60066003600391
:104F1000600360036006300C381C1C380000000081
:104F20000000000000000000000000000000000081
:104F3000000000001830301830187018600C600C39
:104F4000E00CC006C006800380038003800180015E
:104F5000C001F00070000000000000000000000030
:104F600000000000FC1FFC1F000C00060003800175
:104F7000C000600030001800FC1FFC1F0000000093
:104F80000000000000000000000000038001C000DD
:104F9000C000C000C000C000C00060006000300061
:104FA00060004000C000C000C000C000C000C000E1
:104FB00080010003000000000000800180018001EA
:104FC00080018001800180018001800180018001D9
:104FD00080018001800180018001800180018001C9
:104FE000800180018001000000006000C000C0015D
:104FF0008001800180018001800100030003000620
:105000000003000180018001800180018001800196
:10501000C000600000000000000000000000000070
:105020000000000000000000F010F81F080F000052
:105030000000000000000000000000000000000070
:105040000000000000000000685000080000002080
:10505000B8000000D826000820510008B800002041
:1050600078080200E82600080095BA0A000000004F
:105070000000000001020304060708090000000008
:1050800001020304010203040607080900000000EE
:1050900000000000783E000810001800000000002A
:1050A0000000000000000000000000000000000000
:1050B000000000000000000000000000AAAAAAAA48
:1050C00000000000000000000000000000000000E0
:1050D00000000000000000000000000000000000D0
:1050E00000000000000000000000000000000000C0
:1050F00000000000000000000000000000000000B0
:105100000000000000A000000000FFFF000000D031
:10511000000000000000000001000000000000008E
:04000005080001AD41
:00000001FF
