:020000040800F2
:1000000000060020450100088F0D0008030D0008C0
:100010008D0D0008E10B0008711A000800000000B7
:10002000000000000000000000000000A115000812
:10003000E30B000800000000B9140008591600087E
:100040005F0100085F0100085F0100085F01000810
:100050005F0100085F0100085F0100085F01000800
:100060005F0100085F0100085F0100085F010008F0
:100070005F0100085F0100085F0100085F010008E0
:100080005F0100085F0100085F0100085F010008D0
:100090005F0100085F0100085F0100085F010008C0
:1000A0005F0100085F0100085F0100085F010008B0
:1000B0005F0100085F0100085F0100085F010008A0
:1000C0005F0100085F0100085F0100085F01000890
:1000D0005F010008051700084D1700085F010008C0
:1000E0005F0100085F0100085F0100085F01000870
:1000F0005F0100085F0100085F0100085F01000860
:100100005F0100085F0100085F0100085F0100084F
:100110005F0100085F0100085F0100085F0100083F
:100120005F0100085F0100085F0100085F0100082F
:10013000DFF80CD000F0D2FA00480047B9270008D9
:10014000000600200648804706480047FEE7FEE715
:10015000FEE7FEE7FEE7FEE7FEE7FEE7FEE7FEE777
:10016000A116000831010008D2B201E000F8012B0D
:10017000491EFBD270470022F6E710B513460A4627
:1001800004461946FFF7F0FF204610BD421C10F848
:10019000011B0029FBD1801A704701F0004330B4E5
:1001A00021F0004150EA010206D00A0DA2F560726A
:1001B000C1F31301002A02DC30BC00207047440F59
:1001C00044EAC104C100E01830BC00EBC25000F0AA
:1001D00095B830B50B46014600202022012409E0E5
:1001E00021FA02F59D4205D303FA02F5491B04FAF0
:1001F00002F52844151EA2F10102F1DC30BD2DE903
:10020000F05F0546002092469B468846064681469A
:1002100040241BE0284641464746224600F07FFA2C
:1002200053465A46C01A914110D3114618462246E9
:1002300000F066FA2D1A67EB01084F4622460120AE
:10024000002100F05DFA17EB00094E41201EA4F1D9
:100250000104DFDC484631462A464346BDE8F09FAC
:100260000FB4002300B589B00CA900910B996FF071
:100270000042CB601E4B06931E4B07930423CDE92F
:1002800001321D4A089202466B46002000F0EEFA49
:1002900009B05DF814FB70B586B006464FF0FF302C
:1002A0000091CDE90101002015460C46049032462C
:1002B000694604A8FFF7D4FF03460498211825B126
:1002C00008B10A4600E022462A6000280DD0002B23
:1002D00002DD0098884208D0081B0094CDE9010493
:1002E0003246694604A8FFF7BBFF06B070BD0000A8
:1002F000A50A0008C30A0008630700080029A8BF70
:100300007047401C490008BF20F00100704710B43E
:10031000B0FA80FC00FA0CF050EA010404BF10BCF3
:10032000704749B1CCF1200421FA04F411FA0CF120
:1003300018BF012121430843A3EB0C01CB1D4FEA59
:1003400000614FEA102042BF002010BC704700EB54
:10035000C35010440029A4BF10BC7047401C490082
:1003600008BF20F0010010BC70472DE9FE4F804609
:1003700081EA0300C00F0C46009021F0004123F0F9
:100380000045B8EB0200A94105D2404621469046FF
:100390001C460B46024623F00040104347D0270D71
:1003A000C7F30A00C3F30A510290401A0190402893
:1003B0006BDAC3F3130040F4801B0098924620B11F
:1003C0000023D2EB030A63EB0B0B01985946C0F1F3
:1003D0004002504600F094F906460D4650465946F4
:1003E000019A00F0ACF910EB08006141002487EAA3
:1003F000115284EAE7731A4340D0009A62B3019A1B
:10040000012A4FEA075215DC001B61EB02014FF095
:10041000004202EA0752CDE90042001C41F580117A
:1004200032462B4600F06DFB03B0BDE8F08F40462E
:100430002146F9E7001B61EB0201001C41F5801326
:1004400000185B412018A2F5001747EB030140EAB2
:10045000D570B6196D4111E06D084FEA360645EAD0
:10046000C0754FEA0752001B61EB0201001C41F509
:10047000801149084FEA30000019514132462B469D
:1004800003B0BDE8F04F00F02DBB00980122400002
:100490000023D0EB020263EBE073009821464FEAA1
:1004A000E074B8EB000061EB0401E9E783F000437E
:1004B0005BE781F0004158E72DE9FE4F81EA030434
:1004C00004F0004421F0004100944FF0000B23F0B1
:1004D000004350EA01045ED052EA03045BD0C3F348
:1004E0000A54C1F30A552C44A4F2F3340194A0FB3E
:1004F0000254C1F3130141F48011C3F3130343F415
:10050000801301FB024400FB034E840A970A44EA6D
:10051000815447EA8357A4FB076802958D0A05FBBF
:1005200007854FEA932C04FB0C542705029D4FEAE4
:10053000065847EA1637B5EB08056EEB070C870E31
:10054000920E47EA811742EA8312A7FB0201B6EB3B
:100550000B0164EB00042B0D43EA0C335E1844EBF3
:100560001C50DA465146E7FB0201C5F313044FEA7B
:100570000B3343EA14534FEA0432019C43EA060367
:10058000A4F10C040294009CCDE900B400F0B9FA87
:1005900003B0BDE8F08F00200146F9E72DE9F04DEA
:1005A00081EA030404F0004B21F0004514464FF0AB
:1005B000000A23F0004150EA050220D054EA01026B
:1005C0001DD0C5F30A570246C5F31303C1F3130048
:1005D000C1F30A5640F4801543F48013A7EB0608D4
:1005E000101BD64608F2FD3873EB050002D308F164
:1005F000010801E092185B41B8F1000F03DA002016
:100600000146BDE8F08D00204FF480110646844677
:100610000EE0171B73EB050705D3121B63EB0503F5
:1006200006434CEA010C49084FEA300092185B413E
:1006300050EA0107EDD152EA030012D082EA040029
:1006400083EA0501084305D0101BAB4106D2012205
:10065000002306E000224FF0004302E06FF00102A9
:1006600053101AEB06004CEB085110EB0A0041EB5B
:100670000B01BDE8F04D00F035BAC1F30A52C1F3E9
:10068000130140F2FF3341F480119A4202DA002054
:100690000146704740F233439A42A2F2334202DCF1
:1006A000524200F03CB800F02BB8000030B5041EF8
:1006B00071F1000404DB4FF00044404264EB01019F
:1006C000141E73F1000405DB1C464FF00043524238
:1006D00063EB0403994208BF904230BD064C074DBE
:1006E00006E0E06840F0010394E807009847103402
:1006F000AC42F6D3FFF720FD5C3100087C310008E6
:10070000202A04DB203A00FA02F1002070479140D1
:10071000C2F1200320FA03F3194390407047202AC6
:1007200004DB203A21FA02F00021704721FA02F39B
:10073000D040C2F120029140084319467047202A58
:1007400006DBCB17203A41FA02F043EAE07306E0F9
:1007500041FA02F3D040C2F1200291400843194609
:100760007047C0B24FF4F05100F01ABA2DE9FF4FB4
:10077000087881B09946FF2805D0491C2D2804D05F
:100780000024002308E000230BE00124F9E703EB39
:10079000830300EB4303491C0878FF28F7D104B119
:1007A0005B4200200090147801462D2C01D02B2CA8
:1007B00004D1521C2D2C12D0002400940025167850
:1007C000FF2E0ED00A24A0FB04C801FB04810027E1
:1007D00000FB0711521C16EB0C006941EFE70124E6
:1007E000EBE7994450EA01020ED00024AA4D2646B8
:1007F000DFF8A88200F0E8F982468B46B9F10000E4
:1008000009DAC9F100071BE001980021C0E90011D5
:1008100005B0BDE8F08F074612E0F80707D0224682
:100820002B4630464146FFF747FE0646884622469D
:100830002B4610461946FFF73FFE04460D467F1033
:10084000002FEAD1B9F1000F3246434650465946CF
:1008500002DAFFF7A3FE01E0FFF72EFE009A0AB1CD
:1008600081F00041019AC2E90001D1E72DE9FF4F73
:100870001F468DB0D7E901464FF0FF382E20454680
:100880004FF000090B90B9696D1C0E988847396AC2
:10089000824688470028F6D1BAF1FF3F0AD024F4F7
:1008A000D064002E11DDBAF12B0F08D0BAF12D0F54
:1008B0000BD102E0404611B0ABE744F48064B96963
:1008C0006D1C0E9888478246761E6946600501D5E4
:1008D0002D2000E02B208DF8000001F1010B0DF11F
:1008E000200809E0B9696D1C0E98884782460F9868
:1008F00044F40074761E0560002E02DDBAF1300F5C
:10090000F0D00B998A453ED144F0800406E00F995F
:10091000681CA9F1010944F400740860B9696D1CF0
:10092000761E0E98884782463028F0D02BE00B992F
:100930008A4505D1200603D444F08004761E18E0D1
:10094000504601F079FA08B30DF11301761E44F414
:1009500000748B4508D2AAF130000BF8010B200679
:1009600007D5A9F1010003E0200602D409F1010036
:100970008146A00502D50F99681C0860B9696D1CF5
:100980000E9888478246002ED1DC53E0002E51DDC0
:10099000BAF1650F02D0BAF1450F4BD1A00549D588
:1009A000B9696D1C24F44074761E0E9888478246FF
:1009B000002E0CDD2B2804D0BAF12D0F07D144F402
:1009C0008074B9696D1C0E9888478246761EE005D2
:1009D00001D52D2100E02B2108F8011BCDF82C803A
:1009E00021E00DF12901761E44F4007488450CD2F3
:1009F000AAF1300010F0FF0088F8000002D10B9936
:100A0000884509D908F1010806E0E00501D5244828
:100A100001E042F20F708146B9696D1C0E9888475B
:100A200082460F980560002E04DD504601F004FA5E
:100A30000028D6D1F9690E988847FF208BF800006E
:100A400088F800000020069007904B466A4608A9E7
:100A500006A8FFF78BFEA00502D46FF001002AE77D
:100A600014F0240F0AD0E00714D1DDE9061238682B
:100A7000031D3B600068C0E900120BE0DDE90601E0
:100A8000FFF78BFB0146E00704D13868021D3A608E
:100A90000068016028460EE7000024400000F03F97
:100AA000F1D8FFFF426842B1016811F8013B23B160
:100AB000521EC0E90012184670470121C160881E0D
:100AC000704742685AB1C368016843B983688B4272
:100AD00005D0491E521CC0E90012002070474FF09B
:100AE000FF30704710B5141E73F1000408DA401C83
:100AF00041F1000192185B411A4301D120F001003D
:100B000010BD2DE9F04D92469B4611B1B1FA81F22C
:100B100002E0B0FA80F220329046FFF7F1FD044681
:100B20000F4640EA0A0041EA0B0153465A46084381
:100B300013D0114653EA010019D0C8F140025046C3
:100B4000FFF7EDFD05460E46504659464246FFF773
:100B5000D7FD084305D0012004E020463946BDE812
:100B6000F08D0020054346EAE0762C4337430A988F
:100B70006305E40AA0EB08000022FD0A44EA47549A
:100B80000A3002D500200146E9E701051019694144
:100B9000DDE9084500196941BDE8F04DA2E7000014
:100BA0007F2801D9002208E0064A02EB5002C00764
:100BB000127800D1120902F00F0201209040084083
:100BC000704700001C3100080EB540F2334202921B
:100BD0000022CDE900221346FFF793FF03B000BDCA
:100BE000FEE7704701B503480099016001680029DC
:100BF000FCD108BD4C00002030B5024600244FF463
:100C00007A7503E02846FFF7EDFF521E9442F9D3B0
:100C100030BD000010B500F093F800F083FE00F046
:100C2000D7FE00F01BFD01F03DFD00F016F900F0CD
:100C3000F1F900F01FFFBDE8104001A001F00CB871
:100C40000D0A20CBF9D3D0C9E8B1B8D7BCB1B8BA36
:100C5000C3C1CB200D0A00002DE9F0410022CC7861
:100C600004F00F03E40601D58C7823430C784FF091
:100C70000F0714F0FF0F4FF0010C1CD005680CFAA1
:100C800002F40E882640A64211D1960007FA06F813
:100C900025EA080503FA06F848EA0505CE78282E65
:100CA00002D0482E02D002E0446100E00461521CF0
:100CB000082AE4D305600A88FF2A1ED94568002265
:100CC00002F108060CFA06F40E882640A64210D15E
:100CD000960007FA06F825EA080503FA06F848EA36
:100CE0000505CE78282E00D14461CE78482E00D15B
:100CF0000461521C082AE3D34560BDE8F08101611C
:100D00007047FEE770B505460C4601F013FD7820EC
:100D100001F0E6FC01F034FD68B9284601F0E0FC82
:100D200001F02EFD38B9204601F0DAFC01F028FD73
:100D300008B901F015FDBDE8704001F011BD0000DB
:100D400038B50121102000F0C7FB0420ADF80000E9
:100D500010208DF8030003208DF802000A4C69462C
:100D60002046FFF779FF0821ADF8001069462046BC
:100D7000FFF772FF04212046FFF7C1FF082120463C
:100D8000FFF7BDFF38BD000000100140FEE77047CF
:100D900070B50F23C27801260178002A1ED0144AAC
:100DA000126802F4E062C2F5E062120AC2F10404C1
:100DB000D3404578A54082781A402A43120101F1B8
:100DC000E02181F80024007800F01F018E404009E6
:100DD000800000F1E020C0F8006170BD01F01F004C
:100DE00086404809800000F1E020C0F8806170BDB5
:100DF0000CED00E00249084302490860704700001A
:100E00000000FA050CED00E010B5044601F092FC7C
:100E1000204601F065FC01F0B3FC044601F0A0FCA3
:100E2000204610BD70B50646002505F1B000C0B2E1
:100E300000F00AFF002000F007FF102000F004FF80
:100E40000024304600F004FF641CE4B2802CF8D388
:100E50006D1CEDB2082DE8D370BD10B50120FFF771
:100E6000CBFEAE2000F0F0FE202000F0EDFE1020C2
:100E700000F0EAFEB02000F0E7FEC82000F0E4FE3B
:100E8000002000F0E1FE102000F0DEFE402000F027
:100E9000DBFE812000F0D8FEFF2000F0D5FEA1206F
:100EA00000F0D2FEA62000F0CFFEA82000F0CCFE7D
:100EB0003F2000F0C9FEA42000F0C6FED32000F0C1
:100EC000C3FE002000F0C0FED52000F0BDFEF020E3
:100ED00000F0BAFED92000F0B7FE222000F0B4FEE8
:100EE000DA2000F0B1FE122000F0AEFEDB2000F0B0
:100EF000ABFE202000F0A8FE8D2000F0A5FE1420FF
:100F000000F0A2FEBDE81040AF2000F09DBE10B57D
:100F10000446B031C8B200F097FE102040EA141029
:100F200000F092FE04F00F00BDE8104040F0010018
:100F300000F08ABE2DE9F04704460F469146002690
:100F4000012B22D0022B24D1DFF8ACA04EE02038B8
:100F500000F0FF087E2C02D900247F1CFFB2394626
:100F60002046FFF7D4FF0025244908EB480001EB99
:100F7000400818F8050000F06BFE6D1CEDB2062D60
:100F8000F7D3A41DE4B2761CF6B219F806000028C7
:100F9000DDD1BDE8F087203800F0FF08782C02D9B9
:100FA00000247F1CFFB239462046FFF7B0FF002522
:100FB00005EB08101AF8000000F04AFE6D1CEDB2B7
:100FC000082DF5D3781CC1B22046FFF7A0FF0025FD
:100FD00005EB08105044007A00F03AFE6D1CEDB2AB
:100FE000082DF5D30834E4B2761CF6B219F80600E1
:100FF0000028D0D1CDE700002C2B000804290008E0
:1010000010B57820FFF700FF012801D0012010BDA6
:10101000002010BD10B5FFF7F3FF0D4C90B10DA0EF
:1010200000F01AFE08206061FF20FFF7FBFE02209F
:10103000FFF7E2FD0020FFF7F5FEBDE810400220BB
:10104000FFF7DABD0CA000F007FE04206061EBE7BB
:10105000001001400D0A204F4C4544BCECB2E2B3F5
:10106000C9B9A62C4F4C4544D5FDD4DAB9A4D7F75D
:10107000A3A10D0A000000000D0A20C3BBD3D0BC01
:10108000ECB2E2B5BD4F4C4544A3A10D0A000000EF
:1010900010B501231BA200211820FFF74BFF0123ED
:1010A0001CA202210020FFF745FF01231BA2022101
:1010B0004020FFF73FFF012319A204210020FFF782
:1010C00039FF012318A204214020FFF733FF012339
:1010D00016A206210020FFF72DFF012315A20621ED
:1010E0004020FFF727FF012314A207210020FFF76C
:1010F00021FF01230721BDE8104012A24020FFF785
:1011000019BF000054657374696E67205379737456
:10111000656D000054454D5000000000205248000D
:10112000534F524800000000204C560052454C419D
:101130005931000052454C415932000052454C4152
:101140005933000052454C415934000070B5012319
:101150007A4A02211E20FFF7EDFE012378A2022128
:101160002B20FFF7E7FE754A01230A3202213020C7
:10117000FFF7E0FE714A0123143202215820FFF7E5
:10118000D9FE01236EA202216520FFF7D3FE6B4A30
:1011900001231E3202216A20FFF7CCFE674A012399
:1011A000283204211E20FFF7C5FE644C5A342078F3
:1011B000302814D1012363A206212820FFF7BAFEAC
:1011C000012360A206216820FFF7B4FE5EA000F0B4
:1011D00043FD62A000F040FD64A000F03DFD2078DA
:1011E000312814D1012365A206212820FFF7A2FE91
:1011F000012362A206216820FFF79CFE60A000F098
:101200002BFD64A000F028FD66A000F025FD4B4CEE
:101210003C34207830280ED101234AA207216820CF
:10122000FFF788FE012363A204215820FFF782FE06
:1012300062A000F011FD207831280ED101234FA2C9
:1012400007216820FFF776FE012360A204215820C1
:10125000FFF770FE5FA000F0FFFC384D5035A5F1A0
:101260000A042878312805D12078312802D15DA0E0
:1012700000F0F2FC2878302805D12078302802D1FF
:101280005EA000F0E9FC287830280BD120783128C6
:1012900008D101235EA204215820FFF74BFE5EA077
:1012A00000F0DAFC287831280BD12078302808D1DA
:1012B00001235FA204215820FFF73CFE5EA000F04E
:1012C000CBFC1E48283001F0C5F9FEF766FF604CE4
:1012D000A0616049884202DC5FA000F0BDFC634968
:1012E000A069884202DB62A000F0B6FC5949A069FF
:1012F000C94308446249884202D262A000F0ACFCB3
:101300000E4C32342078302808D101230DA2072159
:101310002820FFF70FFE60A000F09EFC2078312807
:101320000AD1012315A207212820FFF703FEBDE8FB
:1013300070405DA000F090BC70BD00007000002007
:101340002E0000004F4E2E000D0A20B7E7C9C8D767
:10135000B4CCAC3A4F4E0D0A000000002052454C70
:10136000415930204F4E0D0A000000002052454CDC
:10137000415931204F4E0D0A000000004F464600F3
:101380000D0A20B7E7C9C8D7B4CCAC3A4F46460DD2
:101390000A0000002052454C415930204F46460D6E
:1013A0000A0000002052454C415931204F46460D5D
:1013B0000A0000004C6F7720200000002052454CAE
:1013C000415932204F4E0D0A0000000046616C6CFE
:1013D000200000002052454C415932204F46460D16
:1013E0000A0000000D0A20D0EECBAEB3D8D7B4CCA3
:1013F000AC3A46616C6C0D0A000000000D0A20D06A
:10140000EECBAEB3D8D7B4CCAC3A4C6F770D0A0064
:10141000416D706C650000000D0A20D0EECBAEB3BC
:10142000D8D7B4CCAC3A416D706C650D0A000000A1
:101430004552524F520000000D0A20D0EECBAEB301
:10144000D8B4ABB8D0C6F7B4EDCEF3A3A10D0A0063
:1014500028000020000020420D0A20CDC1C8C0CACB
:10146000AAB6C8B9FDB5CD0D0A000000000096422D
:101470000D0A20CDC1C8C0CAAAB6C8B8DF0D0A007F
:10148000FFFF75000D0A20CDC1C8C0CAAAB6C8CAE0
:10149000CAD2CB0D0A0000002052454C41593320DE
:1014A0004F4E0D0A000000002052454C4159332098
:1014B0004F46460D0A00000070470000054A00290B
:1014C00003D0D1690143D1617047D1698143D161B2
:1014D0007047000000100240054A002903D09169BE
:1014E00001439161704791698143916170470000A8
:1014F0000010024010B5264A516801F00C01254B3E
:10150000002927D0042927D0082927D00360516853
:1015100001F0F0010909204B5C5C0168E140416089
:10152000546804F4E064240A1C5D21FA04F4846025
:10153000546804F46054E40A1B5DD940C1605268E9
:1015400002F44042920B144B1B1F9A5CB1FBF2F168
:10155000016110BD0360DAE70360D8E7516801F468
:101560007011536803F48033022404EB914133B1CA
:1015700053689B0307D5094B59430160C7E7074BE5
:1015800059430160C3E7034B59430160BFE70000C3
:101590000010024000127A001800002000093D00EF
:1015A000704700F001B800000CB5002201920092D3
:1015B0002748016841F4803101604FF4A06301685D
:1015C00001F4003100910199491C0191009911B970
:1015D00001999942F3D10168890302D50121009153
:1015E00000E000920099012930D11A490A6842F0BE
:1015F00010020A600A6822F003020A600A6842F0D8
:1016000002020A604168416041684160416841F4FA
:1016100080614160416821F47C114160416841F47E
:10162000E8114160016841F0807101600168890141
:10163000FCD5416821F003014160416841F002019D
:1016400041604168C1F381010229FAD10CBD00005B
:10165000001002400020024000F04AB80E484FF44B
:101660007A710068B0FBF1F0B0F1807F01D3012006
:101670000DE020F07F414FF0E020491E4161074A14
:10168000F0211170002181610721016100200028F3
:1016900000D0FEE7704700000000002023ED00E0CE
:1016A00010B50F48016841F00101016041680D4A21
:1016B0001140416001680C4A11400160016821F449
:1016C00080210160416821F4FE0141604FF41F0157
:1016D0008160FFF766FF05494FF00060086010BDAC
:1016E000001002400000FFF8FFFFF6FE08ED00E0EA
:1016F00003480168002902D00168491E0160704753
:101700004C00002070B50E4D40F22556314628465B
:1017100000F067F80B4C60B13146284600F046F8FF
:10172000284600F0F7F8207061784A1C6270064A7B
:10173000505421782846BDE8704000F0EFB8000012
:101740000038014044000020D400002070B5144C43
:1017500040F225552946204600F043F800281CD0C9
:101760002946204600F022F8204600F0D3F80E4C1F
:101770000C4A61685054491C6160501810F8010C03
:101780000A2801D0142908D110780025412805D055
:1017900014210448FEF7EFFC656070BD656070BD04
:1017A00000440040D40100204400002040F66A12AA
:1017B0000A0A01219140C94301807047002904D0E1
:1017C000818941F4005181817047818921F4005160
:1017D000818170470246002012880A4200D0012011
:1017E000704770B5002440F66A12C1F3421301F04D
:1017F0001F05012606FA05F2012B0CD0022B0DD095
:10180000838A1340090A8E40008830400BB100B132
:101810000124204670BD83891340F3E7038A1340F7
:10182000F0E710B540F66A13C1F3421301F01F044C
:101830000121A140012B07D0022B07D014303AB16F
:1018400002680A43026010BD0C30F8E71030F6E77A
:1018500002688A43026010BD30B585B004460D466B
:10186000208A4CF6FF710840E98801432182A08953
:101870004EF6F3110840A9882A8911436A89024368
:101880001143A181A08A4FF6FF410840A989014375
:10189000A1826846FFF72EFE1D48844201D10398BD
:1018A00000E00298A189090408D500EBC00101EB12
:1018B000001029684900B0FBF1F007E000EBC0011F
:1018C00001EB001029688900B0FBF1F06422B0FB45
:1018D000F2F109010B096FF018056B4300EB83006F
:1018E000A3891D044FF0320307D503EBC000B0FB02
:1018F000F2F000F00700084306E003EB0010B0FB35
:10190000F2F000F00F000843208105B030BD000068
:10191000003801408088C0F308007047C1F3080117
:101920008180704730B587B04FF4A060FFF762FA4E
:1019300001210420FFF7D0FD01218803FFF7CCFD32
:101940004FF48060ADF8180004208DF81B001E4C89
:1019500006A92046FFF780F96115ADF8181003219C
:101960008DF81A1018218DF81B1006A92046FFF7D4
:1019700073F94FF4E13002900024ADF80C40ADF85B
:101980000E40ADF81040ADF814400C20ADF8120038
:101990000E4D02A92846FFF75FFF25218DF80410A0
:1019A0008DF8064001218DF8071001A8FFF7F0F926
:1019B000012240F225512846FFF733FF0121284636
:1019C000FFF7FCFE07B030BD0008014000380140C1
:1019D00030B587B001210420FFF77EFD01214804C6
:1019E000FFF76CFD0820ADF8180004248DF81B40AB
:1019F0001D4D06A92846FFF72FF9ADF81840032121
:101A00008DF81A1018218DF81B1006A92846FFF72B
:101A100023F94FF4E13002900024ADF80C40ADF80A
:101A20000E40ADF81040ADF814400C20ADF8120097
:101A30000E4D02A92846FFF70FFF26218DF804104E
:101A40008DF8064001218DF8071001A8FFF7A0F9D5
:101A5000012240F225512846FFF7E3FE01212846E6
:101A6000FFF7ACFE07B030BD000801400044004065
:101A7000FEE7000070B52F4C4FF4FA7540F2DC56CB
:101A80002168002923D12CA000F012FF2846FFF77F
:101A9000A9F82DA000F00CFF3046FFF7A3F82DA009
:101AA00000F006FF2846FFF79DF831A000F000FF88
:101AB0002846FFF797F836A000F0FAFE2846FFF711
:101AC00091F837A000F0F4FE2846FFF78BF8216864
:101AD00001292DD138A000F0EBFE2846FFF782F84F
:101AE00019A000F0E5FE3046FFF77CF836A000F0C4
:101AF000DFFE40F6B8342046FFF774F83BA000F054
:101B0000D7FE2846FFF76EF83CA000F0D1FE204635
:101B1000FFF768F844A000F0CBFE2846FFF762F814
:101B200045A000F0C5FE2846BDE87040FFF75AB852
:101B300070BD00005000002041542B43574D4F44CE
:101B4000453D330D0A00000041542B5253540D0AF9
:101B50000000000041542B43495041503D2231398F
:101B6000322E3136382E312E31220D0A000000007F
:101B700041542B43575341503D22464851222C2279
:101B80003132333435363738222C352C300D0A00BB
:101B900041542B4349504D55583D310D0A0000002A
:101BA00041542B4349505345525645523D312C38F0
:101BB0003038300D0A00000041542B43574D4F443C
:101BC000453D310D0A00000041542B43574A415016
:101BD0003D224D6972726F725F7A65726F222C229C
:101BE0003131313131313131220D0A0041542B4331
:101BF00049504D55583D300D0A00000041542B43CB
:101C0000495053544152543D22544350222C2231C6
:101C100032302E37362E3137332E3330222C3530BA
:101C20003032310D0A00000041542B4349504D4FD2
:101C300044453D310D0A000041542B434950534562
:101C40004E440D0A0000000001460020FFF75AB87C
:101C500001464020FFF756B80FB4054B10B503A955
:101C6000044A029800F0EFF810BC5DF814FB000085
:101C7000812600085400002037B514460846064B5C
:101C80006A46214600F04AF904466946002000F001
:101C9000DCFC20463EBD00004B26000801480068E1
:101CA000704700005800002002E008C8121F08C159
:101CB000002AFAD170477047002001E001C1121FCD
:101CC000002AFBD1704700000149086070470000FE
:101CD000580000202DE9FF5FDDE90220010DDDF84D
:101CE00038B0024318D044F61050A1F2FF314143FE
:101CF0000D140F98012820D0A5EB0B00401C5FEAC3
:101D0000000A4FF00004474EDFF81C91A0465046F1
:101D100016D5CAF1000728E00F98012443A2012834
:101D200008D0002100980F9BC0E90021C0E90243C0
:101D3000BDE8FF9F6FEA0B01F4E7CBF10000DEE79F
:101D4000074612E0F80707D0224633464046494688
:101D5000FEF7B2FB804689462246334610461946B6
:101D6000FEF7AAFB04460E467F10002FEAD1DDE9FC
:101D70000201BAF1000F42464B4602DAFEF79CFB25
:101D800001E0FEF70BFC04460E460022284BFEF74E
:101D90008DFC03D84FF0FF30014607E00022254BB1
:101DA00020463146FEF7E1FAFEF767FC102409E011
:101DB000002C0ADB0A220023FEF721FA019B3032B5
:101DC0001A55641E50EA0102F2D1641C019AC4F152
:101DD000110314440F9A012A03D0012208430DD1A4
:101DE0000AE0084304D000204FF0110B0F9080E769
:101DF000A3EB0B056D1E0DE05B4504DD4FF000020B
:101E000005F1010504E003DA4FF00002A5F1010538
:101E1000002AECD000980F99C0E90231C0E90045D2
:101E200086E70000000024400000F03F3000000082
:101E30000000F0430000E03F30380A2801D20120C2
:101E40007047002070472DE9F84F99469246884622
:101E50000546002706E025280AD051464A46904705
:101E60006D1C7F1C28780028F5D13846BDE8F88F16
:101E7000002315F8011F18462E2915D115F8011F4A
:101E800004232A290DD06FF02F022978A1F1300404
:101E9000092C09D800EB800002EB400008446D1CBF
:101EA000F3E758F8040B6D1C2A78002ADDD0632A6A
:101EB00007D0732A0FD0104651464A4690477F1CE0
:101EC0002AE018F8042B8DF8002000218DF801106D
:101ED0006E46012103E058F8046B4FF0FF315A07BA
:101EE0004FF0000401D409E0641C84420BDA8C42F8
:101EF000FADB325D002AF7D105E0641C8C42FCDB82
:101F0000305D0028F9D1274404E016F8010B514652
:101F10004A469047641EF8D26D1CA3E72DE9FF4F97
:101F200095B09B468946064600250FE2252877D1C5
:101F300000242746F84A0121059400E0044316F8DE
:101F4000013F203B01FA03F01042F7D130782A28F4
:101F500011D06FF02F033078A0F13002092A16D883
:101F6000059A44F0020402EB820203EB42021044A1
:101F7000761C0590EFE759F8042B0592002A03DA46
:101F8000504244F40054059044F00204761C30782A
:101F90002E2816D116F8010F44F004042A280DD07B
:101FA0006FF02F023078A0F13003092B09D807EB2E
:101FB000870302EB4303C718761CF3E759F8047B49
:101FC000761C30786C280FD006DC4C2817D0682897
:101FD0000DD06A2814D104E0742810D07A280FD1CB
:101FE0000DE044F400140AE044F4801401E044F4E9
:101FF00040147278824202D104F58014761C761C5B
:10200000307866280BD013DC582877D009DC0028FC
:1020100075D04528F6D04628F4D047281AD19DE13E
:1020200018E0632835D0642879D0652812D195E16D
:10203000702873D008DC6728F1D069286FD06E282B
:102040000DD06F2806D1B5E073282CD0752875D037
:10205000782874D05A46179990476D1C75E1C4F3DF
:102060000250022809D003280DD0D9F80010042806
:102070000DD00D6009F1040967E1D9F80010EA17E5
:10208000C1E90052F6E7D9F800100D80F2E70D70B3
:10209000F0E719F8041B8DF8001000208DF80100FE
:1020A000EA46012003E059F804AB4FF0FF30610726
:1020B0004FF0000102D40DE008F101018846B94259
:1020C0000FDA8045F8DB1AF808100029F4D108E08F
:1020D00008F1010188468142FADB1AF8081000294C
:1020E000F6D105985B46A0EB080721463846179ABB
:1020F00000F094FA284400EB080507E04DE029E1E0
:102100000DE01AF8010B5A4617999047B8F10108EB
:10211000F7D25B4621463846179A13E142E00A227D
:102120000092C4F302524FF0000A022A08D059F874
:1021300004CB032A4FEAEC710AD00DE029E02AE033
:1021400009F1070121F00702F2E802C1914609E016
:102150000FFA8CFC4FEAEC71042A03D14FFA8CFC85
:102160004FEAEC71002907DA0A460021DCF1000C85
:1021700061EB02012D2202E0220504D52B228DF80D
:102180000420012203E0E20701D02022F7E7904675
:1021900059E00A2102E010220DE010214FF0000A60
:1021A00000910BE010224FF0000A44F004040827CD
:1021B000009203E008224FF0000A0092C4F302529A
:1021C000022A05D059F804CB0021032A08D009E0DF
:1021D00009F1070121F00702F2E802C1914605E08A
:1021E0001FFA8CFC042A01D10CF0FF0C4FF0000800
:1021F000220728D5702806D0009B83F0100353EAED
:102200000A0305D00EE040228DF80420012208E0E8
:102210005CEA010206D030228DF804208DF805001A
:1022200002229046009B83F0080353EA0A030AD176
:102230005CEA010201D1620705D530228DF8042045
:102240004FF001087F1E582804D034A003900EA838
:1022500002900DE036A0F9E753466046009AFDF77C
:10226000CEFF84460398825C0298401E0290027062
:102270005CEA0100F0D1029806A9081A00F1200AD0
:10228000600702D524F4803400E00127574502DDC1
:10229000A7EB0A0000E0002000EB0A01009005987F
:1022A0004144401A0590E00306D45B462146179A44
:1022B000059800F0B3F90544002706E001A85A4646
:1022C000C05D179990476D1C7F1C4745F6DBE00306
:1022D0000CD55B462146179A059800F09FF90544F6
:1022E00004E030205A46179990476D1C0099481E0B
:1022F00000900029F5DC08E0029802995A4600781F
:10230000491C0291179990476D1CBAF10001AAF17E
:10231000010AF1DC65E100000928010030313233A7
:102320003435363738396162636465660000000011
:1023300030313233343536373839414243444546FB
:102340000000000000F058F90544761C30780028A1
:102350007FF4ECAD19B02846BDE8F08F620700D4D9
:10236000062709F1070222F0070CFCE80223E146E8
:1023700003F000485FEA080C02D00FF2702C0DE069
:102380005FEA045C02D50FF2682C07E05FEAC47CC8
:1023900002D00FF2602C01E0AFF2700C4FF0FF386A
:1023A00023F00043CDF850C065280CD006DC45284A
:1023B00009D046281DD047283DD13DE0662818D0D9
:1023C00067287ED138E00021112F01DB112000E0C9
:1023D000781CCDE9000106A90EA8FFF77BFCDDE91A
:1023E0000F010E9A03910021009207F1010A049156
:1023F0004DE04FF000400097CDE9011006A90EA86E
:10240000FFF768FCDDE90F0203920E9B1199002291
:10241000DDF80CA00093049211B9791C00EB010ABD
:10242000B7EB0A0004D4C0F1FF3007F1010A0490B1
:10243000AAEB0700019044E0012F00DA01270021F8
:10244000112F01DD112000E03846CDE9000106A979
:102450000EA8FFF73FFCDDE90F010E9A0391002162
:1024600004910092BA4621070CD40399514500DA31
:102470008A46BAF1010F05DD009AAAF10101515C0B
:10248000302908D0B84202DA10F1040F06DA01212F
:10249000CDE9011015E0AAF10101E9E7002805DC0A
:1024A000049901440491AAEB000102E0411C51454A
:1024B00000DD8A460499401A401C01904FF000400C
:1024C0000290200704D40198504501DBCDF8048028
:1024D00000208DF84F0002980DF14F07B0F1004F2A
:1024E00025D02B200E9002984FF0020800280CDA1D
:1024F000404202902D200E9007E00A210298FDF73D
:1025000068FE3031029007F8011DB8F10001A8F112
:102510000108F2DC02980028EFD1791E0E980870AD
:10252000307800F0200040F0450007F8020D12A8B6
:10253000C01B00F107081498007800B1012000EBDF
:102540000A01019801EBE07105984144401A401ED0
:102550000590E00306D45B462146179A059800F0E3
:102560005DF805441498007818B15A4617999047B9
:102570006D1CE00324D55B462146179A059800F0B0
:102580004DF805441CE00498002807DBDDE9030151
:10259000884203DD0098405C179901E017993020CC
:1025A0005A469047049805F10105401C0490019893
:1025B000401E019004D12E205A46179990476D1C59
:1025C000BAF10001AAF1010ADDDC05E017F8010B00
:1025D0005A46179990476D1CB8F10001A8F10108FF
:1025E000F4DC5B462146179A0598ABE62D00000007
:1025F0002B000000200000002DE9F04104460025DA
:102600001E461746880404D405E039462020B0470A
:102610006D1C641EF9D52846BDE8F0812DE9F04116
:10262000044600251E469046C80301D5302700E029
:102630002027880404D505E041463846B0476D1C84
:10264000641EF9D52846BDE8F0810A68531C0B606A
:102650001070704730B583B00446FFF71FFB054686
:102660000020CDE90000024621466846FDF713FE32
:102670002846FFF729FBDDE9000103B030BD00006B
:1026800070B50446064DE1B22846FFF747F98021B0
:102690002846FFF79FF80028F9D0204670BD0000BB
:1026A0000038014008B501210820FEF715FF4FF45E
:1026B0004070ADF8000003208DF8020014208DF862
:1026C000030069460248FEF7C7FA00F049F808BD62
:1026D000000C01400020401CC0B20A28FBD3704708
:1026E0002DE9F04705460024DFF844904FF480764A
:1026F0004FF40078A9F10407280602D5C7F8008036
:1027000001E0C9F80080FFF7E5FF3E60FFF7E2FF58
:10271000C9F80060072C01D1C7F800806806050ED3
:10272000FFF7D8FF641CE4B2082CE5D3BDE8F087BE
:10273000140C014070B509484FF40074046085150D
:102740000560FFF7C7FF054E361D3460FFF7C2FF77
:102750003560BDE87040FFF7BDBF0000100C0140C0
:1027600070B506484FF400740460044D80152D1FA9
:102770002860FFF7AFFF2C6070BD0000140C014013
:1027800070B50C4C4FF400702060FFF7A3FFA51547
:102790002560FFF79FFF074808380068800501D5CE
:1027A000012400E000240348001D0560FFF792FFAC
:1027B000204670BD100C0140FEF72CFAFEF768FCB5
:1027C000364E374D0024EC60364F05E0785C70548F
:1027D000452807D0491CE9603248FDF7D7FCE96875
:1027E0008842F3D82D4930A0FFF736FA2D492EA0A4
:1027F000FFF732FA307841284AD12848FDF7C6FC65
:10280000304410F8010C452842D124487178283012
:102810000170B17841702149F078323108701F4859
:10282000317914300170717941701C49B0791E31D1
:1028300008702C6126E0775C4E2F0DD16C61174B30
:102840003C3368690A1832445278442A04D01A5436
:10285000401C68610528F4DB442F11D10F4B701820
:10286000463342781A700A3382781A700A33C27873
:102870001A700A3302791A7003F10A024079107053
:10288000491C29610548FDF781FC29698842D2D895
:10289000FEF75CFC0220FEF7AFF994E75C00002035
:1028A00028000020D401002025730D0A000000003C
:1028B0000FB4F8B507AA11480699FFF7DDF9002013
:1028C00000900E48FDF762FC86B200240C4F0B4DC1
:1028D0000BE040213846FEF77DFF0028F9D0295D46
:1028E0003846FFF71BF8641CA4B2B442F1D314219C
:1028F0000248FDF740FCF8BC5DF814FBE80100203D
:10290000004400400000000000000000002F000014
:1029100000000700070000147F147F1400242A7FA2
:102920002A12006264081323003649552250000021
:102930000503000000001C224100000041221C0091
:102940000014083E08140008083E0808000000A013
:10295000600000080808080800006060000000200F
:1029600010080402003E5149453E0000427F4000ED
:10297000004261514946002141454B310018141273
:102980007F10002745454539003C4A494930000140
:102990007109050300364949493600064949291E8F
:1029A00000003636000000005636000000081422F1
:1029B00041000014141414140000412214080002F1
:1029C0000151090600324959513E007C1211127C16
:1029D000007F49494936003E41414122007F414143
:1029E000221C007F49494941007F09090901003E35
:1029F0004149497A007F0808087F0000417F410073
:102A0000002040413F01007F08142241007F4040E8
:102A10004040007F020C027F007F0408107F003ED0
:102A20004141413E007F09090906003E4151215EB6
:102A3000007F091929460046494949310001017FB3
:102A40000101003F4040403F001F2040201F003F49
:102A50004038403F006314081463000708700807FB
:102A600000615149454300007F41410000552A550E
:102A70002A55000041417F00000402010204004089
:102A800040404040000001020400002054545478AB
:102A9000007F4844443800384444442000384444CB
:102AA000487F00385454541800087E090102001869
:102AB000A4A4A47C007F080404780000447D4000A6
:102AC000004080847D00007F102844000000417F8A
:102AD0004000007C04180478007C08040478003866
:102AE0004444443800FC242424180018242418FCEE
:102AF000007C0804040800485454542000043F4457
:102B00004020003C4040207C001C2040201C003C19
:102B10004030403C004428102844001CA0A0A07C69
:102B2000004464544C4414141414141400000000A1
:102B3000000000000000000000000000000000F89D
:102B400000000000000000333000000000100C0600
:102B5000100C0600000000000000000040C078409B
:102B6000C0784000043F04043F040400007088FC67
:102B700008300000001820FF211E0000F008F000BF
:102B8000E018000000211C031E211E0000F0088830
:102B9000700000001E2123241927211010160E009A
:102BA000000000000000000000000000000000E045
:102BB000180402000000000718204000000204185A
:102BC000E00000000040201807000000404080F0B6
:102BD000804040000202010F01020200000000F0EC
:102BE000000000000101011F0101010000000000C0
:102BF0000000000080B07000000000000000000035
:102C000000000000000101010101010100000000BD
:102C10000000000000303000000000000000000054
:102C200080601804006018060100000000E0100831
:102C30000810E000000F102020100F00001010F806
:102C4000000000000020203F202000000070080845
:102C500008887000003028242221300000300888C5
:102C6000884830000018202020110E000000C020ED
:102C700010F8000000070424243F240000F808880E
:102C8000880808000019212020110E0000E010889B
:102C900088180000000F112020110E0000380808CD
:102CA000C83808000000003F0000000000708808DD
:102CB00008887000001C222121221C0000E010085E
:102CC0000810E0000000312222110F00000000C0B7
:102CD000C000000000000030300000000000008054
:102CE0000000000000008060000000000000804044
:102CF000201008000001020408102000404040405D
:102D000040404000040404040404040000081020AF
:102D100040800000002010080402010000704808F4
:102D20000808F0000000003036010000C030C8285C
:102D3000E810E0000718272423140B000000C03817
:102D4000E0000000203C23020227382008F8888891
:102D500088700000203F202020110E00C03008089D
:102D600008083800071820202010080008F8080874
:102D70000810E000203F202020100F0008F888886D
:102D8000E8081000203F20202320180008F8888839
:102D9000E8081000203F200003000000C0300808B1
:102DA0000838000007182020221E020008F808003A
:102DB0000008F808203F210101213F20000808F801
:102DC000080800000020203F202000000000080824
:102DD000F8080800C08080807F00000008F888C0E4
:102DE00028180800203F20012638200008F8080095
:102DF00000000000203F20202020300008F8F800CC
:102E0000F8F80800203F003F003F200008F830C0DD
:102E10000008F808203F200007183F00E0100808CD
:102E20000810E0000F10202020100F0008F80808FC
:102E30000808F000203F210101010000E01008080F
:102E40000810E0000F18242438504F0008F8888834
:102E500088887000203F2000030C30200070880814
:102E6000080838000038202121221C00180808F822
:102E7000080818000000203F2000000008F80800A3
:102E80000008F808001F202020201F000878880074
:102E900000C83808000007380E010000F80800F8E4
:102EA0000008F800033C0700073C0300081868808E
:102EB0008068180820302C03032C30200838C80004
:102EC000C83808000000203F200000001008080853
:102ED000C83808002038262120201800000000FEF5
:102EE000020202000000007F40404000000C30C0A1
:102EF00000000000000000010638C00000020202CD
:102F0000FE000000004040407F000000000004027E
:102F100002020400000000000000000000000000A9
:102F20000000000080808080808080800002020499
:102F30000000000000000000000000000000808091
:102F4000808000000019242222223F2008F80080FF
:102F500080000000003F112020110E0000000080C2
:102F600080800000000E1120202011000000008051
:102F70008088F800000E112020103F200000808083
:102F800080800000001F222222221300008080F097
:102F9000888888180020203F2020000000008080C2
:102FA00080808000006B94949493600008F8008007
:102FB00080800000203F210000203F200080989862
:102FC000000000000020203F2020000000000080C2
:102FD0009898000000C08080807F000008F8000002
:102FE00080808000203F24022D302000000808F857
:102FF000000000000020203F202000008080808012
:1030000080808000203F20003F20003F80800080A3
:1030100080800000203F210000203F2000008080B1
:1030200080800000001F202020201F008080008062
:103030008000000080FFA12020110E000000008011
:1030400080808000000E112020A0FF808080800002
:103050008080800020203F2120000100000080802F
:10306000808080000033242424241900008080E024
:10307000808000000000001F2020000080800000F1
:1030800000808000001F202020103F2080808000D2
:103090000080808000010E300806010080800080E2
:1030A000008080800F300C030C300F000080800007
:1030B000808080000020312E0E3120008080800032
:1030C0000080808080818E701806010000808080E2
:1030D000808080000021302C222130000000000080
:1030E000807C020200000000003F40400000000021
:1030F000FF00000000000000FF0000000002027C52
:10310000800000000040403F000000000006010178
:10311000020204040000000000000000DDDDDDDD2F
:10312000DCBBBBDDDDDDDDDDDDDDDDDD9888888858
:1031300088888888777777777788888885555556FF
:103140006666666666666666666888888333333256
:1031500022222222222222222228888D7C3100084B
:10316000000000205C000000A81C0008D831000806
:103170005C000020A4050000B81C000800A24A045E
:103180000000000000000000010203040607080917
:103190000204060800000000010203040102030407
:1031A0000607080900000000000000000000000001
:1031B000000000000000000000000000000000000F
:1031C00000000000000000000000000001000000FE
:0831D0000000000000000000F7
:0400000508000131BD
:00000001FF
