:020000040800F2
:10000000380E00201503000831280008B724000826
:100010002D280008191C0008033900080000000002
:10002000000000000000000000000000B9310008DE
:10003000291D000800000000E52E00086D340008AE
:100040002F0300082F0300082F0300082F030008C8
:100050002F0300082F0300082D1D0008191E00089B
:10006000231E00082D1E0008ED1E00082F030008A7
:100070002F0300082F0300082F0300082F03000898
:100080002F0300082F0300082F0300082F03000888
:100090002F0300082F0300082F0300082F03000878
:1000A0002F0300082F0300082F0300082F03000868
:1000B0002F030008D93400082F0300082F0300087D
:1000C0002F0300082F0300082F0300082F03000848
:1000D0002F0300083D360008C53600082F0300082E
:1000E0002F0300082F0300082F0300082F03000828
:1000F0002F0300082F0300082F0300082F03000818
:100100002F0300082F0300082F0300082F03000807
:100110002F0300082F0300082F0300082F030008F7
:100120002F0300082F0300082F0300082F030008E7
:100130002F0300082F0300082F0300082F030008D7
:100140002F0300082F0300082F0300082F030008C7
:100150002F0300082F0300082F0300082F030008B7
:100160002F0300082F0300082F0300082F030008A7
:100170002F0300082F0300082F0300082F03000897
:100180002F0300082F03000800F002F800F0B2F877
:100190000AA090E8000C82448344AAF10107DA45E2
:1001A00001D100F0A7F8AFF2090EBAE80F0013F082
:1001B000010F18BFFB1A43F0010318472056000037
:1001C000405600000A444FF0000C10F8013B13F0B9
:1001D000070408BF10F8014B1D1108BF10F8015BA0
:1001E000641E05D010F8016B641E01F8016BF9D193
:1001F00013F0080F1EBF10F8014BAD1C0C1B09D1EA
:100200006D1E58BF01F801CBFAD505E014F8016B5B
:1002100001F8016B6D1EF9D59142D6D370470000ED
:100220000023002400250026103A28BF78C1FBD8FF
:10023000520728BF30C148BF0B6070476E2900F0DD
:100240001F83702900F09F86662904F020866529A7
:1002500004F01D86672904F01A866129AFF3008037
:1002600003681B0A28BF41F08001692900F0EE8075
:10027000642900F0EB80752900F0E8806F2900F018
:100280002D86782900F06B86E92900F0C785E429DE
:1002900000F0C485F52900F0C185EF2900F02A8619
:1002A000F82900F06A860368DB0928BF41F0800165
:1002B000632900F03685732900F03B85E32900F0BF
:1002C0000187F32900F00687002070471FB504F06E
:1002D000D4FD00F063FE04000020002104F078FA51
:1002E000401C60600020002104F05CFAE0601FBD4B
:1002F00010B510BD00F088FF1146FFF7E7FF03F0CF
:1003000083FE00F0AFFF03B4FFF7F2FF03BC03F07E
:100310000AFE00000948804709480047FEE7FEE75B
:10032000FEE7FEE7FEE7FEE7FEE7FEE7FEE7FEE7A5
:1003300004480549054A064B70470000713400081F
:100340008901000838080020380E0020380A0020F3
:10035000380A0020704700001CB50C46064B7B4451
:1003600069460090204600F0B2FC04460020694631
:1003700000F0C0FC20461CBD930900000FB40449E6
:1003800010B503AA029800F0D9FC10BC5DF814FB6C
:10039000B40500200FB41CB5084B06AA7B4469467F
:1003A0000090059800F093FC04460020694600F098
:1003B000A1FC20461CBC5DF814FB000055090000A0
:1003C0000FB47CB50C0009AA009001D02044401E57
:1003D000084B7B4469460190089800F078FC05467C
:1003E0001CB10020694600F085FC28467CBC5DF805
:1003F00014FB00002909000070B50C460546012ACF
:1004000005D02878800600D5EA69002302E00123A0
:1004100005E05B1C934202D2E05C0028F9D1A86998
:10042000E618C01AA861286A18442862284600F015
:1004300095F904E0D5E9012114F8010B9047B44285
:10044000F8D3284600F0A0F970BD00002DE9F04176
:100450000646002410687529314616A510D000F014
:10046000A4F9002802DA404213A507E031688A07A0
:1004700001D512A502E0490704D511A5012401E028
:1004800000F09CF900210A2206F1240709E0B0FBE4
:10049000F2FCB0FBF2F302FB1C003030785418463B
:1004A000491C0028F3D123462A463046BDE8F041D6
:1004B00000F08DB9000000002D0000002B000000AE
:1004C000200000002DE9F05F894604464FF0000A45
:1004D000DFF874B1FB44C0F820A02046E1688847EB
:1004E000002874D0252806D0D4E901219047206A3D
:1004F000401C2062F1E700265F462046E1688847FD
:100500002028054607DB312D05D2781910F8200C7C
:1005100008B10643F1E7B00701D526F00406C4F898
:100520001CA00027C4F818A02A2D09D0284603F0E3
:10053000F3FC38B304EB8708303DC8F8185019E0D5
:1005400059F8041B204604EB87029161E168884753
:10055000012F054618D1E069002820DA26F0200690
:100560001DE0D8F8180000EB800005EB40003038A3
:10057000C8F818002046E1688847054603F0CCFC1F
:100580000028EED1012F0AD02E2D08D12046E16897
:1005900088477F1C0546022F46F02006C4DBA06971
:1005A000002803DA404246F00106A061F00701D0BE
:1005B00026F010066C2D0BD0682D09D04C2D39D0AB
:1005C0006A2D35D0742D35D07A2D33D016E038E031
:1005D000E1682F4620468847B842054609D16C2F6E
:1005E00026D04FF48060E1680643204688470546E0
:1005F00004E06C2F1AD04FF4807006430DB3A5F1C0
:100600004100192802D8203546F400664A4629469A
:10061000204626604E46FFF711FE80B101280BD020
:10062000F61D26F0070000F1080956E74020E4E730
:100630008020D8E70020D6E706F104094DE72846D8
:1006400052E7206ABDE8F09FE851000010B5431C56
:1006500002E010F8011B71B18107FAD14FF00132AD
:1006600002C88C1A8C4314EAC211F9D0C01A0A06C7
:1006700003D0C01E10BDC01A10BD0A0401D0801ED8
:1006800010BD0902FCD0401E10BD421E12F8013FF1
:10069000002BFBD111F8013B002B02F8013BF9D1F3
:1006A000704710B5203AC0F00B80B1E81850203ADE
:1006B000A0E81850B1E81850A0E81850BFF4F5AF02
:1006C0005FEA027C24BFB1E81850A0E8185044BF8C
:1006D00018C918C0BDE810405FEA827C24BF51F8F9
:1006E000043B40F8043B08BF7047D20728BF31F8ED
:1006F000023B48BF11F8012B28BF20F8023B48BF3E
:1007000000F8012B70474FF0000200B513469446E5
:100710009646203922BFA0E80C50A0E80C50B1F159
:100720002001BFF4F7AF090728BFA0E80C5048BF6D
:100730000CC05DF804EB890028BF40F8042B08BF0B
:10074000704748BF20F8022B11F0804F18BF00F807
:10075000012B7047704770477047704770B504466B
:1007600085690068C10601D5302600E02026C00753
:1007700007D070BDD4E9012130469047206A401C63
:1007800020626D1EF6D570BD70B50446856900788F
:10079000C00707D170BDD4E9012120209047206A0D
:1007A000401C20626D1EF6D570BD09684A0501D552
:1007B00040B27047C905FCD500B2704709684A05C8
:1007C00001D5C0B27047C905FCD580B270472DE98C
:1007D000F0470D4699469246044600F12408016808
:1007E000880604D5E06921F01001216000E00120B5
:1007F000A84201DD471B00E00027A1697A1902EB3E
:100800000900081AA0612078C00602D42046FFF72C
:10081000A5FF002608E0D4E901211AF80600904758
:10082000206A401C761C20624E45F4DB2078C0060E
:100830000AD52046FFF792FF06E0D4E901213020D7
:100840009047206A401C2062381EA7F10107F4DCA3
:1008500007E0D4E9012118F805009047206A401C00
:100860002062281EA5F10105F3DC2046FFF78CFF6E
:100870002078000602D50220BDE8F0870120FBE7C2
:1008800011680268006A530501D508700AE0D305B3
:1008900001D5088006E0130603D5C217C1E900029E
:1008A00000E008600120704770472DE9FF4F0C46BB
:1008B0001E464FF0FF378BB0D2E90001DDF86080B3
:1008C0000A908A46C1F30A5505B93D4600210846FB
:1008D0004FF00000BAF1000F00F4400005DA00EB21
:1008E00080004FF4400101EA50004FEA9059B9F1FD
:1008F000010F00DDB9460A9850EA4A000ED044F6CE
:100900001050A5F2FF3545432F14B8F1000F1ED04B
:100910007542291E1EDDC9F100021CE0B8F1010F6D
:100920004FF0000001D0302103E0F24305E02154F4
:10093000401CB042FBDB30460022002121540B99C1
:10094000C1F80880C1E900200FB0BDE8F08FBD1BE1
:100950006D1CDEE74A4600DA694206A800F0BEFBDD
:1009600006AB93E8070003AB83E8070050460A99FB
:1009700000F0BEFC8DE80700A0F500501F38009085
:100980000398002D09DD42F21F014A46084403A9DD
:100990000390684600F01DFF08E0A0F500504A46AD
:1009A0001F3803A90390684600F027FF8DE8070071
:1009B0000004000C03D04FF0FF30410800E0104667
:1009C000B8F1000F03D00022009215461EE0751EFC
:1009D00005D400F0E7FA303262556D1EF9D5B34602
:1009E0000122084302D000227F1C04E02078302836
:1009F00001D100227F1E002A099786D01DE0112D0B
:100A000007DA00F0CFFA303262556D1C50EA01026D
:100A1000F5D1084302D00098C8B10EE00021681E4D
:100A200005E0235C625C63542254401E491C8142F1
:100A3000F7DBAB46A81B401E0990002004F80B0012
:100A40000B98099AC0F80880C0E9002B7CE71126B2
:100A50004FF0000859E72DE9F04F88460446D21DB3
:100A600022F0070191B0D1E90001CDE90A0103F0BC
:100A70003BFA02460B98C00F01D02D2007E02068FA
:100A8000810701D52B2002E0202101EAC000032AC2
:100A9000099001D0072A05DB03464146204600F0B5
:100AA000C7FA0BE12078800601D5E06900E0062056
:100AB000B8F1650F814606D0B8F1660F18D0B8F1CD
:100AC000670F70D131E00020B9F1110F009001DB08
:100AD000112301E009F101030AAA01A90CA8FFF7FB
:100AE000E4FEDDE90C70002609F10105834647E0CC
:100AF00001204B4600904FF000470AAA01A90CA81C
:100B0000FFF7D3FEDDE90DB00C995D46002610B964
:100B100009F101000D18B9EB050003D4C0F1FF364F
:100B200009F10105A5EB09002BE0B9F1010F01DA8C
:100B30004FF001090020B9F1110F0090484601DD86
:100B4000112300E003460AAA01A90CA8FFF7ADFE95
:100B5000DDE90C704D4600268346207800070AD454
:100B6000AB4500DA5D4601A8012D04DD411911F8FD
:100B7000011C302907D04F4502DA17F1040F04DABF
:100B8000012082460FE06D1EEEE7002F02DCED1B18
:100B90003E4403E0781CA84200DD7D1CB81B00F138
:100BA000010A4FF000472078000703D4AA4501DB73
:100BB0004FF0FF3A0021B7F1004F0DF143088DF8D7
:100BC000431024D002202B23002F01DA7F422D2353
:100BD0000A21021EA0F1010000DC5FB197FBF1FCCD
:100BE00097FBF1F201FB1C7C17460CF1300C08F866
:100BF00001CDEEE7A8F1010003702188090501D5B8
:100C0000452100E06521A0F1010800F8011C0998C8
:100C10000FA9A1EB0807FF1D00B10120411901EB4D
:100C2000EA70A1693844081A401EA0612078C00605
:100C300002D42046FFF792FD099828B1D4E901219A
:100C40009047206A401C20622078C00622D52046AA
:100C5000FFF784FD1EE0002E04DBB34502DD01A892
:100C6000805D00E03020D4E901219047206A401CDB
:100C70002062761CAAF101005FEA000A0AD100F0A6
:100C80008DF9C0680168405CD4E901219047206A71
:100C9000401C2062281EA5F10105DCDC07E0D4E938
:100CA000012118F8010B9047206A401C2062381E71
:100CB000A7F10107F3DC2046FFF766FD032011B022
:100CC00043E6000001694A1C02610878704700B5DC
:100CD0008FB0CDE901310021059105497944CDE975
:100CE000031011466846FFF7EDFB0FB000BD000092
:100CF000E5FFFFFF0A6802F8010B0A607047D1E9BF
:100D000000239A4202D2531C0B601070704710B53A
:100D1000436913B1AFF3008001E0FFF76DFB0120E1
:100D200010BD127800F124010A7000224A700122DD
:100D3000EDE711684FF0FF32E9E70000074B70B5AF
:100D40000D467B44FFF7C3FF0446284600F034FA03
:100D500010B14FF0FF3070BD204670BDA7320000CB
:100D60002DE9FF5F15468A460446DFF8AC80F8445B
:100D70000027D8E900103E46CDE9001010E03AF80F
:100D800016106A4602A800F01BFA411C07D0217811
:100D9000890603D5E269391891420DD80744761CBB
:100DA0002078800602D5E069B84205DDAE42E6DB78
:100DB0003AF816000028E2D1A069C01BA0612046C5
:100DC000FFF7CCFCD8E90010CDE90010002017E0B7
:100DD0003AF818106A4602A800F0F2F9B0F1FF3FA5
:100DE00081460BD000250DF1080B05E0D4E9012167
:100DF0001BF8050090476D1C4D45F7D308F1010025
:100E0000B0428046E4DB206A384420622046FFF787
:100E1000BBFCBDE8FF9F0000624900002DE9F041E6
:100E20008046D21D22F007020025D2E90002F529F2
:100E300015A614D0011E72F1000106DA0023D0EBD2
:100E4000030063EB020211A608E0D8F800108B073C
:100E500001D50FA602E0490701D50EA601251146CE
:100E6000002408F1240704E000F09CF830323A55E1
:100E7000641C50EA0102F7D12B4632462146404617
:100E8000BDE8F041FFF7A3BC000000002D0000000A
:100E90002B0000002000000030B4002100F12404E9
:100EA00008E002F00705D208303542EA4372DB0859
:100EB0006554491C52EA0305F3D10468002310A2CB
:100EC000250708D504F020040C4304D0C46901238D
:100ED0000CA2641EC46130BCFFF779BC10B5044697
:100EE00021461068FFF76AFC02462046BDE8104024
:100EF0000023D1E7D21D22F00701D1E90023CBE77F
:100F00000000000030000000F0B40D460188090523
:100F100002D5214C7C4402E01F4C7C440E3400215D
:100F200000F1240608E002F00F071209E75D42EA2B
:100F300003721B097754491C52EA0307F3D1027864
:100F40000023120704D5702D06D009B102231134F5
:100F50002246F0BCFFF73BBC01231034F8E770B524
:100F600004460D4621461068FFF728FC0246294634
:100F70002046BDE870400023C6E7D21D22F00703DB
:100F8000D3E90023C0E70368126843F0200303603D
:100F90000823C3610023B7E7C44700000048704737
:100FA000F807002030B5B0F10A024FEA900E71F157
:100FB00000034EEA817EB0EB0E0061EB91014FEA37
:100FC000101E4EEA017E10EB0E0041EB11114FEAAC
:100FD000102E4EEA016E10EB0E0041EB11214FEA8C
:100FE000104E4EEA014E10EB0E0041EB114140183D
:100FF00041F100014FEAD00040EA41704FEAD101CF
:1010000010EB80054FEA810444EA907444EB01043C
:101010006D1944EB0404521BA3414FF0000348BF79
:101020000A3200D530BD401C41F1000130BD000046
:101030002DE9F0411F46044603260168072A01F402
:10104000006004DB08B116A505E016A503E008B1B1
:1010500015A500E015A521F010002060A069C01EB4
:10106000A0610FB1401EA0612046FFF777FB4FB192
:10107000D4E9012138469047206A401C2062C01CF8
:10108000206206E0206AFAE7D4E9012115F8010B95
:101090009047761EF8D22046FFF776FBBDE8F08138
:1010A0004E414E006E616E00494E4600696E66000C
:1010B00010B5436913B1AFF3008001E0FFF750FEB4
:1010C000012010BD128800F1240182840022C28414
:1010D0000122EDE711684FF0FF32E9E72DE9F04713
:1010E000814616468AB0334878440DC88DE80D0015
:1010F00030487844801C03AC0DC884E80D0041F6EC
:101100009B300844372190FBF1F290FBF1F5A5F1FB
:10111000800501FB12041B3C02D56442012000E063
:101120000020DFF890A080460027FA44AAF1BE0A0A
:101130000DE0E00709D03246684607EB47010AEBAD
:10114000810100F05AFB8DE8070064107F1C002C21
:10115000EFD1184F7F44AC3F18E0E80714D007EBFD
:1011600004100DF1180A90E80E008AE80E00C0681D
:10117000F04201D198190890324606A903A800F060
:101180003CFB03AB83E807006D10641C002DE4D129
:1011900032466946B8F1000F03A802D000F019FBEF
:1011A00001E000F02AFBC9E90001C9F808200AB0F3
:1011B000BDE8F08794460000007B00F08000704797
:1011C00070B516460C46054600F044F8036893F8DF
:1011D0000101012806D0FF2C0FD8185D68B101204D
:1011E0002C7070BDD3F807013246214603F2071375
:1011F00003442846BDE8704018474FF0FF3070BDEB
:1012000000487047D80700207546FFF7F9FFAE4643
:1012100005006946534620F00700854618B020B502
:10122000FFF786F8BDE820404FF000064FF00007BA
:101230004FF000084FF0000B21F00701AC46ACE87E
:10124000C009ACE8C009ACE8C009ACE8C0098D46EB
:101250007047000010B5FFF7A1FE001D10BD00BFD4
:10126000713500000446AFF300802046FFF74BF8CD
:101270004FF0013C50F8042B51F8043B9A4221D125
:10128000A2EB0C03934313EACC1317D150F8042BB1
:1012900051F8043B9A4215D1A2EB0C03934313EA95
:1012A000CC130BD150F8042B51F8043B9A4209D1CE
:1012B000A2EB0C03934313EACC13DBD04FF00000F6
:1012C000704700BFD01A01BAB1FA81F101F01801DC
:1012D00022FA01F0CB40C1F12001DBB2C0B2C01A4A
:1012E0002CFA01F3D11A914311EAC311E6D17047E8
:1012F0005FEA400C08BF91F0000F4FEA8C234FEAE1
:10130000C12243EA51514FEA1C5018BF00F5F0408A
:101310004FEA300018BF41F000415FEA6C5C00F01A
:101320002980BCF1FF3F08BF40F080407047130C9C
:1013300006BF12044FF0100C4FF0000C130E04BF48
:1013400012020CF1080C130F04BF12010CF1040C73
:10135000930F04BF92000CF1020CD30F04BF520094
:101360000CF1010C11464FF00002A0F11F00A0EBA0
:101370000C00704711F0004F08BF704731F000417A
:101380003FF4D5AF0B0C06BF09044FF0100C4FF023
:10139000000C0B0E04BF09020CF1080C0B0F04BF6C
:1013A00009010CF1040C8B0F04BF89000CF1020C35
:1013B000CB0F04BF49000CF1010CCCF12003A0EBD2
:1013C0000C0022FA03F302FA0CF241EA030100F1E5
:1013D0000100704720F07F4C80EA030023F07F4734
:1013E000ACEB070303F57C5300F0004003F1FF036F
:1013F0002DE980494FEA154B09B44FEA144325EA19
:101400000B4E24EA03480FF2042606EB1327490883
:101410003E785FEA320203FB0667C7F5000707FB69
:1014200006F64FEA54374FEAD64606F1020607FBA6
:10143000066CCCF1005C4FEA1C472CEA074C07FB1A
:1014400006F40CFB06F504EB15464FEA961634BF7E
:1014500000204FF000404FEAD13706FB07FC4FEA6F
:101460001C4C0CFB0BF7D21B03FB0CF761EB0701C9
:101470000CFB0EF7B0EB074072EB17420CFB08F7C2
:1014800034BFA2EB0742B2EB074261EB17414FEAD0
:101490000C444FEA910706FB07FC4FEA1C4C0CFB7F
:1014A0000BF7B0EBC74072EB573203FB0CF734BFBE
:1014B000A2EBC742B2EBC74261EB57310CFB0EF710
:1014C000B0EBC70072EB57720CFB08F734BFA2EB0E
:1014D000C702B2EBC70261EB5771039F4FEA81610C
:1014E00041EA921104EBCC044FEAD1374FEA826211
:1014F00006FB07FC42EA90124FEA80604FEA1C4C60
:101500000CFB0BF7D21B03FB0CF761EB07010CFB89
:101510000EF7B0EB074072EB17420CFB08F734BF35
:10152000A2EB0742B2EB074261EB17414FEA8C5541
:101530004FEA910704EB9C2406FB07FC4FEA1C4C86
:101540000CFB0BF7B0EBC74072EB573203FB0CF709
:1015500034BFA2EBC742B2EBC74261EB57310CFB81
:101560000EF7B0EBC70072EB57720CFB08F734BFF5
:10157000A2EBC702B2EBC70261EB577115EB4C252A
:101580004FEA816141EA92114FEA82624FEAD13714
:1015900042EA901206FB07FC44F100044FEA806027
:1015A0004FEA1C4C0CFB0BF7D21B03FB0CF761EB57
:1015B00007010CFB0EF7B0EB074072EB17420CFB78
:1015C00008F734BFA2EB0742B2EB074261EB1741C9
:1015D00015EB1C154FEA813141EA92414FEA823204
:1015E00042EA90424FEA80304FEA0C7644F1000420
:1015F00048EA03434EEA0B484FF0000EB2EB080CEA
:1016000071EB030724BF624639464EEB0E0E4FF0D6
:10161000000B0018524149414BEB0B0BB2EB080C8D
:1016200071EB03077BF1000B24BF624639464EEB9A
:101630000E0E4FF0000B0018524149414BEB0B0BC3
:10164000B2EB080C71EB03077BF1000B24BF624681
:1016500039464EEB0E0E51EA020718BF46F001065E
:1016600016EB0E7655F1000254F1000103D5BDE8EA
:101670008901BDE80088BDE88901BDE80048B619C8
:10168000524141EB0101A3F10103704780807F7E4D
:101690007D7C7B7A797877767675747372717170E8
:1016A0006F6E6E6D6C6C6B6A6A696868676666659A
:1016B0006464636362616160605F5F5E5E5D5D5C28
:1016C0005C5B5B5A5A595958585757565655555599
:1016D0005454535352525251515050504F4F4F4EF9
:1016E0004E4D4D4D4C4C4C4B4B4B4A4A4A49494947
:1016F0004848484747474746464645454544444489
:10170000444343434342424242414141002B26D499
:10171000770021D01CB54FEA370703B44FF0100013
:101720004FF010014FF000000FBCBDE810400BF16E
:10173000010BBBF1010F08BF5FEA170722BF12F1CF
:10174000010211F101014FF0004143F1000300F0EB
:10175000004043EA00007047F9D35708DAE746EA49
:10176000064613F1400F4FEA16461FDD13F1200F16
:10177000DFBF16430A46002120335B42C8D0C3F1C5
:10178000200746EA064602FA07F74FEA164646EAF7
:101790000706C3F1200722FA03F201FA07F721FA3C
:1017A00003F14FF0000342EA0702B1E746EA0206FE
:1017B00046EA06464FEA164646EA0106BCBF46EA36
:1017C0000646360C4FF000034FF000024FF00001C8
:1017D0009EE72DE9C048934630B491E8380007C829
:1017E00031EA400C48BF34EA430C03D5FFF7F2FD61
:1017F000FFF78CFFF0BCBDE800882DE9C048934698
:1018000030B491E8380007C810F0804F08BF13F0DB
:10181000804F03D100F005F8FFF778FFF0BCBDE87A
:10182000008820F07F4780EA030023F07F4C07EB1D
:101830000C03A3F57C5300F00040A3F1FE0392F0EB
:10184000000F00F0B38095F0000F00F077802DE9D5
:1018500001494FEA11404FEA144621EA004800FBD3
:1018600006FC24EA064708FB06F607FB08F800FB1F
:1018700007F718EB06484CEB164C4FEA124B18EBE7
:1018800007484FEA15464CEB174022EA0B4E0BFB7C
:1018900006FC25EA06470EFB06F607FB0EFE0BFBD1
:1018A00007F71EEB064E4CEB164C4FF000061EEBF6
:1018B000074E4CEB174B18EB0B0840F1000018EBF0
:1018C0000E0B58EB000840F100008F1A4FF000019A
:1018D0003CBFC943661B14BFB5EB040C00213CBFE1
:1018E000C943F61B4FEA17444EEA8E0E27EA044519
:1018F0004FEA1C4704FB07622CEA074C05FB07F77D
:101900000CFB05F604FB0CFC16EB074642EB1742FA
:1019100016EB0C4642EB1C421BEB060658EB020290
:10192000414146EA9E0601D5BDE80189B6195241FA
:1019300041EB0101A3F10103BDE801894FEA144520
:101940004FEA114724EA054621EA074C05FB07F454
:1019500006FB07F70CFB06F105FB0CFC11EB07413E
:1019600044EB17444FEA124711EB0C4144EB1C4483
:1019700022EA074C05FB07F206FB07F70CFB06F60D
:1019800005FB0CFC16EB074642EB174216EB0C4628
:1019900042EB1C456A1854F1000148BF7047B61964
:1019A000524141EB0101A3F10103704795F0000F93
:1019B00037D04FEA11424FEA144721EA024624EA9F
:1019C000074C02FB07F106FB07F70CFB06F402FBD2
:1019D0000CFC14EB074441EB17414FEA154714EB9D
:1019E0000C4441EB1C4125EA074C02FB07F506FBC2
:1019F00007F70CFB06F602FB0CFC16EB074645EB63
:101A0000174516EB0C4645EB1C42121951F100012B
:101A100048BF7047B619524141EB0101A3F10103E0
:101A200070474FEA14454FEA114724EA054621EA78
:101A3000074C05FB07F106FB07F70CFB06F24FF01E
:101A4000000605FB0CFC12EB074241EB174112EBC1
:101A50000C4251EB1C4148BF7047921841EB010109
:101A6000A3F10103704721B1826842F00102826054
:101A700003E0826822F00102826070470021084A78
:101A80001168084A1140D0E900231A4383681A43B9
:101A9000C3681A431143044AC2F804137047000094
:101AA00004230140E030FCFF002001400146C86CE7
:101AB00080B270470246002013680B400BB1012032
:101AC00000E000207047000030B5024600200023EF
:101AD0005068104C20400D790C6844EA05242043DE
:101AE000506090680C4C2040D1E903542C438D6821
:101AF0002C434D7944EA450420439060D06A20F499
:101B000070000C7D641EE4B2234340EA0350D062AF
:101B100030BD0000FFFEFFFCFDF7FFC0F0B504463E
:101B20000D4600200021092D11DDE068A5F10A060F
:101B300006EB4607072606FA07F18843A5F10A06D1
:101B400006EB460603FA06F10843E0600CE0206964
:101B500005EB4507072606FA07F1884305EB45061E
:101B600003FA06F108432061072A0FDA606B561E5C
:101B700006EB86071F2606FA07F18843561E06EB7A
:101B8000860605FA06F10843606322E00D2A0FDAA3
:101B9000206BD61F06EB86071F2606FA07F188433F
:101BA000D61F06EB860605FA06F10843206310E00F
:101BB000E06AA2F10D0606EB86071F2606FA07F17A
:101BC0008843A2F10D0606EB860605FA06F10843E6
:101BD000E062F0BD816841F08041816070470000A3
:101BE0001CB50121102001F07FF9012000908DF833
:101BF000040000208DF806008DF8050002208DF805
:101C000007006946034800F0AFFB0121014800F0DE
:101C10001FFC1CBD0010024000BFFEE70748006823
:101C200040F080700549086000200549486008467A
:101C3000006840F00100086070470000FCED00E023
:101C4000001000E00148406870470000001000E00C
:101C500031B50024FFF7E2FF104800681049B0FBDF
:101C6000F1F0009900FB01F500BFFFF7EBFF034621
:101C700011E0FFF7E7FF02469A420CD09A4202D9E0
:101C8000D01A044403E0C3F1FF3010440444134667
:101C9000AC4200D300E0ECE700BF38BD28000020D4
:101CA00040420F001CB50121022001F01DF98020E7
:101CB000009001208DF8040000208DF8060001201E
:101CC0008DF8070002208DF805006946014800F0F4
:101CD0004BFB1CBD000402401CB58020009000207E
:101CE0008DF804008DF8070002208DF80500694684
:101CF000014800F039FB1CBD000402401CB58020E7
:101D0000009001208DF8040000208DF806000120CD
:101D10008DF8070002208DF805006946014800F0A3
:101D200023FB1CBD000402407047000010B50A20D0
:101D300002F01AF901212F4800F081FB012855D14A
:101D40002DA0FEF71BFB40212A4800F081FB01205B
:101D500002F00AF94021274800F07CFB2A4800687D
:101D600008B9012000E00020274908600846006803
:101D7000F0B90120254908600846006820B101211A
:101D8000234800F065FB03E00121214800F062FBDD
:101D90001E48006820B102211D4800F059FB03E0F5
:101DA00002211B4800F056FB01201A4908601DE083
:101DB0000020164908600846006820B10121144837
:101DC00000F046FB03E00121114800F043FB0F48FF
:101DD000006820B102210E4800F03AFB03E0022126
:101DE0000B4800F037FB00200A490860012000F092
:101DF00065F910BD00000240696E7075743A4B457C
:101E0000595F55500D0A0000600000205C00002062
:101E1000000C02404C00002010B5022000F04EF9EA
:101E200010BD10B5042000F049F910BD10B50A200E
:101E300002F09AF80821234800F001FB00283DD168
:101E400021A0FEF79BFA4021234800F001FB01206E
:101E500002F08AF84021204800F0FCFA1F48006890
:101E600008B9012000E000201C490860084600680D
:101E700090B901201A4908600846006820B1042181
:101E8000184800F0E5FA03E00421164800F0E2FAF1
:101E900001201549086011E000201149086008463A
:101EA000006820B104210F4800F0D2FA03E00421B9
:101EB0000C4800F0CFFA00200B490860082000F021
:101EC000FDF810BD00100240696E7075743A4B4504
:101ED000595F310D0A00000000000240640000203C
:101EE00040000020000C02404C00002010B50A20E9
:101EF00002F03AF81021234800F0A1FA00283DD161
:101F000021A0FEF73BFA4021234800F0A1FA01206E
:101F100002F02AF84021204800F09CFA1F4800688F
:101F200008B9012000E000201C490860084600684C
:101F300090B901201A4908600846006820B10821BC
:101F4000184800F085FA03E00821164800F082FAEC
:101F500001201549086011E0002011490860084679
:101F6000006820B108210F4800F072FA03E0082150
:101F70000C4800F06FFA00200B490860102000F0B8
:101F80009DF810BD00100240696E7075743A4B45A3
:101F9000595F300D0A000000000002406800002078
:101FA00058000020000C0240480000200EB500F050
:101FB00007FC00F0EDFB01F04BF800F081FC012183
:101FC000880300F0B1FF0121042001F0F7F802219D
:101FD000042001F0F3F80321042001F0EFF80421BC
:101FE000084601F0EBF80021084601F0E7F801206F
:101FF000009000208DF8040008208DF805000120D5
:102000008DF80600684600F05FF81E200090002062
:102010008DF804000C208DF8050001208DF80600D5
:10202000684600F051F806208DF8080000208DF871
:10203000090002208DF80A0001208DF80B0002A88B
:1020400000F0F8FB07208DF8080003208DF8090048
:1020500002208DF80A0001208DF80B0002A800F084
:10206000E9FB08208DF8080003208DF80900022004
:102070008DF80A0001208DF80B0002A800F0DAFBB1
:1020800009208DF8080002208DF809008DF80A005B
:1020900001208DF80B0002A800F0CCFB0A208DF87F
:1020A000080001208DF8090002208DF80A000120A7
:1020B0008DF80B0002A800F0BDFB0EBD01490860C1
:1020C00070470000143C0140002123498279002A16
:1020D0003AD00A46126803689A430B461A600A1DF2
:1020E000126803689A430B1D1A60027911440A684A
:1020F00003681A430A60184A0832126803689A4350
:10210000154B08331A601A1D126803689A43124B64
:102110000C331A604279102A0ED11A1F1268036814
:102120001A430D4B08331A601A1D126803681A43CC
:10213000094B0C331A600DE00749427911440A68D3
:1021400003681A430A6005E0027911440A680368CB
:102150009A430A6070470000003C014010B54FF4FC
:10216000A06000F0A3FBA82001F0E0FE4FF4E130F6
:1021700002F0C2FA29A0FEF701F94FF4E13002F0B3
:10218000DDF92DA0FEF7FAF800F032FB30A0FEF7E3
:10219000F5F800F05DFF34A0FEF7F0F8FFF706FF5A
:1021A00038A0FEF7EBF8FFF77DFD3CA0FEF7E6F860
:1021B00000F0A4F940A0FEF7E1F801F001F944A015
:1021C000FEF7DCF800F083FD002000F063FD46A080
:1021D000FEF7D4F8FFF704FD49A0FEF7CFF801F0B1
:1021E00085FD4DA0FEF7CAF84021514800F030F9B6
:1021F00080214F4800F02CF9322001F0B5FE40213B
:102200004B4800F027F98021494800F023F949A004
:10221000FEF7B4F84DA0FEF7B1F810BD5541525489
:1022200031C9E8B1B8B3F5CABCBBAF3A20094F4BCE
:1022300020210D0A000000005541525432C9E8B176
:10224000B8B3F5CABCBBAF3A094F4B20210D0A0009
:102250004C4544C9E8B1B8B3F5CABCBBAF3A200994
:10226000094F4B20210D0A0052454C4159C9E8B194
:10227000B8B3F5CABCBBAF3A20094F4B20210D0AB9
:10228000000000004558544958B3F5CABCBBAF3AEA
:102290002009094F4B20210D0A0000004448543109
:1022A00031C9E8B1B8B3F5CABCBBAF3A20094F4B4E
:1022B00020210D0A00000000494943C9E8B1B8B324
:1022C000F5CABCBBAF3A2009094F4B20210D0A00CB
:1022D000414443C9E8B1B8B3F5CABCBBAF3A200921
:1022E000094F4B20210D0A004F4C4544C9E8B1B8B5
:1022F000B3F5CABCBBAF3A20094F4B20210D0A00F1
:1023000042454550C9E8B1B8B3F5CABCBBAF3A20A5
:10231000094F4B20210D0A0057494649C9E8B1B879
:10232000B3F5CABCBBAF3A20094F4B20210D0A00C0
:10233000000002404C4544C9E8B1B8D7D4BCEC3ADF
:102340002009094F4B20210D0A000000CBF9D3D002
:10235000C9E8B1B8B3F5CABCBBAF3A20094F4B20AE
:10236000210D0A0A00000000F0B50A4600210023F2
:10237000002400BF3DE0012505FA01F3156805EAD8
:1023800003049C4234D105684F000326BE40B54388
:10239000056015794E00B54006683543056015792E
:1023A000012D02D01579022D16D185684F00032624
:1023B000BE40B543856055794E00B54086683543CB
:1023C0008560456801268E40B5434560456896792D
:1023D0008E40B6B235434560C5684F000326BE4007
:1023E000B543C560D5794E00B540C6683543C56074
:1023F000491C1029BFD3F0BDF0B5002300244D07C0
:10240000ED0E02FA05F3CE1000F1200555F8265026
:102410004E07F70E0F26BE40B543CF1000F1200641
:1024200046F82750CE1000F1200555F8265045EA11
:102430000304CE1000F1200545F82640F0BD024609
:10244000002013690B400BB1012000E00020704711
:10245000418370470183704710B50446072301226A
:1024600021460848FFF75AFB0648FFF7B3FB00BFB9
:1024700002210448FFF71EFB0028F9D00148FFF7AE
:1024800015FB10BD002001402DE9F04107460C4628
:102490000025002608E03846FFF7DEFF054405204A
:1024A00001F062FD701CC6B2A642F4DBB5FBF4F08D
:1024B00080B2BDE8F08100BFFEE770B5024600249F
:1024C000002500230020958A138B1B0445EA030690
:1024D00026F07F4404EA01068E4201D1012000E08B
:1024E000002070BD21B1028842F00102028004E0A8
:1024F00002884FF6FE731A400280704700B587B01D
:102500000121480500F000FD0121022000F0ECFC53
:10251000042208211E48FFF76FFF042209211C48EE
:10252000FFF76AFF4FF48070059002208DF81800C5
:102530008DF8190001208DF81A0000208DF81B007D
:1025400005A91348FFF710FF4FF40070059005A987
:102550000F48FFF709FF0020ADF808004BF6FF70A9
:10256000ADF80A007820ADF80C004FF48060ADF8AB
:102570000E000001ADF810000648019001A90648C0
:1025800000F042F801210448FFF7ACFF07B000BD9E
:1025900000040240801A06000054004021B1028865
:1025A00042F48072028004E002884FF6FF631A4012
:1025B0000280704721B1028842F40072028004E078
:1025C00002884FF6FF531A40028070470CB502464E
:1025D000002000230193009300920B0F019321F040
:1025E0007F41019B1BB1009B1433009303E0090C56
:1025F000009B18330093009B1B680B400BB101201C
:1026000000E000200CBD00002DE9FF4704460D4608
:102610000026B1460427DFF8CC80A6884FF6C070AC
:102620000640684600F0A0FCDDF808802E48B8FBA4
:10263000F0F01FFA80F946EA0906A68020884FF6D6
:10264000FE710840208000262849286888420CD85E
:1026500028684000B8FBF0F087B2042F00DA0427A6
:102660003E4309F10100208427E0E8884BF6FF7122
:10267000884206D1286800EB4000B8FBF0F087B232
:1026800009E0286800EBC00101EB0010B8FBF0F096
:1026900087B247F48047C7F30B0008B947F001073A
:1026A00047F4004006434FF4967009FB00F04FF4E6
:1026B0007A7190FBF1F0401C2084A683208840F0C2
:1026C0000100208026884FF6F5300640A8886989E9
:1026D000084306432680A889298908432081BDE84C
:1026E000FF87000000127A0040420F00A086010020
:1026F00012B141F0010101E001F0FE0101827047D9
:102700000182704770B504460D4600BF4FF400319A
:102710001C48FFF75BFF0028F8D101211948FFF79B
:102720003DFF00BF18491748FFF7C7FE0028F9D042
:10273000002278211348FFF7DBFF00BF134911483F
:10274000FFF7BBFE0028F9D021460E48FFF7D8FF5F
:1027500000BF0E49891C0B48FFF7AFFE0028F8D0D8
:1027600029460848FFF7CCFF00BF0849891C0548E7
:10277000FFF7A3FE0028F8D001210248FFF71AFF57
:1027800070BD0000005400400100030082000700FB
:102790001CB50121102000F0A7FB1820009000209C
:1027A0008DF8040003208DF8050001208DF8070046
:1027B00069460248FFF7D8FD1CBD0000001002402A
:1027C0001CB50121084600F08FFB0120009000207D
:1027D0008DF8040003208DF8050002208DF8070015
:1027E00069460248FFF7C0FD1CBD00000000024022
:1027F0001CB50121084600F077FBC02000900120A5
:102800008DF8040000208DF806008DF805000120E9
:102810008DF8070069460448FFF7A6FDC02102486D
:10282000FFF718FE1CBD00000000024000BFFEE7DD
:102830007047000070B5002100230F22C4781CB33C
:10284000174C246804F4E064C4F5E064C4F3072181
:10285000C1F10404E3B20A4144789C40E1B28478B7
:10286000144021430C07210E0E4C05786155047865
:1028700004F01F050124AC4005786D11AD0005F191
:10288000E025C5F8004109E0047804F01F050124A3
:10289000AC40054D0678761145F8264070BD000025
:1028A0000CED00E000E400E080E100E002490143BB
:1028B000024A1160704700000000FA050CED00E0CC
:1028C0001CB50121102000F00FFB06200090002015
:1028D0008DF8040003208DF8050001208DF8070015
:1028E00069460248FFF740FD1CBD00000010024091
:1028F00010B501237F4A02211E2000F07DFA01233A
:102900007DA202212B2000F077FA01237B4A0221CD
:10291000302000F071FA0123794A0221582000F09A
:102920006BFA012374A20221652000F065FA0123ED
:10293000744A02216A2000F05FFA0123724A0421DE
:102940001E2000F059FA71480068A0B9012370A256
:102950000621282000F050FA01236DA206216820EC
:1029600000F04AFA6BA0FDF709FD6FA0FDF706FD28
:1029700071A0FDF703FD65480068012814D101230B
:1029800071A20621282000F037FA01236EA2062149
:10299000682000F031FA6DA0FDF7F0FC70A0FDF7A3
:1029A000EDFC73A0FDF7EAFC7548006840B901230F
:1029B00057A20721682000F01FFA72A0FDF7DEFC85
:1029C0006F480068012808D101235FA20721682011
:1029D00000F012FA6FA0FDF7D1FC7248006858B9F8
:1029E0007148006840B9012370A20421582000F00A
:1029F00003FA70A0FDF7C2FC6A48006801280CD1F8
:102A000069480068012808D101236FA204215820D9
:102A100000F0F2F96EA0FDF7B1FC6248006860B901
:102A200061480068012808D101236FA204215820C1
:102A300000F0E2F96EA0FDF7A1FC5A4800680128F9
:102A40000BD15948006840B901236FA204215820D6
:102A500000F0D2F96EA0FDF791FC734890ED000AEA
:102A6000DFED720AB4EEE00AF1EE10FA02D870A0BF
:102A7000FDF784FC6C4890ED000ADFED720AB4EEBD
:102A8000E00AF1EE10FA02DB6FA0FDF777FC664872
:102A900090ED000ADFED650AB4EEE00AF1EE10FAFF
:102AA0000BDD90ED000ADFED670AB4EEE00AF1EE0F
:102AB00010FA02D268A0FDF761FC6C48006840B9CA
:102AC000012313A20721282000F096F968A0FDF742
:102AD00055FC66480068012808D101231AA2072185
:102AE000282000F089F966A0FDF748FC68A0FDF7F2
:102AF00045FC10BD200600202E0000002A06002004
:102B00000C06002016060020D00500205C000020E6
:102B10004F4E2E000D0A20B7E7C9C8D7B4CCAC3A47
:102B20004F4E0D0A000000002052454C4159302004
:102B30004F4E0D0A000000002052454C41593120F3
:102B40004F4E0D0A000000004F4646000D0A20B708
:102B5000E7C9C8D7B4CCAC3A4F46460D0A000000CE
:102B60002052454C415930204F46460D0A00000086
:102B70002052454C415931204F46460D0A00000075
:102B8000400000202052454C415932204F4E0D0A42
:102B9000000000002052454C415932204F46460D5E
:102BA0000A00000054000020500000204C6F7720E5
:102BB000200000000D0A20D0EECBAEB3D8D7B4CCA5
:102BC000AC3A4C6F770D0A0046616C6C2000000037
:102BD0000D0A20D0EECBAEB3D8D7B4CCAC3A466118
:102BE0006C6C0D0A00000000416D706C6500000007
:102BF0000D0A20D0EECBAEB3D8D7B4CCAC3A416DF1
:102C0000706C650D0A0000004552524F52000000E2
:102C10000D0A20D0EECBAEB3D8B4ABB8D0C6F7B463
:102C2000EDCEF3A3A10D0A00080000200000204211
:102C30000D0A20CDC1C8C0CAAAB6C8B9FDB5CD0D10
:102C40000A000000000096420D0A20CDC1C8C0CA8B
:102C5000AAB6C8B8DF0D0A000D0A20CDC1C8C0CA87
:102C6000AAB6C8CACAD2CB0D0A000000580000207C
:102C70002052454C415933204F4E0D0A00000000B0
:102C80002052454C415933204F46460D0A00000062
:102C90000D0A000070B50646002415E004F1B001ED
:102CA000C8B201F013F9002001F010F9102001F072
:102CB0000DF9002504E0304601F00FF9681CC5B29B
:102CC000802DF8DB601CC4B2082CE7DB70BD10B5AA
:102CD000AE2001F0FBF8202001F0F8F8102001F000
:102CE000F5F8B02001F0F2F8C82001F0EFF800206C
:102CF00001F0ECF8102001F0E9F8402001F0E6F8CE
:102D0000812001F0E3F8FF2001F0E0F8A12001F0BC
:102D1000DDF8A62001F0DAF8A82001F0D7F83F206E
:102D200001F0D4F8A42001F0D1F8D32001F0CEF8BE
:102D3000002001F0CBF8D52001F0C8F8F02001F018
:102D4000C5F8D92001F0C2F8222001F0BFF8DA203E
:102D500001F0BCF8122001F0B9F8DB2001F0B6F860
:102D6000202001F0B3F88D2001F0B0F8142001F01C
:102D7000ADF8AF2001F0AAF810BD70B504460D46BD
:102D800005F1B001C8B201F0A1F8102141EA141018
:102D900001F09CF804F00F0141F0010001F096F8F9
:102DA00070BD00002DE9F04180460E461746002414
:102DB0007D0131464046FFF7E0FF00BF06E00D49C8
:102DC000485D01F08AF86D1C601CC4B2102CF6DB63
:102DD000701CC1B24046FFF7D0FF002406E0054951
:102DE000485D01F07AF86D1C601CC4B2102CF6DB53
:102DF000BDE8F0816C0000202DE9F04706468946C9
:102E000017469A464FF0000800240025BAF1010F3A
:102E100003D0BAF1020F5ED125E020E0785D2038C2
:102E200000F0FF087E2E04DD002609F1010000F00D
:102E3000FF0949463046FFF7A0FF002409E008EBF0
:102E40004801264A02EB4101085D01F046F8601C8A
:102E5000C4B2062CF3DBB01DC6B2681CC5B2785DE7
:102E60000028DBD137E032E0785D203800F0FF0841
:102E7000782E04DD002609F1010000F0FF09494623
:102E80003046FFF77AFF002407E004EB0811144AEC
:102E9000505C01F022F8601CC4B2082CF5DB09F18B
:102EA0000100C1B23046FFF768FF002408E004EBE0
:102EB000081108310A4A505C01F00FF8601CC4B2D6
:102EC000082CF4DB06F10800C6B2681CC5B2785DB8
:102ED0000028C9D100BF00BFBDE8F087A84E000898
:102EE000D05000087047000029B1064A126802431A
:102EF000044B1A6004E0034A12688243014B1A60D3
:102F0000704700003038024029B1064A1268024377
:102F1000044B1A6004E0034A12688243014B1A60B2
:102F2000704700004038024029B1064A1268024347
:102F3000044B1A6004E0034A12688243014B1A6092
:102F4000704700004438024029B1064A1268024323
:102F5000044B1A6004E0034A12688243014B1A6072
:102F60007047000024380240F0B500210022002400
:102F7000022500260223324F3F6807F00C0121B1E1
:102F8000042905D0082937D105E02E4F076036E027
:102F90002D4F076033E02A4F3F1F3F68C7F380562D
:102FA000274F3F1F3F6807F03F036EB1264FB7FB27
:102FB000F3F7DFF88CC0ACF1040CDCF800C0CCF304
:102FC000881C07FB0CF40CE01E4FB7FBF3F7DFF88F
:102FD00070C0ACF1040CDCF800C0CCF3881C07FB1B
:102FE0000CF4174F3F1F3F68C7F301477F1C7D005C
:102FF000B4FBF5F7076002E0124F076000BF00BFA7
:103000000F4F3F6807F0F0010909104F7A5C07681D
:10301000D74047600A4F3F6807F4E051890A0B4FD9
:103020007A5C4768D7408760054F3F6807F4604186
:10303000490B064F7A5C4768D740C760F0BD000077
:10304000083802400024F40000127A00BD05002078
:103050001CB501210820FFF747FF0F200090012039
:103060008DF8040000208DF806008DF80500012081
:103070008DF8070069460448FFF776F90F210248EA
:10308000FFF7E6F91CBD0000000C024070B50025FA
:10309000002424E000BF80211348FFF7D0F9002866
:1030A000F9D02820FEF7D4FD80210F48FFF7C7F99B
:1030B00001280DD100BF80210B48FFF7C0F901287E
:1030C000F9D0C4F1070101208840C0B2054304E0F3
:1030D000C4F10701012088408543601CC4B2082C5C
:1030E000D8DB284670BD00000004024070B50446DD
:1030F000FEF704FE80212F48FFF7AAF944F620606E
:10310000FEF7A6FD80212B48FFF7A4F91E20FEF74D
:103110009FFDFEF7E1FD80212648FFF790F900288A
:1031200046D1002509E0681C85B2B5F57A7F01DD3E
:10313000002070BD0A20FEF78BFD80211D48FFF79F
:103140007EF90028EFD0002509E0681C85B2B5F5AE
:103150007A7F01DD0020ECE70A20FEF779FD80216F
:103160001448FFF76CF90128EFD0FFF78FFF2070AC
:10317000FFF78CFF6070FFF789FFA070FFF786FFF5
:10318000E070FFF783FF2071FEF7B8FD802109484A
:10319000FFF760F9207861780844A1780844E17865
:1031A00008442179884201D10120C2E70020C0E70C
:1031B0000020BEE7000402407047000030B5002246
:1031C0008B071C0F0F2303FA04F20B4B8C1053F8E0
:1031D00024309343084C8D1044F8253023468C103E
:1031E00053F824308C07240F00FA04F42343024CD4
:1031F0008D1044F8253030BD083801400CB5002052
:10320000019000903448006840F4803032490860F2
:1032100000BF3148006800F4003000900198401C65
:103220000190009818B90198B0F5A04FF1D12A4843
:10323000006800F4003010B10120009001E000208F
:1032400000900098012846D123484030006840F0A3
:1032500080502149403108602048006840F44040D7
:103260001E4908601C48083000681B490831086086
:103270000846006840F4004008600846006840F4D2
:10328000A05008601648091F0860081F006840F039
:103290008070091F086000BF0F48006800F00070D0
:1032A0000028F9D040F205700E4908600A4808303D
:1032B000006820F0030008490831086008460068EB
:1032C00040F00200086000BF03480830006800F0CA
:1032D0000C000828F8D10CBD0038024000700040F6
:1032E00008544007003C024010B52DED088B142116
:1032F0000520FFF7C9F8224908800846008800EE3B
:10330000100AB8EE400A10EE100A01F045FD41EC3B
:103310001B0B9FED1C0B53EC102B01F049FB41ECF8
:103320001A0B9FED1A0B53EC102B01F03FFC41ECF4
:10333000190B9FED180B53EC102B01F039FB41ECEE
:10334000180B01F05BFA154908600846006801F0A7
:1033500023FD41EC180B53EC182B11A0FDF70EF8D0
:103360000E48006801F018FD41EC180B53EC182BC7
:1033700010A11248FDF70EF8BDEC088B10BD00003F
:10338000060000206666666666664A3F333333335E
:1033900033330B400000000000804B400800002049
:1033A0000D0A20CDC1C8C0CAAAB6C83A252E3166BA
:1033B0000D0A0000252E316600000000D005002017
:1033C00000B58DB001210846FFF78EFD01210802EE
:1033D000FFF7AAFD20200B9003208DF8300000207D
:1033E0008DF833000BA91548FEF7BEFF0121080236
:1033F000FFF7AAFD00214FF48070FFF7A5FD002024
:1034000007900A9009904FF48030089007A8FEF7C3
:1034100035FB002001908DF808008DF8090003901D
:10342000059001208DF8180001A90548FEF74CFB16
:1034300001210348FEF717FB0DB000BD000002405C
:1034400000200140042808D14FF0E021096941F033
:1034500004014FF0E022116107E04FF0E02109691B
:1034600021F004014FF0E022116170477047000025
:1034700010B51548006840F47000134908601348FF
:10348000006840F001001149086000200F49083130
:1034900008600E4800680E4908400C4908600D4855
:1034A000091D0860081F006820F48020091F0860BB
:1034B000002006490C310860FFF7A0FE4FF00060C5
:1034C00001498039086010BD88ED00E000380240F5
:1034D000FFFFF6FE1030002410B50121094800F06E
:1034E00050F8012809D101F07FF8FFF7FDFEFFF742
:1034F000FFF90021012000F007FA0121014800F046
:1035000031F810BD000400407FB505460C4601218E
:103510000220FFF7F9FC0295ADF804400020ADF859
:103520000600ADF80C0001A90D4800F045F8012295
:1035300011460B4800F036F80121094800F015F853
:103540001D208DF8000001208DF8010003208DF86A
:10355000020001208DF803006846FFF76BF97FBD7C
:1035600000040040CA430282704721B1028842F041
:103570000102028004E002884FF6FE731A400280C6
:10358000704730B50246002000230024158A05EA62
:103590000103958905EA010413B10CB1012000E093
:1035A000002030BD1AB183890B43838102E08389F7
:1035B0008B4383817047000000220288184B984299
:1035C0000ED0184B98420BD0B0F1804F08D0164B5C
:1035D000984205D0154B984202D0154B984204D121
:1035E0004FF68F731A404B881A43124B984207D0FC
:1035F000114B984204D04FF6FF431A400B891A43EF
:1036000002804B68C3620B880385054B984202D049
:10361000044B984201D18B7A038601238382704741
:103620000000014000040140000400400008004088
:10363000000C0040001000400014004010B540F2A3
:1036400025511D4800F09BF810B31B4800F050F9BD
:10365000C4B21A48008800F40040C8B9174800886E
:1036600000F4804060B10A2C03D000201349088088
:1036700020E01248008840F400401049088019E01A
:103680000D2C06D10D48008840F480400B4908807D
:1036900010E00A480088C0F30D0009490C5407489F
:1036A0000088401C0549088008460088C72801DDBD
:1036B0000020088010BD000000100140B805002067
:1036C0004806002010B540F225511D4800F057F87B
:1036D00010B31B4800F00CF9C4B21A48008800F47B
:1036E0000040C8B91748008800F4804060B10A2C37
:1036F00003D000201349088020E01248008840F4DD
:1037000000401049088019E00D2C06D10D480088B2
:1037100040F480400B49088010E00A480088C0F35C
:103720000D0009490C5407480088401C05490880D1
:1037300008460088C72801DD0020088010BD000071
:1037400000440040BA0500201007002021B1828902
:1037500042F40052828104E082894DF6FF731A40E0
:103760008281704702460020B1F5007F00D100BF82
:1037700013880B400BB1012000E00020704770B5AA
:103780000246002400230025002040F66A16B142BC
:1037900000D100BFC1F3421501F01F03012606FA54
:1037A00003F3012D02D19689334006E0022D02D1A8
:1037B000168A334001E0968A33400C12012606FA3D
:1037C00004F41688344013B10CB1012000E000204D
:1037D00070BDF0B50346002400260025002040F609
:1037E0006A17B94200D100BF1846C1F3421401F074
:1037F0001F06012707FA06F5012C01D10C3004E061
:10380000022C01D1103000E014301AB107682F43A8
:10381000076002E00768AF430760F0BD2DE9FF478E
:1038200005460E460024A14600BFA046B08900B15F
:1038300000BF2C8A24F44054F08804432C82AC89C5
:1038400041F20C608443B088318908437189084390
:103850000443AC81AC8A24F44074B0890443AC8244
:103860006846FFF781FB2048854202D01F48854209
:1038700002D1DDF80C9001E0DDF80890A88900F491
:10388000004040B109EBC90000EB09103168490064
:10389000B0FBF1F707E009EBC90000EB0910316854
:1038A0008900B0FBF1F76420B7FBF0F004012009B8
:1038B000642101FB1078A88900F4004040B1322057
:1038C00000EBC800B0FBF1F000F00700044308E093
:1038D000322000EB08106421B0FBF1F000F00F0083
:1038E00004432C81BDE8FF87001001400014014013
:1038F00001468888C0F308007047C1F3080282803F
:10390000704700BFFEE700002DE9F041ACB004466F
:103910000D46CBA000682B90CAA000682A90CAA0D0
:10392000006829901422C94924A8FCF7BAFE002097
:103930001C901D901E9019901A901B901690179035
:1039400018901390149015901090119012900D9063
:103950000E900F900A900B900C9007900890099091
:1039600004900590069001900290039026462F4601
:10397000B74924A8FCF789FEB64924A8FCF785FEC0
:10398000B54924A8FCF781FEB44924A8FCF77DFEC4
:103990002AA924A8FCF779FEB14924A8FCF775FEF2
:1039A00029A924A8FCF771FEAE4924A8FCF76DFEF6
:1039B000AD4924A8FCF769FEAC4924A8FCF765FED4
:1039C000AB4924A8FCF761FEAA4924A8FCF75DFED8
:1039D0002BA924A8FCF759FE0020A74908600CE099
:1039E00024A8A5490968405CA449A34A12688854E0
:1039F000A1480068401CA049086024A8FCF726FEE6
:103A00009D4909688842EBD89D48006870B924A890
:103A1000FCF71CFE804641469AA000F067FD0A2094
:103A200000F0A2FA24A99CA000F060FD9448006870
:103A3000012803D124A99BA000F058FD36B18F497D
:103A400099A0FCF79BFC9DA0FCF798FC142124A8EE
:103A5000FCF759FE00202B902A902990002F7DD052
:103A6000994908600CE0854897490968405C1FA99E
:103A7000954A1268885494480068401C924908602E
:103A80007E48FCF7E3FD904909688842EBD89DF831
:103A90007C00412862D11FA8FCF7D8FD401E1FA959
:103AA000085C4528F6D19DF87D008DF858009DF8FA
:103AB0007E008DF859009DF87F008DF84C009DF830
:103AC00080008DF870009DF881008DF871009DF8E0
:103AD00082008DF8640000207C4908605DE01FA82A
:103AE0007A490968405C4E2824D100207849086052
:103AF0001BE076480068764909680844401C1FA905
:103B0000085C442800D114E07048006870490968D6
:103B10000844401C1FA9085C10A96D4A126888540B
:103B20006B480068401C6A490860694800680528BD
:103B3000DFDB00BF1FA865490968405C442827D126
:103B40001FA962480068401C085C8DF834005F487B
:103B50000068801C085C8DF8280000E06DE05B4880
:103B60000068C01C085C8DF81C0058480068001DE7
:103B7000085C8DF8100055480068401D085C8DF801
:103B800004001FA851490968405C452800D10BE09A
:103B90004E480068401C4D4908601FA8FCF756FDC0
:103BA0004A49096888429AD800BF13AA16A949A0B1
:103BB000FCF7E4FB19AA1CA946A0FCF7DFFB10A93F
:103BC00047A0FCF7DBFB0DA945A0FCF7D7FB0AA932
:103BD00043A0FCF7D3FB07A941A0FCF7CFFB04A946
:103BE0003FA0FCF7CBFB01A93DA0FCF7C7FB33A02E
:103BF000FCF7C4FB14211FA8FCF785FD00201C90D6
:103C00001D901E9019901A901B9016901790189066
:103C10001390149015901090119012900D900E909A
:103C20000F900A900B900C900790089009900490C8
:103C3000059006900190029003902CB0BDE8F081B1
:103C4000450000004E00000044000000944E0008B3
:103C50000C06002016060020200600202A06002060
:103C6000D0050020DA050020E4050020EE05002044
:103C7000F80500200206002018000020340600206D
:103C8000AC05002041542B43495053454E443D3030
:103C90002C25640D0A00000025732C7463700D0A36
:103CA0000000000025730A000D0A20B7A2CBCDCA80
:103CB000FDBEDDCEAA3A25730D0A00000D0A0D0ADD
:103CC0000D0A0D0A000000001C000020200000204A
:103CD000240000200D0A2025732E2573200D0A00D4
:103CE0000D0A202573200D0A0000000010B532488F
:103CF0000068002829D131A000F0F8FB4FF4FA70D9
:103D000000F032F931A000F0F1FB40F2DC5000F09D
:103D10002BF931A000F0EAFB4FF4FA7000F024F91F
:103D200034A000F0E3FB4FF4FA7000F01DF939A065
:103D300000F0DCFB4FF4FA7000F016F939A000F047
:103D4000D5FB4FF4FA7000F00FF91B48006801280A
:103D500030D13AA000F0CAFB4FF4FA7000F004F939
:103D60001AA000F0C3FB40F2DC5000F0FDF837A0D1
:103D700000F0BCFB40F6B83000F0F6F83CA000F0D4
:103D8000B5FB4FF4FA7000F0EFF83DA000F0AEFB89
:103D900040F6B83000F0E8F844A000F0A7FB4FF47C
:103DA000FA7000F0E1F845A000F0A0FB4FF4FA70C3
:103DB00000F0DAF810BD0000AC05002041542B43A0
:103DC000574D4F44453D330D0A00000041542B52DE
:103DD00053540D0A0000000041542B4349504150F8
:103DE0003D223139322E3136382E312E31220D0A14
:103DF0000000000041542B43575341503D22464898
:103E000051222C223132333435363738222C352C9E
:103E1000300D0A0041542B4349504D55583D310D4A
:103E20000A00000041542B43495053455256455215
:103E30003D312C383038300D0A00000041542B43FE
:103E4000574D4F44453D310D0A00000041542B436E
:103E5000574A41503D224D6972726F725F7A6572A6
:103E60006F222C223131313131313131220D0A00B2
:103E700041542B4349504D55583D300D0A00000028
:103E800041542B43495053544152543D22544350C2
:103E9000222C223132302E37362E3137332E33302A
:103EA000222C35303032310D0A00000041542B43B2
:103EB00049504D4F44453D310D0A000041542B43BC
:103EC000495053454E440D0A0000000010B5044609
:103ED00021460020FEF716FC10BD10B50446214611
:103EE0004020FEF70FFC10BD03B40198410000987C
:103EF00050EAC12018BF04204A0D18BF40F001004D
:103F000040F2FF72B2EB515F08BF40F0020001289F
:103F100008BF052002B0704730380A2801D20120BE
:103F200070470020704700BF7047000010B504467E
:103F30006FF00400FFF786FAE11704EB5171C1F34B
:103F4000C701074A11701046007800EB4001C1EB31
:103F5000C0104FF6FF7101EAC0000249088010BD91
:103F6000B0050020B205002070B504464FF407707C
:103F700094FBF0F0C6B24FF4077094FBF0F100FB35
:103F8000114085B205E04FF4077000F009F8701E8B
:103F9000C6B2002EF7D115B1284600F001F870BD69
:103FA0000146114A12884A434FF0E0235A61002229
:103FB0009A611A46126942F001021A6100BF4FF07D
:103FC000E022106900F001021AB100F48032002AE8
:103FD000F5D04FF0E022126922F001024FF0E02309
:103FE0001A6100229A617047B205002000BF054A9D
:103FF000128802F04002002AF9D0C2B2014B9A8026
:104000007047000000100140FEF7A8F800F0E2F948
:1040100042F2CF0142F20F70FFF776FAB7E1DC48C7
:1040200080781C2803DADA480078502821DB002049
:10403000D84908600846D8A20A210368D748FCF787
:10404000BFF9D448006820B10121D548FEF700FA35
:1040500003E00121D248FEF7FDF9CE48006820B107
:104060000221CF48FEF7F4F903E00221CC48FEF725
:10407000F1F9C74880781A2825DAC54800783C2825
:1040800021DA0120C34908600846C3A20A21036857
:10409000C248FCF795F9BF48006820B10121C0482B
:1040A000FEF7D6F903E00121BD48FEF7D3F9B94880
:1040B000006820B10221BA48FEF7CAF903E00221E4
:1040C000B748FEF7C7F90221B648FEF7B8F901284C
:1040D0005AD10421B348FEF7B2F9012854D1002087
:1040E000B1490860B1490860AF48ABA20A21036832
:1040F000AF48FCF765F9AD48A7A20A210368AD48AF
:10410000FCF75EF9A348006818B30020AA490860CC
:10411000A548A1A20A210368A548FCF751F9A348C4
:104120009DA20A210368A348FCF74AF9A2489AA273
:104130000A210368A148FCF743F99F48006820B1B1
:1041400004219748FEF784F903E004219448FEF720
:1041500081F990480068B8B90120974908609248F1
:104160008DA20A2103689248FCF72AF98F488AA297
:104170000A2103688F48FCF723F98F4886A20A2199
:1041800003688E48FCF71CF902218648FEF757F9B0
:1041900038BB04218348FEF752F910BB0120824945
:1041A000086082490860844908607F487AA20A2131
:1041B00003687F48FCF704F97C4877A20A2103686A
:1041C0007C48FCF7FDF87C4873A20A2103687B4811
:1041D000FCF7F6F87848006820B104217048FEF733
:1041E00037F903E004216E48FEF734F902216D48E7
:1041F000FEF725F9C8B904216A48FEF720F901281D
:1042000013D10020684908600120684908606648A9
:1042100061A20A2103686648FCF7D2F863485EA2EF
:104220000A2103686348FCF7CBF802215D48FEF7DA
:1042300006F9012818D104215A48FEF700F998B967
:10424000012059490860002058490860564852A288
:104250000A2103685648FCF7B3F854484EA20A21D5
:1042600003685448FCF7ACF84A48006830BB0120AA
:1042700051490860084648A20A2103684F48FCF7E4
:104280009FF84D48006820B104214548FEF7E0F84A
:1042900003E004214248FEF7DDF8012048490860A8
:1042A00008463DA20A2103684648FCF789F84448BD
:1042B000006820B108213A48FEF7CAF803E0082157
:1042C0003748FEF7C7F833480068E0B33A4800685B
:1042D000C8B33D4890ED000ADFED3C0AB4EEE00AB9
:1042E000F1EE10FA15D800203549086008462AA2D8
:1042F0000A2103683348FCF763F83148006820B1AD
:1043000008212748FEF7A4F803E008212448FEF717
:10431000A1F82D4890ED000ADFED2D0AB4EEE00A79
:10432000F1EE10FA17DB01202549086008461AA2B1
:104330000A2103682348FCF743F82148006830B19C
:104340000821174800E006E0FEF782F803E00821A4
:104350001348FEF77FF80F48006810B11648006850
:10436000A8B901201649086008460BA20A21036873
:104370001448FCF725F81248006820B108210848C5
:10438000FEF766F803E008210548FEF763F846E605
:10439000000000205C0000202564000002060020D0
:1043A000000C024000100240500000205400002089
:1043B000EE050020F805002040000020E405002064
:1043C00058000020DA0500200800002000002042EC
:1043D00000008C4210B5FF20FEF75CFC4FF47A70B1
:1043E000FFF7C2FD0020FEF755FC4FF47A70FFF78F
:1043F000BBFD042202211020FEF7D4FC4FF47A709A
:10440000FFF7B2FD052202213020FEF7CBFC4FF46E
:104410007A70FFF7A9FD062202215020FEF7C2FCA8
:104420004FF47A70FFF7A0FD0020FEF733FC4FF445
:104430007A70FFF799FD01231AA200211820FEF7D8
:10444000DBFC01231BA202210020FEF7D5FC012387
:104450001AA202214020FEF7CFFC012318A204215A
:104460000020FEF7C9FC012317A204214020FEF71B
:10447000C3FC012315A206210020FEF7BDFC012389
:1044800014A206214020FEF7B7FC012313A2072146
:104490000020FEF7B1FC012312A207214020FEF705
:1044A000ABFC10BD54657374696E672053797374E7
:1044B000656D000054454D5000000000205248003A
:1044C000534F524800000000204C560052454C41CA
:1044D0005931000052454C415932000052454C417F
:1044E0005933000052454C41593400000FB438B5DF
:1044F00005A800900F48009A0499FBF72DFF0020B3
:1045000000900C48FCF7A2F885B200240DE000BF33
:1045100040210948FFF726F90028F9D00548015D38
:104520000548FFF7EAF9601C84B2AC42EFDB38BC07
:104530005DF814FB100700200044004010B588B05F
:10454000044601210820FEF7CFFC01214804FEF7B4
:10455000DBFC072202212248FDF74EFF0722032140
:104560001F48FDF749FF0C20069002208DF81C0023
:104570008DF81D0000208DF81E0001208DF81F0011
:1045800006A91748FDF7F0FE02940020ADF80C00D4
:10459000ADF80E00ADF81000ADF814000C20ADF829
:1045A000120002A90F48FFF739F901210D48FFF762
:1045B000CDF8012240F225510A48FFF70AF92620DA
:1045C0008DF8040003208DF805008DF80600012009
:1045D0008DF8070001A8FEF72DF908B010BD000006
:1045E000000002400044004008B52F48FEF77EFD61
:1045F000012831D12C48C07800902B48837842782C
:1046000001782A48FBF7BAFE2748837828A20A21B6
:104610002848FBF7D5FE2448C37825A20A2126485E
:10462000FBF7CEFE2048037821A20A212348FBF79E
:10463000C7FE1D4843781EA20A212148FBF7C0FE91
:1046400080212048FDF704FF0120FFF78DFC802129
:104650001C48FDF7FFFE0DE01BA0FBF78FFE80213D
:104660001848FDF7F5FE0120FFF77EFC8021154874
:10467000FDF7F0FE0120FFF777FC1948016819A04B
:10468000FBF77CFE16480068401C15490860802135
:104690000C48FDF7DDFE0120FFF766FC802109488C
:1046A000FDF7D8FE08BD0000000000209857000864
:1046B00025640000200600202A0600200C060020A9
:1046C00016060020000002400D0A20526561642099
:1046D0004448543131204552524F52210D0A0000B6
:1046E0001400002020444854B6C1C8A1B4CECAFD6D
:1046F00020743A25640D0A0010B588B004460121E3
:104700000846FEF7F1FB01211020FEF70DFC072201
:1047100009212248FDF770FE07220A211F48FDF7F4
:104720006BFE4FF4C060069002208DF81C008DF8DF
:104730001D0000208DF81E0001208DF81F0006A925
:104740001648FDF711FE02940020ADF80C00ADF8FC
:104750000E00ADF81000ADF814000C20ADF81200FA
:1047600002A90F48FFF75AF801210D48FEF7EEFFA6
:10477000012240F225510A48FFF72BF825208DF839
:10478000040003208DF805008DF8060001208DF847
:10479000070001A8FEF74EF808B010BD0000024067
:1047A0000010014010B500290AD00878002807D071
:1047B00005487844FCF75CFD002801D0002010BDBE
:1047C0000248784410BD00004A100000421000006A
:1047D00010B500290AD00878002807D00548784489
:1047E000FCF746FD002801D0002010BD02487844A7
:1047F00010BD00003A1000003210000021F000420D
:10480000A2F16052B2F5801F01F0004328BFD2F13F
:104810007F6C0BD95FEA001C43EAC20242EB507086
:1048200018BF704728BF20F001007047B2F5801F05
:10483000BCBF184670474FEA410C1CF5001F02D25E
:10484000084600F01FBB70B500F05CF9000000895D
:10485000FFF7F6BF4FF00040A0F580007047000062
:1048600010B591EA030F48BF83F0004300F1B28115
:10487000841A71EB030C05D2121943EB0C03001BD5
:1048800061EB0C01DFF824E14FEA1154A4EB135C57
:104890001EEA430F18BF9EEA445F73D023EA0E035B
:1048A000DCF1200E21EA045143F4801332D322FAC2
:1048B0000CFE10EB0E0023FA0CFE41EB0E01CCF1C6
:1048C000200E03FA0EFE10EB0E0051F10001B1F5BF
:1048D000801FCCF1200E32D201EB045112FA0EF2FD
:1048E000BDE8104058BF7047401C38BF5FEA420225
:1048F00018BF7047002814BF20F0010041F10001EB
:104900004FEA410313F5001F38BF7047A1F1C041C2
:1049100000F046B9012A43EB0302ACF1200CDCF1B4
:104920001F0E32BF4FF0000E23FA0CF310EB030002
:1049300041EB0451B4EB115FD0D0A1EB045101F570
:10494000801149085FEA300001EB04510ED350F1A9
:10495000000038BF12FA0EFE08D1BDE81040C9E7CA
:10496000401C38BF5FEA4202CAD1C3E7BDE810402D
:104970004FEA410313F5001F38BF7047A1F1C04152
:1049800000F00EB99EEA445F08D011EA5E0FBDE860
:10499000104004BF01F0004100207047BDE8104006
:1049A00070B500F0AFF800BF64FBBE3E0000E0FF52
:1049B000DFF848C170B51CEA111E1EBF1CEA1315B2
:1049C0009EEA0C0F95EA0C0F00F06F8081EA030459
:1049D00023EA4C134EEAD47E21EA4C1141F48011B3
:1049E00043F48013AE44A1FB024CA0FB0365AEF17F
:1049F0007F7E361955EB0C05A1FB034C4CF10003EF
:104A0000A0FB021C16EB0C06654153F100030942A2
:104A100018BF46F0010613F4007F0BD14FEA0331B3
:104A20004FEA0530340341EA155140EA16506FF061
:104A300003020AE04FEAC3214FEAC520F40241EA2B
:104A4000555140EA56506FF0020202EB2E4201EB44
:104A5000025585EACE710AD05FEA440C18BF24F0F3
:104A6000004450F1000041F1000120EAD47040F20E
:104A7000FE7C624500D270BDA84214BF4FF0804456
:104A80004FF04044002E08BF0024BEF1806FA8BF45
:104A9000A1F1C041BDE8704080F282804FF000007B
:104AA00001F1C04101F0004170479EEA0C0F0CEA91
:104AB000131518BF95EA0C0F06D04FF0000081EADD
:104AC000030E0EF0004170BD00F01CF88900013E9D
:104AD00000F007B800F009B84FEA430C5FEA5C5CED
:104AE00008D081EA030100F05BB84FEA410C5FEAAD
:104AF0005C5CF6D14FF00000014970470000FF07F1
:104B00000000F87F0EF1020E2EF0030E5EF8046B2B
:104B1000364205D4012A43EB030515F5001F12D8D0
:104B2000012841EB010C1CF5001F0CD80ED14FEAF7
:104B3000D17C15F5001F0CEB4C0C0CF1020C08BFDE
:104B40004CEBD37C04E04FF0080C01E04FEAD37C3F
:104B50000CEB4C0526FA05F606F00706B6F1040C38
:104B600006D20EEB860CBDE870404CF0010C60479D
:104B7000DFE80CF0090B02024FF000414FF000009B
:104B8000A1F5002170BD19461046012851EB010422
:104B900018BFD4F5001484BF002001F0004170BD9F
:104BA0000808A0F500114FEA3101704791EA030FA0
:104BB00010B581F000413FF55BAE83F0004300F09B
:104BC00009B8000010B591EA030F48BF83F0004315
:104BD0003FF54EAE841A71EB030C07D212198CF01C
:104BE000004C43EB0C03001B61EB0C01DFF8A4E16C
:104BF0004FEA1154A4EB135C1EEA430F18BF9EEA60
:104C0000445F00F0B08023EA6E03524221EA04516F
:104C1000C3EB6E0338BF5B1EDCF1200E25D322FAF6
:104C20000CFE10EB0E0043FA0CFE41EB0E01CCF132
:104C3000200E03FA0EFE10EB0E0051F10001CCF134
:104C4000200E29D412FA0EF201EB0451BDE81040F7
:104C500058BF7047401C1CBFB2F1004F704700287E
:104C60000CBF491C20F00100704712EB020E43EB11
:104C7000030218BF4FF0010E4EEA4202ACF1200CC5
:104C8000DCF11E0E54D943FA0CFE10EB0E0051F16C
:104C9000FF31CCF11E0ED5D50EF1010E12FA0EFE2B
:104CA000404141EB010101EB445C5FEA5C5C10D9DF
:104CB00010EBDE7001EB045138BFBEF1004FBDE8D0
:104CC000104018BF704700280CBF491C20F001009D
:104CD000704730D24FEAD42C11F5001124F400644F
:104CE0001BD0B1FA81F20B3AA41AA41ED2F1200310
:104CF000914030FA03F31943904001EBCC71002C42
:104D000001EB0451BDE81040A8BF704701F1C0415C
:104D10004FF0000001F000417047B0FA80F310FA44
:104D200003F100D110BDE41A173C4805C90AE4E7B5
:104D300001EB045110BD491001EB0451BDE81040D6
:104D40004FEA300002E04FF0000170474A0008BF10
:104D50000042F8D0B2F5001F28BF704701F00041B3
:104D60004FF0000070479EEA445F07D011EA5E0FE3
:104D7000BDE8104004BF002100207047BDE810408E
:104D800070B5FFF7BFFE00BF40DFF63E83F0004185
:104D9000104670470000E0FF43004FEAD30C4FEA93
:104DA0003C0C43401FBF40070CF1605113F0FE4F15
:104DB00070471CF0006F03D100200CF000417047D9
:104DC0000CF0004343EA507010B540EACC0000F00C
:104DD0000EF800BF000000924FEA0001FFF7E0BEAE
:104DE0004FF000414FF00000A1F5002170470EF197
:104DF000020E2EF0030E5EF8044B244204D44FEA58
:104E00004102B2F17F4F11D84FEA4003B3F17F4F17
:104E10000CD80ED14FEAD07CB2F17F4F0CEB4C0C8A
:104E20000CF1020C08BF4CEBD17C04E04FF0080CF5
:104E300001E04FEAD17C0CEB4C0324FA03F404F0BC
:104E40000704B4F1040C06D20EEB840CBDE810404C
:104E50004CF0010C6047DFE80CF0070802024FF04D
:104E60000040A0F5800010BD0846420018BFD2F1F6
:104E7000807288BF00F0004010BD4FF04070E1EE3E
:104E8000100A7047FF2141EAD050C0057047FBF778
:104E9000E2BD000041000000000000000000000032
:104EA0000000000000000000000000000000000002
:104EB000002F000000000700070000147F147F147B
:104EC00000242A7F2A120062640813230036495501
:104ED000225000000503000000001C2241000000D9
:104EE00041221C000014083E08140008083E08086F
:104EF000000000A0600000080808080800006060CA
:104F00000000002010080402003E5149453E000008
:104F1000427F4000004261514946002141454B31EA
:104F2000001814127F10002745454539003C4A49B6
:104F30004930000171090503003649494936000628
:104F40004949291E00003636000000005636000090
:104F5000000814224100001414141414000041220B
:104F6000140800020151090600324959513E007CE3
:104F70001211127C007F49494936003E41414122CD
:104F8000007F4141221C007F49494941007F0909B6
:104F90000901003E4149497A007F0808087F000066
:104FA000417F4100002040413F01007F0814224121
:104FB000007F40404040007F020C027F007F0408D9
:104FC000107F003E4141413E007F09090906003E35
:104FD0004151215E007F091929460046494949315E
:104FE0000001017F0101003F4040403F001F204081
:104FF000201F003F4038403F00631408146300073F
:105000000870080700615149454300007F41410095
:1050100000552A552A55000041417F000004020135
:105020000204004040404040000001020400002013
:1050300054545478007F4844443800384444442051
:1050400000384444487F00385454541800087E09FE
:1050500001020018A4A4A47C007F080404780000C6
:10506000447D4000004080847D00007F1028440083
:105070000000417F4000007C04180478007C080494
:10508000047800384444443800FC242424180018D0
:10509000242418FC007C08040408004854545420BC
:1050A00000043F444020003C4040207C001C204045
:1050B000201C003C4030403C004428102844001C88
:1050C000A0A0A07C004464544C4414141414141480
:1050D00000000000000000000000000000000000D0
:1050E000000000F800000000000000333000000065
:1050F00000100C06100C060000000000000000006C
:1051000040C07840C0784000043F04043F040400DD
:10511000007088FC08300000001820FF211E0000ED
:10512000F008F000E018000000211C031E211E0002
:1051300000F00888700000001E2123241927211088
:1051400010160E000000000000000000000000002B
:10515000000000E0180402000000000718204000D2
:1051600000020418E00000000040201807000000C2
:10517000404080F0804040000202010F0102020026
:10518000000000F0000000000101011F010101000A
:10519000000000000000000080B07000000000006F
:1051A00000000000000000000001010101010101F8
:1051B000000000000000000000303000000000008F
:1051C0000000000080601804006018060100000064
:1051D00000E010080810E000000F102020100F0061
:1051E000001010F8000000000020203F20200000E8
:1051F0000070080808887000003028242221300040
:1052000000300888884830000018202020110E0047
:105210000000C02010F8000000070424243F2400F0
:1052200000F80888880808000019212020110E00C5
:1052300000E0108888180000000F112020110E00D7
:1052400000380808C83808000000003F00000000CF
:105250000070880808887000001C222121221C0090
:1052600000E010080810E0000000312222110F00B9
:10527000000000C0C000000000000030300000004E
:1052800000000080000000000000806000000000BE
:1052900000008040201008000001020408102000D7
:1052A0004040404040404000040404040404040022
:1052B00000081020408000000020100804020100B7
:1052C000007048080808F0000000003036010000B7
:1052D000C030C828E810E0000718272423140B006A
:1052E0000000C038E0000000203C230202273820E4
:1052F00008F8888888700000203F202020110E00C8
:10530000C0300808080838000718202020100800BE
:1053100008F808080810E000203F202020100F00A7
:1053200008F88888E8081000203F20202320180073
:1053300008F88888E8081000203F200003000000DB
:10534000C03008080838000007182020221E02007C
:1053500008F808000008F808203F210101213F203B
:10536000000808F8080800000020203F2020000066
:1053700000000808F8080800C08080807F00000056
:1053800008F888C028180800203F2001263820008F
:1053900008F8080000000000203F202020203000F6
:1053A00008F8F800F8F80800203F003F003F200010
:1053B00008F830C00008F808203F200007183F0018
:1053C000E01008080810E0000F10202020100F0047
:1053D00008F808080808F000203F2101010100003A
:1053E000E01008080810E0000F18242438504F007F
:1053F00008F8888888887000203F2000030C30203F
:1054000000708808080838000038202121221C007C
:10541000180808F8080818000000203F20000000C5
:1054200008F808000008F808001F202020201F00AE
:105430000878880000C83808000007380E0100000E
:10544000F80800F80008F800033C0700073C0300D8
:10545000081868808068180820302C03032C30203E
:105460000838C800C83808000000203F20000000AD
:1054700010080808C8380800203826212020180005
:10548000000000FE020202000000007F40404000D9
:10549000000C30C000000000000000010638C00011
:1054A00000020202FE000000004040407F000000B9
:1054B00000000402020204000000000000000000DE
:1054C00000000000000000008080808080808080DC
:1054D00000020204000000000000000000000000C4
:1054E00000008080808000000019242222223F20BA
:1054F00008F8008080000000003F112020110E00FD
:105500000000008080800000000E1120202011008B
:10551000000000808088F800000E112020103F203D
:105520000000808080800000001F222222221300C1
:10553000008080F0888888180020203F202000000C
:105540000000808080808000006B949494936000C1
:1055500008F8008080800000203F210000203F20CC
:1055600000809898000000000020203F20200000CC
:10557000000000809898000000C08080807F0000BC
:1055800008F8000080808000203F24022D30200099
:10559000000808F8000000000020203F2020000044
:1055A0008080808080808000203F20003F20003F5E
:1055B0008080008080800000203F210000203F206C
:1055C0000000808080800000001F202020201F001D
:1055D000808000808000000080FFA12020110E004C
:1055E0000000008080808000000E112020A0FF803D
:1055F000808080008080800020203F2120000100EA
:10560000000080808080800000332424242419003E
:10561000008080E0808000000000001F202000004B
:105620008080000000808000001F202020103F208C
:10563000808080000080808000010E30080601001C
:1056400080800080008080800F300C030C300F00C1
:1056500000808000808080000020312E0E312000EC
:10566000808080000080808080818E70180601001C
:1056700000808080808080000021302C222130003A
:1056800000000000807C020200000000003F40405B
:1056900000000000FF00000000000000FF0000000C
:1056A0000002027C800000000040403F000000003B
:1056B00000060101020204040000000000000000D6
:1056C00004000008000000000000000200010000CB
:1056D00010000000000000000000000030313233F4
:1056E0003435363738394142434445464030580016
:1056F0003031323334353637383961626364656648
:105700004030780002400000000000A000000000CF
:1057100005400000000000C8000000000C40000030
:105720000000409C00000000194000000020BCBEAA
:105730000000000034400000BFC91B8E00000004C0
:10574000B5400000504BCFD06607E2CF010000000B
:105750006C4100003E8251AADFEEA7340100000038
:10576000D9420000DCB5A0E23A301F97FFFFFFFFEF
:10577000B4450000FD25A0C8E9A3C14FFFFFFFFF0E
:10578000FF3F00000000008000000000FF3F00001D
:1057900000000080000000000D0A205265616420B6
:1057A0004448543131204F4B210D0A0D0A204461E9
:1057B0006D706E6573732025642E2564A3A5524811
:1057C00020A3AC54656D7065726174757265202597
:1057D000642E2564A1E6200D0A0D0A002859000850
:1057E00000000020D0050000C4010008545B000840
:1057F000D005002068080000200200081C000000FE
:1058000043000000F8FFFFFF0C0000000E00000046
:105810000F0000002E0000001001000043000000F7
:10582000F8FFFFFF004040404040404040404141C1
:105830004141414040404040404040404040404065
:1058400040404040400502020202020202020202FF
:1058500002020202022020202020202020202002FC
:10586000020202020202909090909090101010108C
:105870001010101010101010101010101010101028
:1058800002020202020288888888888808080808BC
:105890000808080808080808080808080808080888
:1058A00002020202400000000000000000000000B0
:1058B00000000000000000000000000000000000E8
:1058C00000000000000000000000000000000000D8
:1058D00000000000000000000000000000000000C8
:1058E00000000000000000000000000000000000B8
:1058F00000000000000000000000000000000000A8
:105900000000000000000000000000000000000097
:105910000000000000000000000000000000000087
:1059200000000000000000000129847A030A000939
:105930002401020304060708099A0104112CFE92AF
:1059400092031117424AD26A46C0100940C4444427
:105950003F2424244C40807F2133C03822FF344030
:105960002018100880814020100C031008030C1030
:1059700020408080172424A4FEA3223B22CC242193
:1059800015080601FF2B01040115FF020202180C85
:10599000101010FF109008888888FF04120810105B
:1059A0000444827F01808040432C10284681801E61
:1059B00080828282FE0449061A80615440300F3989
:1059C0004F194015D0FF90101AFE4C42FE1B0403E5
:1059D000193483601F353F4040781AF06319641909
:1059E0000152F03A0F7C290529483D1060028CE5F0
:1059F00019012941180A04047E01407E42427E02B8
:105A000034427E401AFCEE2DFC2526240812041890
:105A10000E40308F80844C55252525554C80E0392B
:105A200040493F7940180B4448507F40407F5048E0
:105A30004440100A03050911FF118905C312E01241
:105A4000F072F8073D4428FF11AA44700B83013817
:105A5000448292927401831E7C44C7017D019905A2
:105A600062FF9A0102818A010B013669419949FA64
:105A70000101A12A4001212A6D01212A6001791525
:105A800001642ADB010915072ADA01212AD801213C
:105A90002AC0010915072A800101352A06010918C3
:105AA000071CE66620076A86157A861C2A86011876
:105AB0000A80808686068686C0C00C0E1C0606D02C
:105AC00030764D2907013113601C12FE13010210BC
:105AD00009C41820029E63B20E1DFF8181FFF244AB
